:020000040000FA
:10000000C5EF24F0C96E12002BEF20F0E0EC0DF0EC
:10001000A7EC0CF0FDD71200C7EF22F0D9CFE5FF17
:10002000E1CFD9FF00C0E5FF01C0E5FF02C0E5FF59
:1000300003C0E5FF04C0E5FF05C0E5FF06C0E5FF1E
:1000400007C0E5FF08C0E5FF09C0E5FF0AC0E5FFFE
:100050000BC0E5FF0CC0E5FF0DC0E5FF0EC0E5FFDE
:100060000FC0E5FF10C0E5FF11C0E5FF12C0E5FFBE
:1000700013C0E5FF14C0E5FF15C0E5FF16C0E5FF9E
:1000800017C0E5FF18C0E5FF19C0E5FF1AC0E5FF7E
:100090001BC0E5FF1CC0E5FF1DC0E5FF1EC0E5FF5E
:1000A000020EDBCF00F0030EDBCF01F0040EDBCF3E
:1000B00002F0050EDBCF03F0060EDBCF04F0070ED7
:1000C000DBCF05F0080EDBCF06F0090EDBCF07F023
:1000D0000A0EDBCF08F0096A0A6A02C00DF00D5063
:1000E000800A0DE102500A01706F01506F6F0050DD
:1000F0006E6F0A0E016E6E0E006E800E026E03C0F1
:10010000E9FF04C0F3FF0550FEEC24F00B6E0B502A
:10011000D8B4FCEF03F00B50250A02E0E3EF03F044
:100120000C6A0D6A0E6A0F6A106A0A0E116E126A64
:10013000136A146A200E156E1668176A2B0E186E55
:10014000032A02E3044A052A03C0E9FF04C0F3FFBF
:100150000550FEEC24F0196E250A13E11950E56EE6
:100160000250E56E0150E56E0050E56EA7EC17F009
:10017000040EE126094A0A2A032A02E3044A052A50
:10018000BED71950300A06E1300E156E032A02E37D
:10019000044A052A03C0E9FF04C0F3FF0550FEEC42
:1001A00024F02D0A06E1010E146E032A02E3044A2C
:1001B000052A03C0E9FF04C0F3FF0550FEEC24F05C
:1001C000200A08E1010E176E200E186E032A02E3C2
:1001D000044A052A03C0E9FF04C0F3FF0550FEEC02
:1001E00024F02B0A06E1010E176E032A02E3044AEB
:1001F000052A03C0E9FF04C0F3FF0550FEEC24F01C
:10020000196E800F4F0F2DE31950800F460F29E212
:1002100003C019F004C01AF005C01BF019C0E9FFB3
:100220001AC0F3FF1B50FEEC24F01C6E800F500F21
:1002300012E31C50800F460F0EE213500A0DF3CF4D
:100240001DF01D501C26D00E1C24136E192A02E32B
:100250001A4A1B2AE3D719C003F01AC004F01BC0C6
:1002600005F003C0E9FF04C0F3FF0550FEEC24F0E5
:100270002E0A2EE1032A02E3044A052A166A03C065
:1002800019F004C01AF005C01BF019C0E9FF1AC02C
:10029000F3FF1B50FEEC24F01C6E800F500F12E396
:1002A0001C50800F460F0EE216500A0DF3CF1DF0C2
:1002B0001D501C26D00E1C24166E192A02E31A4A61
:1002C0001B2AE3D719C003F01AC004F01BC005F0C5
:1002D00003C0E9FF04C0F3FF0550FEEC24F0196EE3
:1002E0006C0A07E1010E0C6E032A02E3044A052A98
:1002F00009D01950680A06E1010E0E6E032A02E3C6
:10030000044A052A03C0E9FF04C0F3FF0550FEECD0
:1003100024F0750A06E1010E106E032A02E3044A76
:10032000052A03C0E9FF04C0F3FF0550FEEC24F0EA
:10033000196E730A05E1010E0D6E200E156E3FD089
:100340001950780A03E1100E116E39D01950580A6D
:1003500005E1100E116E010E126E31D01950630AB4
:1003600002E1116A2CD019506F0A03E1080E116ED8
:1003700026D01950660A03E1010E0F6E20D01950E5
:10038000640A1DE01950690A1AE0105005E0FF0EDA
:1003900003260422052213D01950E56E0250E56EA3
:1003A0000150E56E0050E56EA7EC17F0040EE12653
:1003B000094A0A2A032A02E3044A052AA0D60D5054
:1003C00021E00650030F0D6E000E0720196E000E7F
:1003D00008201A6E0DC006F019C007F01AC008F008
:1003E000FD0E0D26FF0E19221A220DC0E9FF19C0BD
:1003F000F3FF1A50C3EC23F00D6EF3CF19F0F4CFD6
:100400001AF032D10F50D8B43ED00650040F0F6E00
:10041000000E07201B6E000E08201C6E0FC006F099
:100420001BC007F01CC008F0FC0E0F26FF0E1B229D
:100430001C220FC0E9FF1BC0F3FF1C500DEC23F082
:100440000F6EF3CF1BF0F4CF1CF0E9CF1DF00F0EB1
:10045000196E000E0D6E800E1A6E1650E56E240E8B
:10046000E56E0F0EE56E000EE56E1D50E56E1C503C
:10047000E56E1B50E56E0F50E56E46EC10F0080E71
:10048000E1261668F1D016680C5023E00650040FE0
:100490000C6E000E07200F6E000E08201B6E0CC0A5
:1004A00006F00FC007F01BC008F0FC0E0C26FF0E74
:1004B0000F221B220CC0E9FF0FC0F3FF1B500DECF5
:1004C00023F00C6EF3CF0FF0F4CF1BF0E9CF1CF04C
:1004D0006AD00E5032E00650020F0E6E000E07205A
:1004E0001D6E000E08201E6E0EC006F01DC007F027
:1004F0001EC008F0FE0E0E26FF0E1D221E220EC08C
:10050000E9FF1DC0F3FF1E5099EC24F00E6E0EC0E3
:100510000CF0E86A0EBEFF0E0F6E1B6E1C6E1150C3
:100520000A0A03E11050D8B43ED00C500E6E0EC033
:100530000CF00F6A1B6A1C6A36D00650020F0E6E52
:10054000000E07201D6E000E08201E6E0EC006F065
:100550001DC007F01EC008F0FE0E0E26FF0E1D2265
:100560001E220EC0E9FF1DC0F3FF1E5099EC24F0BF
:100570000E6EF3CF1DF00EC00CF01DC00FF0E86A38
:100580001DBEFF0E1B6E1C6E11500A0A02E11050B8
:100590000AE00C500E6E0F501D6E0EC00CF01DC008
:1005A0000FF01B6A1C6A0F0E196E010E0D6E800E85
:1005B0001A6E1150D8B440D0105013E01150E56EAF
:1005C0000F0EE56E010EE56E1C50E56E1B50E56EDC
:1005D0000F50E56E0C50E56E64EC13F0070EE1264B
:1005E00012D01150E56E0F0EE56E010EE56E1C5037
:1005F000E56E1B50E56E0F50E56E0C50E56E49EC54
:100600001BF0070EE12617502FE00DC0E9FF19C0BF
:10061000F3FF1A50FEEC24F02D0A26E0FF0E0D2603
:1006200019221A2218C0E5FF0DC0E9FF19C0F3FF17
:100630001A507CEC25F018D00CC0E5FF0DC0E9FF86
:1006400019C0F3FF1A507CEC25F00D50010F0C6E11
:10065000000E19200E6E000E1A20E56A0CC0E9FF8C
:100660000EC0F3FF7CEC25F00DC00CF019C00EF0AD
:100670001AC00FF013C010F0105010E00CC0E9FFCA
:100680000EC0F3FF0F50FEEC24F0176E175006E07B
:100690000C2A02E30E4A0F2A1006EED710C013F000
:1006A00014501EE109C00CF00AC00EF010C00FF08B
:1006B0000F5010E01550E56E0250E56E0150E56EEA
:1006C0000050E56EA7EC17F0040EE1260C4A0E2A46
:1006D0000F06EED70CC009F00EC00AF00FC013F0E1
:1006E00016C00CF00DC00DF019C00EF01AC00FF0BE
:1006F00009C010F00AC015F00DC0E9FF0EC0F3FFED
:100700000F50FEEC24F0166E1650D8B43ED00CC03C
:1007100016F0176A161E171E1650171005E00CC0AB
:1007200016F00C06165031E00DC0E9FF0EC0F3FFC5
:100730000F50FEEC24F0116E125010E01150E56ED7
:1007400056EC24F0166EE652165004E01150166E68
:10075000169A02D011C016F016C011F01150E56EB5
:100760000250E56E0150E56E0050E56EA7EC17F003
:10077000040EE1260D2A02E30E4A0F2A104A152A1A
:100780001350D8B4B9D71306B7D710C009F015C0A5
:100790000AF014502BE010C00CF015C00DF013C07F
:1007A0000EF00E501FE0200EE56E0250E56E015077
:1007B000E56E0050E56EA7EC17F0040EE1260C4A3A
:1007C0000D2A0E06EED70B50E56E0250E56E015075
:1007D000E56E0050E56EA7EC17F0040EE126094A1D
:1007E0000A2A04D00CC009F00DC00AF0032A02E363
:1007F000044A052A7FEF00F00AC0F3FF0950E4CF56
:100800001EF0E4CF1DF0E4CF1CF0E4CF1BF0E4CFEA
:100810001AF0E4CF19F0E4CF18F0E4CF17F0E4CFEA
:1008200016F0E4CF15F0E4CF14F0E4CF13F0E4CFEA
:1008300012F0E4CF11F0E4CF10F0E4CF0FF0E4CFEA
:100840000EF0E4CF0DF0E4CF0CF0E4CF0BF0E4CFEA
:100850000AF0E4CF09F0E4CF08F0E4CF07F0E4CFEA
:1008600006F0E4CF05F0E4CF04F0E4CF03F0E4CFEA
:1008700002F0E4CF01F0E4CF00F0E4CFD9FF1200A2
:1008800005C0E5FF06C0E5FF07C0E5FF08C0E5FFBE
:1008900009C0E5FF0AC0E5FF0BC0E5FF0CC0E5FF9E
:1008A0000DC0E5FF0EC0E5FF0FC0E5FF10C0E5FF7E
:1008B00011C0E5FF12C0E5FF13C0E5FF14C0E5FF5E
:1008C00015C0E5FF16C0E5FF17C0E5FF18C0E5FF3E
:1008D00019C0E5FF1AC0E5FF1BC0E5FF1CC0E5FF1E
:1008E0001DC0E5FF000E00B0050F066AF60F02E31B
:1008F000062AFCD70A0F056E042E03D0FB0F01E376
:10090000062A065000B0020F00B2050F076AF60F64
:1009100002E3072AFCD70A0F066E042E03D0FB0F52
:1009200001E3072A075000B0060F00B2020F00B41F
:10093000050F086AF60F02E3082AFCD70A0F076EB4
:10094000042E03D0FB0F01E3082A085000B2010F68
:1009500000B4020F00B6050F096AF60F02E3092A78
:10096000FCD70A0F086E042E03D0FB0F01E3092AFF
:10097000095000B0090F00B2080F00B4060F00B60E
:10098000020F00B8050F0A6AF60F02E30A2AFCD725
:100990000A0F096E042E03D0FB0F01E30A2A0A5046
:1009A00000B0030F00B2070F00B4050F00B6010F2F
:1009B00000B8020F00BA050F0B6AF60F02E30B2A0C
:1009C000FCD70A0F0A6E042E03D0FB0F01E30B2A9B
:1009D0000B5000B0050F00B4010F00B6030F00B8B4
:1009E000060F00BA020F00BC050F0C6AF60F02E3F7
:1009F0000C2AFCD70A0F0B6E042E03D0FB0F01E369
:100A00000C2A0C5000B0070F00B2050F00BA010FFE
:100A100000BC020F00BE050F0D6AF60F02E30D2A9F
:100A2000FCD70A0F0C6E042E03D0FB0F01E30D2A36
:100A30000D5000B0070F00B2050F00B4010F00B653
:100A4000020F00B8040F00BA080F00BC060F00BE6A
:100A5000020F01B0050F0E6AF60F02E30E2AFCD753
:100A60000A0F0D6E042E03D0FB0F01E30E2A0E5069
:100A700000B0040F00B2090F00B4090F00B6080F50
:100A800000B8060F00BA020F00BC050F00BE010F30
:100A900001B0020F01B2050F0F6AF60F02E30F2A31
:100AA000FCD70A0F0E6E042E03D0FB0F01E30F2AB2
:100AB0000F5000B0040F00B2080F00B4070F00B6CB
:100AC000050F00B8010F00BA030F00BC060F00BEEF
:100AD000030F01B0060F01B2020F01B4050F106A37
:100AE000F60F02E3102AFCD70A0F0F6E042E03D074
:100AF000FB0F01E3102A105000B0060F00B2020FE6
:100B000000B4050F00B6010F00B8030F00BA060FBE
:100B100000BC020F00BE050F01B2010F01B4020FAD
:100B200001B6050F116AF60F02E3112AFCD70A0F6E
:100B3000106E042E03D0FB0F01E3112A115000B0F8
:100B4000040F00B2090F00B4080F00B6070F00B879
:100B5000040F00BA080F00BC070F00BE040F01B05D
:100B6000090F01B2080F01B4060F01B6020F01B858
:100B7000050F126AF60F02E3122AFCD70A0F116E54
:100B8000042E03D0FB0F01E3122A125000B4010F10
:100B900000B6030F00B8070F00BA040F00BC090F1E
:100BA00000BE090F01B0080F01B2070F01B4050F15
:100BB00001B6010F01B8020F01BA050F136AF60F53
:100BC00002E3132AFCD70A0F126E042E03D0FB0F88
:100BD00001E3132A135000B0060F00B2020F00B455
:100BE000040F00B6080F00B8060F00BA030F00BCD0
:100BF000060F00BE030F01B0070F01B2050F01B4CD
:100C0000010F01B6030F01B8060F01BA020F01BCB4
:100C1000050F146AF60F02E3142AFCD70A0F136EAD
:100C2000042E03D0FB0F01E3142A145000B0090F67
:100C300000B2090F00B4080F00B6060F00B8030F8A
:100C400000BA070F00BC040F00BE090F01B0080F67
:100C500001B2070F01B4050F01BA010F01BC020F69
:100C600001BE050F156AF60F02E3152AFCD70A0F1D
:100C7000146E042E03D0FB0F01E3152A155000B0AB
:100C8000050F00B2010F00B4030F00B6070F00B844
:100C9000050F00BC010F00BE020F01B0050F01B22D
:100CA000010F01B4030F01B6070F01B8040F01BA19
:100CB000080F01BC060F01BE020F02B0050F166A35
:100CC000F60F02E3162AFCD70A0F156E042E03D086
:100CD000FB0F01E3162A165000B2010F00B4020FF9
:100CE00000B6040F00B8090F00BA090F00BC080FC6
:100CF00000BE060F01B0020F01B2050F01B8010FCF
:100D000001BA020F01BC050F01BE010F02B0020FB4
:100D100002B2050F176AF60F02E3172AFCD70A0F73
:100D2000166E042E03D0FB0F01E3172A175000BAEA
:100D3000010F00BC030F00BE070F01B0050F01B487
:100D4000010F01B6020F01B8040F01BA080F01BC70
:100D5000060F01BE030F02B0060F02B2020F02B46B
:100D6000050F186AF60F02E3182AFCD70A0F176E50
:100D7000042E03D0FB0F01E3182A185001B0010F15
:100D800001B2030F01B4060F01B6020F01B8040F40
:100D900001BA080F01BC070F01BE050F02B2010F17
:100DA00002B4020F02B6050F196AF60F02E3192A00
:100DB000FCD70A0F186E042E03D0FB0F01E3192A8B
:100DC000195001B6010F01B8020F01BA040F01BC9E
:100DD000090F01BE090F02B0090F02B2080F02B4D9
:100DE000060F02B6020F02B8050F1A6AF60F02E3E9
:100DF0001A2AFCD70A0F196E042E03D0FB0F01E349
:100E00001A2A1A5001BE010F02B0030F02B2070FD7
:100E100002B4050F02B6010F02B8020F02BA050FA5
:100E20001B6AF60F02E31B2AFCD70A0F1A6E042E68
:100E300003D0FB0F01E31B2A1B5002B4010F02B6C3
:100E4000030F02B8060F02BA020F02BC050F1C6A9C
:100E5000F60F02E31C2AFCD70A0F1B6E042E03D0E8
:100E6000FB0F01E31C2A1C5002BA010F02BC020F47
:100E700002BE050F1D6AF60F02E31D2AFCD70A0FFA
:100E80001C6E042E03D0FB0F01E31D2A300FEE6E03
:100E90001B50300FEE6E1A50300FEE6E1950300F9F
:100EA000EE6E1850300FEE6E1750300FEE6E16507B
:100EB000300FEE6E1550300FEE6E1450300FEE6E98
:100EC0001350300FEE6E1250300FEE6E1150300F87
:100ED000EE6E1050300FEE6E0F50300FEE6E0E5063
:100EE000300FEE6E0D50300FEE6E0C50300FEE6E78
:100EF0000B50300FEE6E0A50300FEE6E0950300F6F
:100F0000EE6E0850300FEE6E0750300FEE6E06504A
:100F1000300FEE6E0550300FEE6E170EE4CF1DF061
:100F2000E4CF1CF0E4CF1BF0E4CF1AF0E4CF19F0CB
:100F3000E4CF18F0E4CF17F0E4CF16F0E4CF15F0CB
:100F4000E4CF14F0E4CF13F0E4CF12F0E4CF11F0CB
:100F5000E4CF10F0E4CF0FF0E4CF0EF0E4CF0DF0CB
:100F6000E4CF0CF0E4CF0BF0E4CF0AF0E4CF09F0CB
:100F7000E4CF08F0E4CF07F0E4CF06F0E4CF05F0CB
:100F8000120000C0E5FF01C0E5FF02C0E5FF03C09D
:100F9000E5FF04C0E5FF05C0E5FF06C0E5FF07C0AB
:100FA000E5FF08C0E5FF09C0E5FF0AC0E5FF0BC08B
:100FB000E5FF0CC0E5FF006A016A026A040E025CEC
:100FC000D8B0D3EF09F001C003F0012A100E035C82
:100FD000D8B0E9D10401142B100E145D01E3146B99
:100FE00004011439E8441F0B036E046A710E0326D2
:100FF0000A0E042203C0E9FF04C0EAFFEFCF03F0AA
:10100000070E1415046E010E056E000E066E0450D8
:1010100006E0E86CD89005360636010FFCE3076A57
:101020000350051607500616055005E1065003E16A
:10103000056A052A01D0056A0550D880E866D8906F
:10104000056A05360550D8B4B9D704011451020D0C
:10105000F450046EF3CF03F0E00E0324056E000E8F
:101060000420066E05C0E9FF06C0EAFFEECF05F0DA
:10107000EFCF06F0040111A19DD0D30E0324076E1B
:10108000040E0420086E07C0E9FF08C0EAFFEECF97
:1010900007F0EFCF08F00650800FF36E0850800F76
:1010A000F35C02E10750055C03E2056A066A60D062
:1010B000000E03260A0E042203C0E9FF04C0EAFF63
:1010C000EECF03F0EFCF04F00450800FF36E065024
:1010D000800FF35C02E10550035C04E205683F0EFB
:1010E000066E46D00750055C096E085006580A6E19
:1010F000E86A0ABEFF0E0B6EE56E0B50E56E0A50F5
:10110000E56E0950E56EE56AE56A400EE56E000E93
:10111000E56A58EC11F0096EF3CF0AF0F4CF0BF04A
:10112000E9CF0CF0080EE1260750035C076E08506B
:101130000458086EE86A08BEFF0E036EE56E0350A1
:10114000E56E0850E56E0750E56E0C50E56E0B50ED
:10115000E56E0A50E56E0950E56E92EC16F0036EEE
:10116000F3CF04F0080EE1260350056E0450066E1E
:1011700004011051800FF36E0650800FF35C02E102
:1011800005500F5D03E3056A066A14D004010F5190
:10119000FF08036E3F0E1055046E0650800FF36E6D
:1011A0000450800FF35C02E10350055C03E3056823
:1011B0003F0E066E04011451020DF450046EF3CF7D
:1011C00003F0B30E0326040E042203C0E9FF04C09B
:1011D000EAFFEECF03F0EFCF04F00350055C036E9F
:1011E00004500658046ED88004AED89004E3041E60
:1011F000036CD8B4042A022A04011051800FF36E44
:101200000450800FF35C02E103500F5DD8B0D6D6D6
:1012100004011451020DF450086EF3CF07F0B30E21
:101220000726040E082207C0E9FF08C0EAFF05C030
:10123000EEFF06C0EFFF040111A55AD004011451BE
:10124000020DF450086EF3CF07F0200E0724096E4C
:101250000A0E08200A6E09C0E9FF0AC0EAFFEECFB5
:101260000BF0EFCF0CF00B500C10D8B441D0930E14
:101270000726040E082207C0E9FF08C0EAFFEECFE8
:1012800007F0EFCF08F00750055C036E08500658D2
:10129000046E03101CE00450800F800F02E1010E69
:1012A000035C076A07360C50800F800F02E1010EC5
:1012B0000B5C0B6A0B3607500B1809E109C0E9FFFC
:1012C0000AC0EAFF03C0EEFF04C0EFFF77D60401B7
:1012D0001451020DF450046EF3CF03F0200E0326D8
:1012E0000A0E042203C0E9FF04C0EAFFEE6AEF6AB7
:1012F000040111A343D000500EE100C003F0002A06
:10130000046A150E0326040E042203C0E9FF04C07C
:10131000EAFF420EEF6E00C003F0002A046A150EC9
:101320000326040E0422640E04011425076E03C074
:10133000E9FF04C0EAFF07C0EFFF00C003F0002A86
:10134000046A150E0326040E04220650076E03C01D
:10135000E9FF04C0EAFF07C0EFFF00C003F0002A66
:10136000046A150E0326040E04220550076E03C0FE
:10137000E9FF04C0EAFF07C0EFFF20D614C403F062
:101380000650E56E0550E56EE56A0350E56E000E09
:10139000E56E320EE56E3E0EE56EBEEC1EF0070EFB
:1013A000E126DEEF07F002C001F000501DE004016D
:1013B00011A31AD000C002F0002A036A150E0226FB
:1013C000040E032202C0E9FF03C0EAFF0A0EEF6E1B
:1013D0000050E56E800EE56E040EE56E150EE56EAE
:1013E00030EC18F0040EE1260150E4CF0CF0E4CF0D
:1013F0000BF0E4CF0AF0E4CF09F0E4CF08F0E4CF3B
:1014000007F0E4CF06F0E4CF05F0E4CF04F0E4CF3A
:1014100003F0E4CF02F0E4CF01F0E4CF00F01200DB
:1014200000C0E5FF01C0E5FF02C0E5FF03C0E5FF26
:1014300004C0E5FF05C0E5FF06C0E5FF07C0E5FF06
:1014400008C0E5FF09C0E5FF0AC0E5FF0BC0E5FFE6
:101450000CC0E5FF0DC0E5FF0EC0E5FF000E00B0BB
:10146000010F00B2020F00B4040F00B6080F00B85D
:10147000060F00BA020F00BC040F00BE080F01B037
:10148000060F01B2020F01B4040F01B6080F01B834
:10149000060F01BA020F01BC040F01BE080F02B013
:1014A000060F02B2020F02B4040F02B6080F02B810
:1014B000060F02BA020F02BC040F02BE080F056A33
:1014C000F60F02E3052AFCD70A0F046E055000B898
:1014D000010F00BA030F00BC060F00BE020F01B0DF
:1014E000050F01B2010F01B4020F01B6040F01B8DC
:1014F000090F01BA090F01BC080F01BE060F02B0A7
:10150000030F02B2070F02B4040F02B6080F02B8AD
:10151000070F02BA050F066AF60F02E3062AFCD788
:101520000A0F056E065000BE010F01B0020F01B296
:10153000050F01BA010F01BC030F01BE070F02B076
:10154000050F02B4010F02B6020F02B8050F02BA6E
:10155000010F02BC030F02BE060F076AF60F02E37B
:10156000072AFCD70A0F066E075001B4010F01B617
:10157000020F01B8040F01BA080F01BC060F01BE2B
:10158000020F02B0050F02B2010F02B4020F02B641
:10159000040F02B8080F02BA070F02BC040F02BE04
:1015A000080F086AF60F02E3082AFCD70A0F076E35
:1015B000085001BC010F01BE030F02B0060F02B2BA
:1015C000030F02B4060F02B6020F02B8040F02BAEC
:1015D000090F02BC090F02BE080F096AF60F02E3E9
:1015E000092AFCD70A0F086E095002B2010F02B493
:1015F000020F02B6050F02BC010F02BE030F0A6AFA
:10160000F60F02E30A2AFCD70A0F096E0A5002B845
:10161000010F02BA020F02BC040F02BE080F0B6AD0
:10162000F60F02E30B2AFCD70A0F0A6E0B500E6A64
:101630000EE10A5010E1095012E1085014E1075080
:1016400016E1065018E105501AE104501CD00E2A8C
:10165000300FEE6E0A500E2A300FEE6E09500E2A31
:10166000300FEE6E08500E2A300FEE6E07500E2A25
:10167000300FEE6E06500E2A300FEE6E05500E2A19
:10168000300FEE6E04500E2A300FEE6E0E50E4CF87
:101690000EF0E4CF0DF0E4CF0CF0E4CF0BF0E4CF8C
:1016A0000AF0E4CF09F0E4CF08F0E4CF07F0E4CF8C
:1016B00006F0E4CF05F0E4CF04F0E4CF03F0E4CF8C
:1016C00002F0E4CF01F0E4CF00F01200800EE56EEE
:1016D0000A0EE56E000EE56E0FEC1DF0030EE1261E
:1016E000800EE56E040EE56ED30EE56E0FEC1DF078
:1016F000030EE126800EE56E0A0EE56E020EE56E23
:101700000FEC1DF0030EE126800EE56E040EE56E73
:10171000D50EE56E0FEC1DF0030EE126800EE56E92
:101720000A0EE56E040EE56E0FEC1DF0030EE126C9
:10173000800EE56E040EE56ED70EE56E0FEC1DF023
:10174000030EE126800EE56E0A0EE56E060EE56ECE
:101750000FEC1DF0030EE126800EE56E040EE56E23
:10176000D90EE56E0FEC1DF0030EE126800EE56E3E
:101770000A0EE56E080EE56E0FEC1DF0030EE12675
:10178000800EE56E040EE56EDB0EE56E0FEC1DF0CF
:10179000030EE126800EE56E0A0EE56E0A0EE56E7A
:1017A0000FEC1DF0030EE126800EE56E040EE56ED3
:1017B000DD0EE56E0FEC1DF0030EE126800EE56EEA
:1017C0000A0EE56E0C0EE56E0FEC1DF0030EE12621
:1017D000800EE56E040EE56EDF0EE56E0FEC1DF07B
:1017E000030EE126800EE56E0A0EE56E0E0EE56E26
:1017F0000FEC1DF0030EE126800EE56E040EE56E83
:10180000E10EE56E0FEC1DF0030EE126800EE56E95
:101810000A0EE56E100EE56E0FEC1DF0030EE126CC
:10182000800EE56E040EE56EE30EE56E0FEC1DF026
:10183000030EE126800EE56E0A0EE56E120EE56ED1
:101840000FEC1DF0030EE126800EE56E040EE56E32
:10185000E50EE56E0FEC1DF0030EE126800EE56E41
:101860000A0EE56E140EE56E0FEC1DF0030EE12678
:10187000800EE56E040EE56EE70EE56E0FEC1DF0D2
:10188000030EE126800EE56E0A0EE56E160EE56E7D
:101890000FEC1DF0030EE126800EE56E040EE56EE2
:1018A000E90EE56E0FEC1DF0030EE126800EE56EED
:1018B0000A0EE56E180EE56E0FEC1DF0030EE12624
:1018C000800EE56E040EE56EEB0EE56E0FEC1DF07E
:1018D000030EE126800EE56E0A0EE56E1A0EE56E29
:1018E0000FEC1DF0030EE126800EE56E040EE56E92
:1018F000ED0EE56E0FEC1DF0030EE126800EE56E99
:101900000A0EE56E1C0EE56E0FEC1DF0030EE126CF
:10191000800EE56E040EE56EEF0EE56E0FEC1DF029
:10192000030EE126800EE56E0A0EE56E1E0EE56ED4
:101930000FEC1DF0030EE126800EE56E040EE56E41
:10194000F10EE56E0FEC1DF0030EE126120000C053
:10195000E5FF01C0E5FF02C0E5FF03C0E5FF04C0ED
:10196000E5FF05C0E5FF06C0E5FF07C0E5FF05ECA4
:1019700016F077EC1AF014EC0FF0006E0401051964
:1019800001E172D000C005F40050020A01E06CD001
:10199000B1EC21F0006EF3CF01F0F4CF02F0E9CF0B
:1019A00003F004018151005E8251015A8351025AB1
:1019B0008451035A039E3F0E035C08E1FF0E025C54
:1019C00005E1FF0E015C02E1FF0E005CD8B04CD0D7
:1019D000B1EC21F0006EF3CF01F0F4CF02F0E9CFCB
:1019E00003F003C404F004C405F0E56AE56A055099
:1019F000E56E0450E56EE56AE56A030EE56EE80EF5
:101A0000E56E58EC11F0046EF3CF05F0F4CF06F05C
:101A1000E9CF07F0080EE126E56AE56A030EE56EF8
:101A2000E80EE56E0750E56E0650E56E0550E56E72
:101A30000450E56E92EC16F0046EF3CF05F0F4CF8F
:101A400006F0E9CF07F0080EE12604500024040157
:101A5000816F05500120826F06500220836F07506E
:101A60000320846F4CEC23F0B1EC21F0006EF3CF37
:101A700001F0F4CF02F0E9CF03F00F013451005E22
:101A80003551015A3651025A3751035A039E3F0EBF
:101A9000035C08E1FF0E025C05E1FF0E015C02E160
:101AA000FF0E005C16E2B1EC21F0F3CF01F0F4CFB1
:101AB00002F0E9CF03F0880F0F01346F130E0120FD
:101AC000356F000E0220366F000E0320376FC1EC19
:101AD00007F0B1EC21F0006EF3CF01F0F4CF02F08B
:101AE000E9CF03F004018551005E8651015A875108
:101AF000025A8851035A039E3F0E035C08E1FF0E11
:101B0000025C05E1FF0E015C02E1FF0E005CD8B053
:101B100046D0B1EC21F0F3CF01F0F4CF02F0E9CFE1
:101B200003F0A00F0401856F860E0120866F010E61
:101B30000220876F000E0320886F010EE56EECEC2B
:101B400022F0006EF3CF01F0F4CF02F0E9CF03F002
:101B5000E652000EE56AECEC22F0046EF3CF05F0DD
:101B6000F4CF06F0E9CF07F0E6520350E56E0250DD
:101B7000E56E0150E56E0050E56E0750E56E0650CB
:101B8000E56E0550E56E0450E56E000EE56E1E0E26
:101B9000E56E140EE56EBEEC1EF00B0EE126E4CFF2
:101BA00007F0E4CF06F0E4CF05F0E4CF04F0E4CF93
:101BB00003F0E4CF02F0E4CF01F0E4CF00F0120034
:101BC00000C0E5FF01C0E5FF02C0E5FF03C0E5FF7F
:101BD00004C0E5FF05C0E5FF06C0E5FF07C0E5FF5F
:101BE000B0EC25F0B1EC21F0F3CF01F0F4CF02F02E
:101BF000E9CF03F0880F0F01346F130E0120356F0A
:101C0000000E0220366F000E0320376FABEC18F089
:101C10009486820E006E0F0E016E0F0E036E380E4C
:101C20000026035001220F0E036E800E005E03504B
:101C3000015A820E026E0F0E036E0F0E056E380EE5
:101C40000226055003220F0E056E800E025E05501F
:101C5000035A02C0E9FF03C0EAFFEFCF02F0028699
:101C600000C0E9FF01C0EAFF02C0EFFF0F0EE56E02
:101C7000000EE56A64EC1CF0E652E65292969294ED
:101C800092909292949294949298929A899689942E
:101C9000899089928B928B948998899A9386810EE8
:101CA000006E0F0E016E0F0E036E380E00260350ED
:101CB00001220F0E036E800E005E0350015A810E4A
:101CC000026E0F0E036E0F0E056E380E02260550C3
:101CD00003220F0E056E800E025E0550035A02C0ED
:101CE000E9FF03C0EAFFEFCF02F0028600C0E9FF80
:101CF00001C0EAFF02C0EFFF090EE56E010EE56EBE
:101D000064EC1CF0E652E652939C939E939493905D
:101D10000C0E0F01576FBD6EB96AB982BD9ABD989E
:101D2000BE6A0F01579B57990F01586B000EE56A69
:101D300009EC1CF0E652B1EC21F0006EF3CF01F09B
:101D4000F4CF02F0E9CF03F003C404F004C405F0BB
:101D5000E56AE56A0550E56E0450E56EE56AE56AF8
:101D6000030EE56EE80EE56E58EC11F0046EF3CF4D
:101D700005F0F4CF06F0E9CF07F0080EE126E56A9A
:101D8000E56A030EE56EE80EE56E0750E56E065057
:101D9000E56E0550E56E0450E56E92EC16F0046EAB
:101DA000F3CF05F0F4CF06F0E9CF07F0080EE126F7
:101DB000045000240401816F05500120826F0650F9
:101DC0000220836F07500320846FB1EC21F0F3CF22
:101DD00001F0F4CF02F0E9CF03F0A00F0401856F0A
:101DE000860E0120866F010E0220876F000E0320F1
:101DF000886FE4CF07F0E4CF06F0E4CF05F0E4CF3E
:101E000004F0E4CF03F0E4CF02F0E4CF01F0E4CF3C
:101E100000F0120043205720256C6420256C640AD2
:101E2000000043002563000000C0E5FF01C0E5FF9E
:101E300002C0E5FF03C0E5FF04C0E5FF05C0E5FF04
:101E400006C0E5FF07C0E5FF08C0E5FF09C0E5FFE4
:101E5000C2A203D00401125104D104011351D8B419
:101E6000ADD004011251020DF450016EF3CF00F019
:101E7000E00E0026000E012200C0E9FF01C0EAFFCB
:101E8000EECF02F0EFCF03F003340330056E0230E3
:101E9000046E053405320432053405320432045030
:101EA000025C046E05500358056EC3CF06F0076A46
:101EB0000650042607500522C4CF06F00650096ECE
:101EC000086A085004260950052200C0E9FF01C035
:101ED000EAFF04C0EEFF05C0EFFF04010E51010A46
:101EE00001E06AD004011251020DF450016EF3CFEB
:101EF00000F0E00E0024046E000E0120056E04C008
:101F0000E9FF05C0EAFFEECF02F0EFCF03F0D30EFA
:101F10000026040E012200C0E9FF01C0EAFFEECF57
:101F200004F0EFCF05F09C0E0426D8A00506035060
:101F3000800FF36E0550800FF35C02E10450025CE9
:101F40000EE20250640F046E000E0320056E00C006
:101F5000E9FF01C0EAFF04C0EEFF05C0EFFF040186
:101F60001251020DF450016EF3CF00F0000E002666
:101F70000A0E012200C0E9FF01C0EAFFEECF04F023
:101F8000EFCF05F0640E0426D8B0052A0550800F67
:101F9000F36E0350800FF35C02E10250045C0CE22C
:101FA0009C0E0226D8A0030600C0E9FF01C0EAFF8C
:101FB00002C0EEFF03C0EFFF0401136B0401122BFC
:101FC000100E125D01E3126B04011239E8441F0B7D
:101FD000006E016A710E00260A0E012200C0E9FFA0
:101FE00001C0EAFFEFCF00F0070E1215016E010EDF
:101FF000026E000E036E015006E0E86CD8900236C7
:102000000336010FFCE3046A005002160450031665
:10201000025005E1035003E1026A022A01D0026A7C
:102020000250D880E866D890026A0236025017E063
:10203000240E04011225006E016A0F0E012200C059
:10204000E9FF01C0EAFFEFCF00F00044E844FC0BD9
:10205000016E0128C26EC282010E0401136F0401D9
:102060001251E4CF09F0E4CF08F0E4CF07F0E4CF59
:1020700006F0E4CF05F0E4CF04F0E4CF03F0E4CFC2
:1020800002F0E4CF01F0E4CF00F01200D9CFE5FF79
:10209000E1CFD9FF00C0E5FF01C0E5FF02C0E5FFC9
:1020A00003C0E5FF04C0E5FF05C0E5FF06C0E5FF8E
:1020B00007C0E5FF08C0E5FF09C0E5FF0AC0E5FF6E
:1020C0000BC0E5FF020EDBCF00F0030EDBCF01F00B
:1020D000040EDBCF02F0050EDBCF03F0060EDBCFE4
:1020E00004F0070EDBCF05F0080EDBCF06F0090E7B
:1020F000DBCF07F006C008F0060608500EE00650D9
:102100000424086EE86A06BEE8680520096E08C067
:10211000E9FF09C0EAFFEF6AEDD700500A01646FDA
:102120000150656F0250666F0350676F64CA00F01C
:1021300065CA01F066CA02F067CA03F0066A086A57
:10214000096A800E03140A6E065007E1085005E183
:10215000095003E10A50800A01E012D0039E0050AA
:102160000A01646F0150656F0250666F0350676F1C
:1021700004C0E9FF05C0EAFF2D0EEF6E044A052AF0
:102180000A01663567357E08006E6451016E65513F
:10219000026E7F0E6615036E066A038E086A096A70
:1021A0000A6A0B6A005019E0D88000AED8900EE39E
:1021B0000850082609360A360B3603BE088001503F
:1021C0000126023603360636002AECD7D8900632AE
:1021D0000332023201320006E5D7085009100A1016
:1021E0000B1012E00550E56E0450E56E0B50E56EE5
:1021F0000A50E56E0950E56E0850E56E86EC21F058
:10220000006E060EE12608D004C0E9FF05C0EAFF13
:10221000300EEF6E010E006E00500426E86A00BE1C
:10222000E8680522075028E004C0E9FF05C0EAFF7E
:102230002E0EEF6E002A044A052A07501808E56E94
:102240000550E56E0450E56E0650E56E0350E56EF0
:102250000250E56E0150E56E97EC20F0016E070E1E
:10226000E1260150002607500426E86A052204C032
:10227000E9FF05C0EAFFEF6A0050E4CF0BF0E4CFBE
:102280000AF0E4CF09F0E4CF08F0E4CF07F0E4CFA0
:1022900006F0E4CF05F0E4CF04F0E4CF03F0E4CFA0
:1022A00002F0E4CF01F0E4CF00F0E4CFD9FF120058
:1022B000D9CFE5FFE1CFD9FF00C0E5FF01C0E5FFC1
:1022C00002C0E5FF03C0E5FF04C0E5FF05C0E5FF70
:1022D00006C0E5FF07C0E5FF020EDBCF00F0030EEE
:1022E000DBCF01F0040EDBCF02F0050EDBCF03F0F5
:1022F000060EDBCF04F0070EDBCF05F0080EDBCFB8
:1023000006F0090EDBCF07F000500401326F0150D8
:10231000336F0250346F0350356F04500401F36F74
:102320000550F46F0650F56F0750F66F04013251F7
:102330000401F503F4CF01F0F3CF00F000500401E5
:10234000F96F0150FA6F040132510401F303F4CF25
:1023500001F0F3CF00F000500401F76F0150F86F67
:10236000040135510401F303F3CF00F00401FA51E5
:1023700000260050FA6F040134510401F403F3CF36
:1023800000F00401FA5100260050FA6F04013451A4
:102390000401F303F4CF01F0F3CF00F00401F9518D
:1023A0000026FA5101220050F96F0150FA6F040122
:1023B00033510401F403F4CF01F0F3CF00F0040132
:1023C000F9510026FA5101220050F96F0150FA6FBD
:1023D000040133510401F503F3CF00F00050040170
:1023E000FE6F040133510401F303F4CF01F0F3CF86
:1023F00000F000500401FC6F0150FD6F04013251E8
:102400000401F603F3CF00F000500A01636F0401EA
:1024100032510401F403F4CF01F0F3CF00F0005087
:102420000A01616F0150626F0401FB6B0A01606B6E
:102430000401FB510401F725006E0401FC51040165
:10244000F821016E0401FD510401F921026E04011D
:10245000FE510401FA21036E0050F76F0150F86F2E
:102460000250F96F0350FA6F0A0160510401F72519
:10247000006E0A0161510401F821016E0A016251E6
:102480000401F921026E0A0163510401FA21036E6D
:1024900003C0E9FF02C0F4FF01C0F3FF0050E4CF26
:1024A00007F0E4CF06F0E4CF05F0E4CF04F0E4CF8A
:1024B00003F0E4CF02F0E4CF01F0E4CF00F0E4CF8A
:1024C000D9FF120000C0E5FF01C0E5FF04010B5178
:1024D000D8B4F5D09DA81DD09EA81BD00A017C5170
:1024E0000A01791905E13DEC25F00A01796BE7D085
:1024F000390E0A017C25006E016A040E012200C01B
:10250000E9FF01C0EAFFEFCF75FA7C2B75CAADFF7A
:10251000D6D09EAAD4D0ABA205D00A017A813DECD8
:1025200025F0CDD0ABA405D00A017A833DEC25F08F
:10253000C6D0ABA03ED0AECF75FA800E04010C1110
:102540000A01751904E10A017A89AB96B8D00A012B
:10255000755104E0755104010C1927E10A017A99BB
:10256000AB960A01755103E00A017A9702D00A017D
:102570007A8775CA7EFA77CA7FFA0A0177050A0157
:10258000806F600E0A017F25006E016A000E012235
:1025900000C0E9FF01C0EAFF75CAEFFF7F2B7F5142
:1025A000800A02E10A017F6B8AD00A017A99AB8620
:1025B00086D0AECF75FA0A017AA919D0800E04012F
:1025C0000C110A01751911E18B909D9AAB980A01C3
:1025D000795104E1AD6A3DEC25F007D039C4ADFF77
:1025E000010E0A017C6F9D886AD0AB8668D00A0113
:1025F00075510A017E270A017F510A0180191BE1EA
:102600000A017E510CE17FCA77FA0A017AB712D02B
:102610008B909D9AAB98AD6A3DEC25F00BD00A01EA
:102620007A857AB707D08B909D9AAB98010EAD6EE4
:102630003DEC25F044D00A017F510A01781908E1E8
:102640000A0178510A01771903E03DEC25F037D0F3
:1026500077CA00F0016A004A012AE56A800EE56E39
:102660000150E56E0050E56E9CEC19F0006E040E12
:10267000E12600500A01766F0A017F190CE11F0E56
:102680000A0175150A01806F802B802B0A01775192
:102690000A018027809F7FCA00F00A017F2B016A10
:1026A000600E0026000E012200C0E9FF01C0EAFF13
:1026B00075CAEFFF7F51800A02E10A017F6BE4CF08
:1026C00001F0E4CF00F01200D9CFE5FFE1CFD9FF50
:1026D00000C0E5FF01C0E5FF02C0E5FF03C0E5FF64
:1026E00004C0E5FF05C0E5FF06C0E5FF07C0E5FF44
:1026F00008C0E5FF09C0E5FF0AC0E5FF0BC0E5FF24
:102700000CC0E5FF0DC0E5FF0EC0E5FF0FC0E5FF03
:10271000020EDBCF00F0030EDBCF01F0040EDBCFA7
:1027200002F0050EDBCF03F0060EDBCF04F0070E40
:10273000DBCF05F0080EDBCF06F0200E076E086A2F
:1027400006C009F00A6A0B6A0C6AE56AE56AE56A7E
:102750000950E56E0350E56E0250E56E0150E56EDE
:102760000050E56EE5EC14F00D6E080EE126300E1B
:102770000D263A0E0D5C05E30D500E6E270E0E244D
:102780000D6EFF0E07260822400E07240E6E0A0E5D
:1027900008200F6E0EC0E9FF0FC0EAFF0DC0EFFF6B
:1027A0000C50E56E0B50E56E0A50E56E0950E56E73
:1027B0000350E56E0250E56E0150E56E0050E56E87
:1027C00092EC16F0006EF3CF01F0F4CF02F0E9CFF7
:1027D00003F0080EE1260050011002100310D8A4E7
:1027E000AFD707C000F008C001F004C002F005C078
:1027F00003F000C004F001C005F0004A012A400EB9
:1028000004260A0E052204C0E9FF05C0EAFFEFCF47
:1028100004F002C0E9FF03C0EAFF04C0EFFF024A70
:10282000032A000E015C02E1200E005CE2E302C01C
:10283000E9FF03C0EAFF000EEF6AE4CF0FF0E4CF38
:102840000EF0E4CF0DF0E4CF0CF0E4CF0BF0E4CFCA
:102850000AF0E4CF09F0E4CF08F0E4CF07F0E4CFCA
:1028600006F0E4CF05F0E4CF04F0E4CF03F0E4CFCA
:1028700002F0E4CF01F0E4CF00F0E4CFD9FF120082
:1028800000C0E5FF01C0E5FF02C0E5FF03C0E5FFB2
:1028900004C0E5FF06C0E5FFDBEC21F0006E640A32
:1028A00009E1DBEC21F00401006FDBEC21F0040115
:1028B000016F7ED00050650A0EE1DBEC21F0016A69
:1028C000026EDBEC21F0046A01240401036F045062
:1028D0000220046F6DD00050140A29E1DBEC21F0D6
:1028E000016A026EDBEC21F0046A01260450022228
:1028F0000150020BE840010BE838E844F46EBD508B
:10290000DF0BF410BD6E0150010B010BE838F46EC3
:10291000BD50EF0BF410BD6ED8900230046E013044
:10292000036ED890043203320350BE6E41D0005083
:10293000150A2BE1DBEC21F0036A046EDBEC21F0DD
:10294000066A0324016E06500420026E0150020B39
:10295000E840010BE838E844F46E0F015751DF0BF3
:10296000F410576F0150010B010BE838F46E57510A
:10297000EF0BF410576FD89002320132D890023228
:10298000013201500F01586F13D000500A0A10E1B4
:10299000DBEC21F0006E005002E08A8C01D08A9CB2
:1029A000DBEC21F0006E005002E08A8E01D08A9E9E
:1029B000E4CF06F0E4CF04F0E4CF03F0E4CF02F07C
:1029C000E4CF01F0E4CF00F01200D9CFE5FFE1CF72
:1029D000D9FF00C0E5FF01C0E5FF02C0E5FF03C06D
:1029E000E5FF04C0E5FF05C0E5FF06C0E5FF07C041
:1029F000E5FF08C0E5FF09C0E5FF0AC0E5FF020EDC
:102A0000DBCF00F0030EDBCF01F0040EDBCF02F0D2
:102A1000050EDBCF03F0060EDBCF04F0070EDBCF95
:102A200005F0080EDBCF06F0090EDBCF07F0086AD1
:102A3000096A0750800BE8440A6E0A501BE10450F3
:102A400004260536063607360750035C08E10650B3
:102A5000025C05E10550015C02E10450005C06E205
:102A6000D890073206320532043204D0092A09C050
:102A700008F0DFD70750035C08E10650025C05E16F
:102A80000550015C02E10450005C08E30450005E64
:102A90000550015A0650025A0750035AD89007327F
:102AA00006320532043208C009F008060950E2E196
:102AB00003C0E9FF02C0F4FF01C0F3FF0050E4CF00
:102AC0000AF0E4CF09F0E4CF08F0E4CF07F0E4CF58
:102AD00006F0E4CF05F0E4CF04F0E4CF03F0E4CF58
:102AE00002F0E4CF01F0E4CF00F0E4CFD9FF120010
:102AF00000C0E5FF01C0E5FF03C0E5FF04C0E5FF3E
:102B000005C0E5FF06C0E5FF07C0E5FF08C0E5FF1B
:102B100009C0E5FF0AC0E5FF0BC0E5FF36C400F0C1
:102B200037C401F00401363F01D0372B0050E56E69
:102B30002FEC25F0E652076E046A056A066A36C471
:102B400000F037C401F00401363F01D0372B0050AC
:102B5000E56E2FEC25F0E6520B6A0A6E086A085003
:102B6000041205120A5006120B50071236C400F068
:102B700037C401F00401363F01D0372B0050E56E19
:102B80002FEC25F0E652036E006A03C001F0E86AFC
:102B900003BEFF0E086E096E0050041201500512AC
:102BA000085006120950071236C400F037C401F06D
:102BB0000401363F01D0372B0050E56E2FEC25F095
:102BC000E652016A0412015005120612071207C0EC
:102BD000E9FF06C0F4FF05C0F3FF0450E4CF0BF09B
:102BE000E4CF0AF0E4CF09F0E4CF08F0E4CF07F037
:102BF000E4CF06F0E4CF05F0E4CF04F0E4CF03F037
:102C0000E4CF01F0E4CF00F0120000C0E5FF01C006
:102C1000E5FF02C0E5FF03C0E5FF04C0E5FF0A01D0
:102C200078510A01771901E15FD078CA00F0002AD3
:102C3000009E600E0024016E026A000E022201C096
:102C4000E9FF02C0EAFFEFCF82FA1F0E0A018217E6
:102C500078CA81FA82510A018127812B812B819FB9
:102C6000DBEC21F0016E015003E1016A012A01D081
:102C7000016ADBEC21F00A01826F800E8215026E80
:102C80001F0E8215036E03C004F003C082FA0450C5
:102C900003E177CA78FA3BD001501BE0025022E0F2
:102CA000DBEC21F0006E0A0182070050420A1AE0B4
:102CB00000504E0A03E13CEC1EF014D00050460ACE
:102CC00003E171EC25F00ED00050490A0BE1FF0042
:102CD00009D078CA83FA025003E0C9EC20F002D090
:102CE00040EC14F081CA78FA040108510401091972
:102CF00006E00A01795103E11EEC17F008D08BB011
:102D000006D00A01795103E1ACB23DEC25F0E4CFE5
:102D100004F0E4CF03F0E4CF02F0E4CF01F0E4CF1D
:102D200000F01200D9CFE5FFE1CFD9FF00C0E5FFE9
:102D300001C0E5FF02C0E5FF03C0E5FF04C0E5FFF9
:102D400005C0E5FF06C0E5FF07C0E5FF08C0E5FFD9
:102D500009C0E5FF0AC0E5FF0BC0E5FF0CC0E5FFB9
:102D60000DC0E5FF020EDBCF00F0030EDBCF01F05C
:102D7000040EDBCF02F0050EDBCF03F0060EDBCF37
:102D800004F0070EDBCF05F0080EDBCF06F0090ECE
:102D9000DBCF07F0086A096A0A6A0B6A200E0C6E1C
:102DA0000350800BE8440D6E0050002601360236B9
:102DB00003360850082609360A360B360D50D8A4BB
:102DC000088007500B5C08E106500A5C05E10550DD
:102DD000095C02E10450085C09E30450085E0550F8
:102DE000095A06500A5A07500B5A00800C2ED8D7A1
:102DF00003C0E9FF02C0F4FF01C0F3FF0050E4CFBD
:102E00000DF0E4CF0CF0E4CF0BF0E4CF0AF0E4CF08
:102E100009F0E4CF08F0E4CF07F0E4CF06F0E4CF08
:102E200005F0E4CF04F0E4CF03F0E4CF02F0E4CF08
:102E300001F0E4CF00F0E4CFD9FF120000C0E5FFBD
:102E400001C0E5FF02C0E5FF03C0E5FFACA276D0FC
:102E50002DEC23F0006E005005E10401096B040124
:102E6000086B6CD009C401F0005001262DEC23F052
:102E7000026E00060250230A1FE1010E005CD8A07A
:102E80005BD02DEC23F0026E690A03E12BEC21F0FC
:102E900053D00250720A03E13DEC25F04DD00250B0
:102EA000730A01E049D08B80AB869D8A9D98AE5015
:102EB000AE50AB98AB8840D00250430A05E00250B8
:102EC000420A01E039D001D0008E00C07BFA0050E8
:102ED0000401396F010E0A017C6F040109510118C8
:102EE00014E02DEC23F0026E0A017B27390E0A0153
:102EF0007C25006E036A040E032200C0E9FF03C0B4
:102F0000EAFF02C0EFFF7C2BE8D7390E0A017C25CF
:102F1000006E026A040E02220A017B1D036E032A60
:102F200000C0E9FF02C0EAFF03C0EFFF0A017C2BEB
:102F30007CCA79FA0A01736B01C009F4E4CF03F08B
:102F4000E4CF02F0E4CF01F0E4CF00F01200D9CFDB
:102F5000E5FFE1CFD9FF00C0E5FF01C0E5FF02C0FA
:102F6000E5FF03C0E5FF04C0E5FF05C0E5FF06C0BF
:102F7000E5FF07C0E5FF020EDBCF00F0030EDBCF5D
:102F800001F0040EDBCF02F0050EDBCF03F002C030
:102F900006F00650046E800A33E100C0E9FF01C06C
:102FA000F3FF0250C3EC23F0056EF3CF06F0F4CF2D
:102FB00007F003C0E5FF05C0E9FF06C0F3FF0750B7
:102FC0007CEC25F000C0E9FF01C0F3FF0250C3EC28
:102FD00023F0056EF3CF06F0F4CF07F0052A02E3E5
:102FE000064A072A05C0E5FF06C0F4FF07C0F6FF42
:102FF00000C0E9FF01C0F3FF025020EC25F01DD016
:1030000004AA1BD0047A045004E10350B5EC25F067
:1030100014D00450010A04E1035002EC00F00DD07A
:1030200004500F0A04E10350FAEC20F006D00450DB
:103030000E0A03E10350C5EC25F0E4CF07F0E4CF1E
:1030400006F0E4CF05F0E4CF04F0E4CF03F0E4CFE2
:1030500002F0E4CF01F0E4CF00F0E4CFD9FF12009A
:10306000D9CFE5FFE1CFD9FF00C0E5FF01C0E5FF03
:1030700002C0E5FF03C0E5FF04C0E5FF05C0E5FFB2
:1030800006C0E5FF07C0E5FF020EDBCF00F0030E30
:10309000DBCF01F0040EDBCF02F0050EDBCF03F037
:1030A00009C40AF40401085104010A5F0A0703C0B5
:1030B00004F0056A030E0426D8B0052A0AC406F0F7
:1030C000076A0750800FF36E0550800FF35C02E132
:1030D0000450065C02E2E8682BD0020E035C02E2B8
:1030E000E86A26D003060350E56E7AEC1FF0E6523C
:1030F000046A0350045C14E204500024056EE86A7C
:103100000120066EE86A022005C0E9FF06C0F3FF51
:10311000FEEC24F0042AE56E7AEC1FF0E652E9D7C3
:1031200009C40AF40401085104010A5F0A07E86AA5
:10313000E4CF07F0E4CF06F0E4CF05F0E4CF04F0ED
:10314000E4CF03F0E4CF02F0E4CF01F0E4CF00F0ED
:10315000E4CFD9FF120000C0E5FF01C0E5FF02C0C7
:10316000E5FF03C0E5FF04C0E5FF006A710E00241F
:10317000016E026A0A0E022201C0E9FF02C0EAFFE4
:10318000EF6A002A020E005CF1E3006A016A026A3B
:10319000E00E0124036E000E0220046E03C0E9FF5E
:1031A00004C0EAFFEE6AEF6A930E0124036E040E78
:1031B0000220046E03C0E9FF04C0EAFFEE6AEF6A72
:1031C000B30E0124036E040E0220046E03C0E9FF57
:1031D00004C0EAFFEE6AEF6AD30E0124036E040E08
:1031E0000220046E03C0E9FF04C0EAFFEE6AEF6A42
:1031F000000E0124036E0A0E0220046E03C0E9FFD4
:1032000004C0EAFFEE687F0EEF6E020E0126D8B012
:10321000022A002A100E005CD8A0BAD7AF0EC06EEA
:10322000C16A010EC26EC282E4CF04F0E4CF03F0A3
:10323000E4CF02F0E4CF01F0E4CF00F0120043202D
:10324000412025642025640A0000D9CFE5FFE1CFA5
:10325000D9FF00C0E5FF01C0E5FF02C0E5FF03C0E4
:10326000E5FF04C0E5FF05C0E5FF020EDBCF00F07F
:10327000030EDBCF01F0040EDBCF02F00050020D95
:10328000F450036EF3CF00F0930E0024046E040E8E
:103290000320056E04C0E9FF05C0EAFF01C0EEFF90
:1032A00002C0EFFFB30E0024046E040E0320056E6F
:1032B00004C0E9FF05C0EAFFEECF04F0EFCF05F050
:1032C0000150045C016E02500558026E200E00266B
:1032D0000A0E032200C0E9FF03C0EAFF01C0EEFFAF
:1032E00002C0EFFFD88002AED89004E3021E016C4A
:1032F000D8B4022A0250800F800F02E1030E015C55
:1033000002E2016A026A0150021007E100C0E9FF0F
:1033100003C0EAFF000EEE6AEF6AE4CF05F0E4CFE7
:1033200004F0E4CF03F0E4CF02F0E4CF01F0E4CF07
:1033300000F0E4CFD9FF1200D9CFE5FFE1CFD9FFEC
:1033400000C0E5FF01C0E5FF02C0E5FF03C0E5FFE7
:1033500004C0E5FF05C0E5FF06C0E5FF020EDBCFB8
:1033600000F0030EDBCF01F0040EDBCF02F0050E00
:10337000DBCF03F0D88001AED890046A0436045045
:1033800007E0011C066E001C056E054A062A04D0E3
:1033900000C005F001C006F0D88003AED89007E366
:1033A000031C016E021C006E004A012A04D002C0F8
:1033B00000F003C001F00150E56E0050E56E0650CC
:1033C000E56E0550E56EACEC1BF0006EF3CF01F03E
:1033D000040EE12604500AE0011C036E001C026E7C
:1033E000024A032A03C0F3FF025003D001C0F3FFD7
:1033F0000050E4CF06F0E4CF05F0E4CF04F0E4CFD2
:1034000003F0E4CF02F0E4CF01F0E4CF00F0E4CF2A
:10341000D9FF1200D9CFE5FFE1CFD9FF00C0E5FF0A
:1034200001C0E5FF02C0E5FF03C0E5FF04C0E5FF02
:1034300005C0E5FF020EDBCF00F0030EDBCF01F08D
:10344000040EDBCF02F0050EDBCF03F036C404F030
:1034500037C405F00401363F01D0372B0350E56E29
:103460000450E56E2CEC22F0E652E65236C404F02D
:1034700037C405F00401363F01D0372B0250056EEA
:10348000E56E0450E56E2CEC22F0E652E65236C4AE
:1034900004F037C405F00401363F01D0372B01504A
:1034A000056EE56E0450E56E2CEC22F0E652E65215
:1034B00036C404F037C405F00401363F01D0372B81
:1034C0000050E56E0450E56E2CEC22F0E652E65218
:1034D000E4CF05F0E4CF04F0E4CF03F0E4CF02F052
:1034E000E4CF01F0E4CF00F0E4CFD9FF12000401F3
:1034F0002C5103E02C51190A03E182AA01D062D0B9
:1035000004012C5103E02C511A0A05E104012E6B31
:103510002F6B306B316B04012C2B8B88000000006B
:10352000000000008B9804012E512E272F373037D2
:10353000313782AA07D02E2B05E32F2B03E3303F30
:1035400001D0312B04012C51180A15E1040131512D
:10355000E56E3051E56E2F51E56E2E51E56E5BEC58
:1035600021F00401226FF3CF23F4F4CF24F4E9CF48
:1035700025F4040EE12604012C51320A15E1040160
:103580003151E56E3051E56E2F51E56E2E51E56EED
:103590005BEC21F00401266FF3CF27F4F4CF28F47D
:1035A000E9CF29F4040EE12604012A5106E10401C1
:1035B0002C51330A02E104012C6B350E04012C5D01
:1035C00001E32C6B1200D9CFE5FFE1CFD9FF00C09A
:1035D000E5FF01C0E5FF02C0E5FF03C0E5FF04C051
:1035E000E5FF05C0E5FF06C0E5FF020EDBCF00F0FA
:1035F000030EDBCF01F0040EDBCF02F004017F519C
:1036000019E178EC15F0036EF3CF04F0F4CF05F078
:10361000E9CF06F003C0E5FF04C0F4FF05C0F6FFE4
:1036200006C0F7FF00C0E9FF01C0F3FF02500FEC36
:1036300025F01ED004017F51010A1AE100C0E9FF04
:1036400001C0F3FF02500DEC23F0006EF3CF01F048
:10365000F4CF02F0E9CF03F00350E56E0250E56EBF
:103660000150E56E0050E56E0AEC1AF0040EE126FA
:10367000E4CF06F0E4CF05F0E4CF04F0E4CF03F0AC
:10368000E4CF02F0E4CF01F0E4CF00F0E4CFD9FFC3
:103690001200D9CFE5FFE1CFD9FF00C0E5FF01C09F
:1036A000E5FF02C0E5FF03C0E5FF04C0E5FF05C07C
:1036B000E5FF06C0E5FF020EDBCF00F0030EDBCF17
:1036C00001F0040EDBCF02F0050EDBCF03F0060E97
:1036D000DBCF04F0070EDBCF05F0080EDBCF06F0E2
:1036E000D88003AED89015E306500A0A12E104C050
:1036F000E9FF05C0EAFF2D0EEF6E044A052A031EFE
:10370000021E011E006C05E1012A03E1022AD8B461
:10371000032A0650E56E0550E56E0450E56E035031
:10372000E56E0250E56E0150E56E0050E56E64EC0A
:1037300013F0070EE126E4CF06F0E4CF05F0E4CF66
:1037400004F0E4CF03F0E4CF02F0E4CF01F0E4CFE3
:1037500000F0E4CFD9FF1200D9CFE5FFE1CFD9FFC8
:1037600000C0E5FF01C0E5FF02C0E5FF03C0E5FFC3
:1037700004C0E5FF05C0E5FF06C0E5FF020EDBCF94
:1037800000F0030EDBCF01F0040EDBCF02F0050EDC
:10379000DBCF03F0046A056A0350800BE844066E31
:1037A000065011E10250022603360350015C02E18B
:1037B0000250005C04E2D8900332023204D0052AA1
:1037C00005C004F0E9D70350015C02E10250005C3F
:1037D00004E30250005E0350015AD89003320232D3
:1037E00004C005F004060550EEE101C0F3FF0050EF
:1037F000E4CF06F0E4CF05F0E4CF04F0E4CF03F02B
:10380000E4CF02F0E4CF01F0E4CF00F0E4CFD9FF41
:103810001200D9CFE5FFE1CFD9FF00C0E5FF01C01D
:10382000E5FF02C0E5FF03C0E5FF04C0E5FF020EAF
:10383000DBCF00F0005003E1006A002A01D0006AEB
:103840000050D880E866D89004012A6B2A378B98FC
:103850009498948A820E006E0F0E016E0F0E036E06
:10386000380E0026035001220F0E036E800E005EFC
:103870000350015A820E026E0F0E036E0F0E046E7D
:10388000380E0226045003220F0E046E800E025ED4
:103890000450035A02C0E9FF03C0EAFFEFCF02F071
:1038A000029A00C0E9FF01C0EAFF02C0EFFFE4CFC7
:1038B00004F0E4CF03F0E4CF02F0E4CF01F0E4CF72
:1038C00000F0E4CFD9FF1200D9CFE5FFE1CFD9FF57
:1038D00000C0E5FF01C0E5FF02C0E5FF03C0E5FF52
:1038E00004C0E5FF05C0E5FF06C0E5FF020EDBCF23
:1038F00000F0030EDBCF01F00038E8441F0B026E2E
:10390000036A710E02260A0E032202C0E9FF03C0F9
:10391000EAFFEFCF04F0070E0014056E010E066EED
:10392000055005E0E86CD8900636010FFDE306501F
:10393000041202C0E9FF03C0EAFF04C0EFFF026AFD
:10394000240E00260F0E022200C0E9FF02C0EAFF8B
:1039500001C0EFFFE4CF06F0E4CF05F0E4CF04F0C0
:10396000E4CF03F0E4CF02F0E4CF01F0E4CF00F0C5
:10397000E4CFD9FF120000C0E5FF01C0E5FF02C09F
:10398000E5FF03C0E5FF78CA00F0016A83CA02F0D0
:10399000036A0250005E0350015AE56A800EE56E2C
:1039A0000150E56E0050E56E9CEC19F0006E040EBF
:1039B000E126000683CA01F0430EFAEC20F0200E47
:1039C000FAEC20F00050800F7F0F20E3600E0124FE
:1039D000026E036A000E032202C0E9FF03C0EAFF81
:1039E000EFCF02F0E56A0250E56E000EE56E4A0E7A
:1039F000E56E920EE56EBEEC1EF0050EE126012A84
:103A00000150800A01E1016A0006DCD7E4CF03F02F
:103A1000E4CF02F0E4CF01F0E4CF00F01200D9CF00
:103A2000E5FFE1CFD9FF00C0E5FF01C0E5FF02C01F
:103A3000E5FF03C0E5FF04C0E5FF020EDBCF00F0A9
:103A4000030EDBCF01F0040EDBCF02F004017F5147
:103A500011E163EC20F0036EF3CF04F003C0E5FF47
:103A600004C0F4FF00C0E9FF01C0F3FF025059ECAD
:103A700025F016D004017F51010A12E100C0E9FFD0
:103A800001C0F3FF025099EC24F0006EF3CF01F077
:103A90000150E56E0050E56E3DEC1FF0E652E65237
:103AA000E4CF04F0E4CF03F0E4CF02F0E4CF01F080
:103AB000E4CF00F0E4CFD9FF1200520EF66E4B0EA9
:103AC000F76E000EF86E0900F550056E0900F5500E
:103AD000066E04E1056702D0AAEF1DF00900F5505B
:103AE000006E0900F550016E0900F550026E0900E4
:103AF0000900F550E96E0900F550EA6E0900090069
:103B00000900F550036E0900F550046E0900090024
:103B1000F6CF07F0F7CF08F0F8CF09F000C0F6FFB6
:103B200001C0F7FF02C0F8FF035002E1045007E0B4
:103B30000900F550EE6E0306F8E20406F9D707C057
:103B4000F6FF08C0F7FF09C0F8FF050601E2060608
:103B500069EF1DF01200D9CFE5FFE1CFD9FF00C01A
:103B6000E5FF01C0E5FF02C0E5FF03C0E5FF04C0BB
:103B7000E5FF05C0E5FF020EDBCF00F00050010AB3
:103B800024E1016A026A036AD30E0224046E040E61
:103B90000320056E04C0E9FF05C0EAFFEE687F0E52
:103BA000EF6E000E0224046E0A0E0320056E04C0A0
:103BB000E9FF05C0EAFFEE6AEF6A020E0226D8B0FE
:103BC000032A012A100E015CDFE300C00EF4E4CFEB
:103BD00005F0E4CF04F0E4CF03F0E4CF02F0E4CF4B
:103BE00001F0E4CF00F0E4CFD9FF1200D9CFE5FF18
:103BF000E1CFD9FF00C0E5FF01C0E5FF020EDBCF3A
:103C000000F0030EDBCF01F003C0E5FFF2CF03F0BD
:103C1000F29E00A002D0898601D0899600A202D02F
:103C2000898401D0899400A402D0898001D0899030
:103C300000A602D0898201D0899201A002D08B8295
:103C400001D08B9201A202D08B8401D08B9401A46D
:103C500002D0898801D0899801A602D0898A01D032
:103C6000899A03BEF28EE4CF03F0E4CF01F0E4CFF3
:103C700000F0E4CFD9FF120000C0E5FF01C0E5FF6E
:103C800002C0E5FFDBEC21F0006EDBEC21F0016E01
:103C90000050026ED00E0224006E0A0E005C05E396
:103CA0000050026EF90E0224006E0150026ED00E1A
:103CB0000224016E0A0E015C05E30150026EF90E4A
:103CC0000224016E080E005C12E2100E015CD8B0F6
:103CD0000ED00038F00B0124006EF1EC1FF0016EE5
:103CE000015005E10050E56EF8EC23F0E652E4CF18
:103CF00002F0E4CF01F0E4CF00F01200D9CFE5FFED
:103D0000E1CFD9FF00C0E5FF01C0E5FF02C0E5FF3C
:103D100003C0E5FF04C0E5FF020EDBCF00F0003872
:103D2000E8441F0B016E026A710E01260A0E022280
:103D300001C0E9FF02C0EAFFEFCF03F0070E001653
:103D4000010E046E005005E0E86CD8900436010FB7
:103D5000FDE3041C031601C0E9FF02C0EAFF03C033
:103D6000EFFFE4CF04F0E4CF03F0E4CF02F0E4CFC0
:103D700001F0E4CF00F0E4CFD9FF1200D9CFE5FF86
:103D8000E1CFD9FF00C0E5FF01C0E5FF02C0E5FFBC
:103D9000020ED924006E000EDA20016E800E026E33
:103DA000030E0026000E012202220250E56E015091
:103DB000E56E0050E56E040EDBCFE5FF030EDBCFB2
:103DC000E5FF020EDBCFE5FF0A016A51E56E69519E
:103DD000E56E6851E56E0EEC00F0006EF3CF01F079
:103DE000090EE12601C0F3FF0050E4CF02F0E4CF5A
:103DF00001F0E4CF00F0E4CFD9FF1200D9CFE5FF06
:103E0000E1CFD9FF00C0E5FF01C0E5FF02C0E5FF3B
:103E100003C0E5FF020EDBCF00F0030EDBCF01F0A5
:103E2000040EDBCF02F004017F510DE16DEC24F0B4
:103E3000036E03C0E5FF00C0E9FF01C0F3FF0250BD
:103E40007CEC25F00FD004017F51010A0BE100C08A
:103E5000E9FF01C0F3FF0250FEEC24F0E56EA1EC97
:103E600022F0E652E4CF03F0E4CF02F0E4CF01F019
:103E7000E4CF00F0E4CFD9FF1200D9CFE5FFE1CFC6
:103E8000D9FF00C0E5FF01C0E5FF02C0E5FF03C0A8
:103E9000E5FF020EDBCF00F0030EDBCF01F036C4EE
:103EA00002F037C403F00401363F01D0372B015034
:103EB000E56E0250E56E2CEC22F0E652E65236C476
:103EC00002F037C403F00401363F01D0372B005015
:103ED000E56E0250E56E2CEC22F0E652E652E4CF9D
:103EE00003F0E4CF02F0E4CF01F0E4CF00F0E4CF40
:103EF000D9FF1200D9CFE5FFE1CFD9FF00C0E5FF20
:103F000001C0E5FF02C0E5FF03C0E5FF04C0E5FF17
:103F1000020EDBCF00F008C401F0026A014A022A57
:103F200009C403F0046A0150031803E102500418A5
:103F300001E001D00ED0000E04010825016E026AD6
:103F4000070E022201C0E9FF02C0EAFF00C0EFFF36
:103F5000082BE4CF04F0E4CF03F0E4CF02F0E4CF89
:103F600001F0E4CF00F0E4CFD9FF1200D9CFE5FF94
:103F7000E1CFD9FF00C0E5FF01C0E5FF02C0E5FFCA
:103F800003C0E5FF020EDBCF00F0016A83CA02F036
:103F9000036A0250002603500122E56A800EE56E96
:103FA0000150E56E0050E56E9CEC19F0006EF3CF09
:103FB00001F0040EE126600E0026000E012200C072
:103FC000E9FF01C0EAFFEFCF00F00050E4CF03F0BB
:103FD000E4CF02F0E4CF01F0E4CF00F0E4CFD9FF6A
:103FE000120000C0E5FF01C0E5FF02C0E5FF010EC1
:103FF000006EDBEC21F0016E01C002F0015023E005
:104000000050E56E2FEC25F0016EE652015010E1F4
:104010000A0E005C0BE20A0E006EE56E2FEC25F036
:10402000016EE652015004E1E8680ED0E8680CD059
:104030000150021802E0E86807D0002A1B0E005C5D
:10404000D8E3E86801D0E86AE4CF02F0E4CF01F0F9
:10405000E4CF00F01200F3CFE5FFF4CFE5FFE9CFA6
:10406000E5FFEACFE5FFFACFE5FFFBCFE5FF04016F
:10407000065104018C6F0401075104018D6FD65065
:104080008A6FD7508B6FF2A411D00401063F01D084
:10409000072BF2940401065104018C6F04010751AF
:1040A00004018D6FD6508A6FD7508B6FE4CFFBFF22
:1040B000E4CFFAFFE4CFEAFFE4CFE9FFE4CFF4FF77
:1040C000E4CFF3FF110000C0E5FF01C0E5FF02C02F
:1040D000E5FF03C0E5FF36C400F037C401F004017A
:1040E000363F01D0372B0050E56E2FEC25F0E6521D
:1040F000036E026A36C400F037C401F00401363F93
:1041000001D0372B0050E56E2FEC25F0E652016A06
:1041100002120150031203C0F3FF0250E4CF03F078
:10412000E4CF02F0E4CF01F0E4CF00F01200D9CFE9
:10413000E5FFE1CFD9FF00C0E5FF01C0E5FF02C008
:10414000E5FF03C0E5FF04C0E5FF020EDBCF00F092
:10415000030EDBCF01F0040EDBCF02F0050EDBCF48
:1041600003F0060EDBCFE9FF070EDBCFEAFF080EF8
:10417000DBCF04F040EC04F0E4CF04F0E4CF03F034
:10418000E4CF02F0E4CF01F0E4CF00F0E4CFD9FFB8
:10419000120000C0E5FF01C0E5FFDBEC21F0450A9D
:1041A00024E1000EE56E1E0EE56E220EE56EBEECFD
:1041B0001EF0030EE126BFEC25F0006E00C001F0FA
:1041C000000601500FE0DBEC21F0E56AE56E000E21
:1041D000E56E1E0EE56E240EE56EBEEC1EF0050EBD
:1041E000E126ECD70A0EFAEC20F0E4CF01F0E4CFA0
:1041F00000F0120000C0E5FF01C0E5FF02C0E5FFCE
:10420000006E5C0E04010D25016E026A040E02228E
:1042100001C0E9FF02C0EAFF00C0EFFF220E0D5D02
:1042200001E20D2B00500A0A0FE104010D51E56E69
:10423000800EE56E040EE56E5C0EE56E30EC18F057
:10424000040EE12604010D6BE4CF02F0E4CF01F08F
:10425000E4CF00F012000401086B0401096B0401B3
:104260000A698B809490B06A3F0EAF6EB886AC8AB4
:10427000AC84AC8CAC90AB8CAB8E0A017A6B0A012F
:10428000746B0A01776B0A01786B0A01796B000E77
:10429000E56A2FEC25F004010C6FE6529F989F9A77
:1042A000010E04010B6F0A01686B696B2F0E6A6FB8
:1042B0003DEC25F01200D9CFE5FFE1CFD9FF00C0DA
:1042C000E5FF01C0E5FF02C0E5FF03C0E5FF020E08
:1042D000DBCF00F0030EDBCF01F0040EDBCF02F0EA
:1042E000050EDBCF03F0027E03C0E9FF02C0F4FF3E
:1042F00001C0F3FF0050E4CF03F0E4CF02F0E4CFBD
:1043000001F0E4CF00F0E4CFD9FF1200D9CFE5FFF0
:10431000E1CFD9FF00C0E5FF01C0E5FF02C0E5FF26
:1043200003C0E5FF020EDBCF00F0030EDBCF01F090
:10433000040EDBCF02F0050EDBCF03F0060EDBCF61
:10434000E9FF070EDBCFEAFF10EC0AF0E4CF03F041
:10435000E4CF02F0E4CF01F0E4CF00F0E4CFD9FFE6
:104360001200040106510401906F04010751040179
:10437000916FD6508E6FD7508F6F905104010619F0
:1043800005E104019151040107190CE004010651F3
:104390000401906F040107510401916FD6508E6F94
:1043A000D7508F6F91C4E9FF90C4F4FF8FC4F3FF1F
:1043B00004018E51120000C0E5FF01C0E5FF0A01B3
:1043C00078510A01811905E00A0178510A0177192B
:1043D00002E1E86A15D078CA00F00A01782B016A78
:1043E000600E0026000E012200C0E9FF01C0EAFFB6
:1043F000EFCF00F07851800A02E10A01786B00509B
:10440000E4CF01F0E4CF00F0120000C0E5FFB9EC0A
:1044100025F00401896B806B8983006A89B3002AC7
:104420000050010BE844F46E8051FD0BF410806FD6
:10443000D58ED59CD59AD588D596D594D582D5805C
:10444000F28AF184D08EF28EF28CBA80FF0EBB68B5
:10445000BA84E4CF00F01200D9CFE5FFE1CFD9FF55
:1044600000C0E5FF020EDBCF00F0030EDBCFA8FF9C
:1044700000C0A9FFA69EA69CA684F29EF29C550EA3
:10448000A76EAA0EA76EA682A6A202D00000FCD735
:10449000E86AA6B6E82AA694F28EF28CE4CF00F081
:1044A000E4CFD9FF1200D9CFE5FFE1CFD9FF00C09B
:1044B000E5FF01C0E5FF020EDBCF00F00050020D6A
:1044C000F450016EF3CF00F0200E00260A0E0122F8
:1044D00000C0E9FF01C0EAFFEECF00F0EFCF01F02E
:1044E00001C0F3FF0050E4CF01F0E4CF00F0E4CFCF
:1044F000D9FF1200D9CFE5FFE1CFD9FF00C0E5FF1A
:1045000001C0E5FF020EDBCF00F00050020DF450B9
:10451000016EF3CF00F0E00E0026000E012200C075
:10452000E9FF01C0EAFFEECF00F0EFCF01F001C0DC
:10453000F3FF0050E4CF01F0E4CF00F0E4CFD9FF67
:104540001200D9CFE5FFE1CFD9FF00C0E5FF01C0E0
:10455000E5FF02C0E5FF020EDBCF00F036C401F03C
:1045600037C402F00401363F01D0372B0050E56E0E
:104570000150E56E2CEC22F0E652E652E4CF02F058
:10458000E4CF01F0E4CF00F0E4CFD9FF1200D8CFA0
:10459000E5FFE0CFE5FFE56EF3CFE5FFF4CFE5FF04
:1045A000E9CFE5FFEACFE5FFFACFE5FFFBCFE5FF77
:1045B00062EC12F0E4CFFBFFE4CFFAFFE4CFEAFFB6
:1045C000E4CFE9FFE4CFF4FFE4CFF3FFE450E4CF1E
:1045D000E0FFE4CFD8FF1000D9CFE5FFE1CFD9FF4E
:1045E00000C0E5FF020EDBCF00F0005009E125C45A
:1045F000E9FF24C4F4FF23C4F3FF0401225108D0CF
:1046000029C4E9FF28C4F4FF27C4F3FF040126519D
:10461000E4CF00F0E4CFD9FF1200E8AE0AD0F3CF28
:10462000EAFFEE50EECFF3FFEECFF4FFEECFE9FF5F
:104630001200E8BCD2EF25F0E9CFF6FFF3CFF7FF89
:10464000F86E0900F5500900F5CFF3FF0900F5CF2A
:10465000F4FF0900F5CFE9FF120000C0E5FF01C03B
:10466000E5FF040108510401091902E1E86A0FD0CD
:10467000000E04010925006E016A070E012200C028
:10468000E9FF01C0EAFFEFCF00F0092B0050E4CFB3
:1046900001F0E4CF00F01200040102510EE1040128
:1046A0000151E56E04010051E56EF6EC1DF0E65295
:1046B000E652010E0401026F0CD004010051E56EB8
:1046C00004010151E56EF6EC1DF0E652E6520401DC
:1046D000026B120000C0E5FF01C0E5FF02C0E5FF6C
:1046E000006A080E016E01C002F00106025008E0E7
:1046F000D89000368B888B9882AAF5D7002AF3D7FA
:104700000050E4CF02F0E4CF01F0E4CF00F012005B
:10471000F2CFEAFFF29EA69EA69CA684E9CFA9FF4F
:10472000F3CFAAFFE4CFA8FF91EC25F0F4CFA8FFC8
:1047300091EC25F0F6CFA8FF91EC25F0F7CFA8FF7C
:1047400091EC25F0A694EABEF28E1200F2CFF6FFAD
:10475000F29EA69EA69CE9CFA9FFF3CFAAFFA68052
:10476000A850A94AAA2AA680A8CFF3FFA94AAA2A34
:10477000A680A8CFF4FFA94AAA2AA680A8CFEAFF5C
:10478000F6BEF28E1200E8AE08D0F3CFEAFFEE508C
:10479000EECFF3FFEECFF4FF1200E8BCD4EF25F02C
:1047A000E9CFF6FFF3CFF7FFF86E0900F5500900E7
:1047B000F5CFF3FF0900F5CFF4FF1200F2CFEAFFC7
:1047C000F29EA69EA69CA684E9CFA9FFF3CFAAFFDE
:1047D000E4CFA8FF91EC25F0F4CFA8FF91EC25F0F1
:1047E000F6CFA8FF91EC25F0A694EABEF28E120057
:1047F000D9CFE5FFE1CFD9FF00C0E5FF020EDBCF47
:1048000000F000C00CF40050E56E000EE56A2CECE0
:1048100022F0E652E652E4CF00F0E4CFD9FF1200D6
:10482000F2CFF6FFF29EA69EA69CE9CFA9FFF3CF9A
:10483000AAFFA680A850A94AAA2AA680A8CFF3FF5B
:10484000A94AAA2AA680A8CFF4FFF6BEF28E1200CB
:10485000000000C8320000000000FF00000000005F
:104860000002000000420000000000000000000004
:10487000000000000000000000000000000000C078
:10488000E5FF01C0E5FF600E0A017825006E016AB0
:10489000000E012200C0E9FF01C0EAFFEFCF00F0E7
:1048A0000050E4CF01F0E4CF00F01200D9CFE5FFD3
:1048B000E1CFD9FF00C0E5FF020EDBCF00F0610EB3
:1048C000005C05E37B0E005C02E2010E01D0E86AA9
:1048D000E4CF00F0E4CFD9FF120000C0E5FF01C033
:1048E000E5FF36C400F037C401F00401363F01D0C3
:1048F000372B0050E56E2FEC25F0E652E4CF01F0A7
:10490000E4CF00F01200D9CFE5FFE1CFD9FF00C01E
:10491000E5FF020EDBCF00F000C00BF4005004E115
:104920003DEC25F09D9A9D98E4CF00F0E4CFD9FFAF
:104930001200E8AE06D0F3CFEAFFEE50EECFF3FF61
:104940001200E8BCD0EF25F0E9CFF6FFF3CFF7FF78
:10495000F86E0900F5500900F5CFF3FF1200F2CF11
:10496000EAFFF29EA69EA69CA684E9CFA9FFF3CFFC
:10497000AAFFE4CFA8FF91EC25F0F4CFA8FF91ECBB
:1049800025F0A694EABEF28E120018EEFFF028EE93
:10499000FFF0F86AA68EA69CE9680E0EEA6E006823
:1049A000000EED6A0050FDE15DEC1DF006EC00F03C
:1049B000FFD7F2CFF6FFF29EA69EA69CE9CFA9FFF5
:1049C000F3CFAAFFA680A850A94AAA2AA680A8CFFA
:1049D000F3FFF6BEF28E1200F2CFEAFFF29EA69E21
:1049E000A69CA684E9CFA9FFF3CFAAFFE4CFA8FF36
:1049F00091EC25F0A694EABEF28E1200E8AE04D047
:104A0000F3CFEAFFEE501200E8BCCEEF25F0E9CF7D
:104A1000F6FFF3CFF7FFF86E0900F5501200E8AE8D
:104A20000BD0F3CFEAFFE4CFEEFFF4CFEEFFF6CFEB
:104A3000EEFFF7CFEEFF1200E8BCCCEF25F012003E
:104A4000E8AE09D0F3CFEAFFE4CFEEFFF4CFEEFFFC
:104A5000F6CFEEFF1200E8BCD6EF25F01200D9CF5A
:104A6000E5FFE1CFD9FF020EDBCFA9FFA69CA69EF2
:104A7000A680A850E4CFD9FF1200ACA2FED78B804D
:104A8000AE500000AE50AB98AB88AB869D8A9D9827
:104A9000120025642000F2CFF6FFF29EA69EA69C8F
:104AA000E9CFA9FFF3CFAAFFA680A850F6BEF28EE9
:104AB0001200E8AE07D0F3CFEAFFE4CFEEFFF4CF69
:104AC000EEFF1200E8BCCAEF25F01200700ED36EA4
:104AD0009B8CFF0E9268936894689668626AF19E58
:104AE000120000C0E5FFF1EC1FF0006E005001E184
:104AF000FF00E4CF00F01200E8AE05D0F3CFEAFFEC
:104B0000E4CFEEFF1200E8BCC8EF25F01200D9CFC9
:104B1000E5FFE1CFD9FF020EDBCF11F4E4CFD9FFDF
:104B20001200550EA76EAA0EA76EA682A6B2FED7D9
:104B3000A94AAA2A010E04017F6F1C0E0401366FD8
:104B4000376B120004017F6B1C0E0401366F376B4C
:104B50001200010050480000000400002E00000078
:104B600005EC22F02BEC21F01200ACA2FED7AD6ECA
:104B7000120066EC25F012000A01785112000A01B9
:104B80008251120004010B511200E8CF7FFF120086
:104B9000ECEF24F0AFEF24F088EF23F04BEF25F09B
:104BA000D9EF24F0A6EF23F010EF24F0DEEF23F08E
:00000001FF
