:020000040000FA
:10000000F5EF22F0C96E1200DCEF1EF0D9EC0DF016
:10001000E7EC12F0FDD712004DEF21F0D9CFE5FF4C
:10002000E1CFD9FF00C0E5FF01C0E5FF02C0E5FF59
:1000300003C0E5FF04C0E5FF05C0E5FF06C0E5FF1E
:1000400007C0E5FF08C0E5FF09C0E5FF0AC0E5FFFE
:100050000BC0E5FF0CC0E5FF0DC0E5FF0EC0E5FFDE
:100060000FC0E5FF10C0E5FF11C0E5FF12C0E5FFBE
:1000700013C0E5FF14C0E5FF15C0E5FF16C0E5FF9E
:1000800017C0E5FF18C0E5FF19C0E5FF1AC0E5FF7E
:100090001BC0E5FF1CC0E5FF1DC0E5FF1EC0E5FF5E
:1000A000020EDBCF00F0030EDBCF01F0040EDBCF3E
:1000B00002F0050EDBCF03F0060EDBCF04F0070ED7
:1000C000DBCF05F0080EDBCF06F0090EDBCF07F023
:1000D0000A0EDBCF08F0096A0A6A02C00DF00D5063
:1000E000800A0DE102500F01336F0150326F005052
:1000F000316F0F0E016E310E006E800E026E03C066
:10010000E9FF04C0F3FF055040EC23F00B6E0B50E9
:10011000D8B4FCEF03F00B50250A02E0E3EF03F044
:100120000C6A0D6A0E6A0F6A106A0A0E116E126A64
:10013000136A146A200E156E1668176A2B0E186E55
:10014000032A02E3044A052A03C0E9FF04C0F3FFBF
:10015000055040EC23F0196E250A13E11950E56EA5
:100160000250E56E0150E56E0050E56E1FEC17F091
:10017000040EE126094A0A2A032A02E3044A052A50
:10018000BED71950300A06E1300E156E032A02E37D
:10019000044A052A03C0E9FF04C0F3FF055040EC00
:1001A00023F02D0A06E1010E146E032A02E3044A2D
:1001B000052A03C0E9FF04C0F3FF055040EC23F01B
:1001C000200A08E1010E176E200E186E032A02E3C2
:1001D000044A052A03C0E9FF04C0F3FF055040ECC0
:1001E00023F02B0A06E1010E176E032A02E3044AEC
:1001F000052A03C0E9FF04C0F3FF055040EC23F0DB
:10020000196E800F4F0F2DE31950800F460F29E212
:1002100003C019F004C01AF005C01BF019C0E9FFB3
:100220001AC0F3FF1B5040EC23F01C6E800F500FE0
:1002300012E31C50800F460F0EE213500A0DF3CF4D
:100240001DF01D501C26D00E1C24136E192A02E32B
:100250001A4A1B2AE3D719C003F01AC004F01BC0C6
:1002600005F003C0E9FF04C0F3FF055040EC23F0A4
:100270002E0A2EE1032A02E3044A052A166A03C065
:1002800019F004C01AF005C01BF019C0E9FF1AC02C
:10029000F3FF1B5040EC23F01C6E800F500F12E355
:1002A0001C50800F460F0EE216500A0DF3CF1DF0C2
:1002B0001D501C26D00E1C24166E192A02E31A4A61
:1002C0001B2AE3D719C003F01AC004F01BC005F0C5
:1002D00003C0E9FF04C0F3FF055040EC23F0196EA2
:1002E0006C0A07E1010E0C6E032A02E3044A052A98
:1002F00009D01950680A06E1010E0E6E032A02E3C6
:10030000044A052A03C0E9FF04C0F3FF055040EC8E
:1003100023F0750A06E1010E106E032A02E3044A77
:10032000052A03C0E9FF04C0F3FF055040EC23F0A9
:10033000196E730A05E1010E0D6E200E156E3FD089
:100340001950780A03E1100E116E39D01950580A6D
:1003500005E1100E116E010E126E31D01950630AB4
:1003600002E1116A2CD019506F0A03E1080E116ED8
:1003700026D01950660A03E1010E0F6E20D01950E5
:10038000640A1DE01950690A1AE0105005E0FF0EDA
:1003900003260422052213D01950E56E0250E56EA3
:1003A0000150E56E0050E56E1FEC17F0040EE126DB
:1003B000094A0A2A032A02E3044A052AA0D60D5054
:1003C00021E00650030F0D6E000E0720196E000E7F
:1003D00008201A6E0DC006F019C007F01AC008F008
:1003E000FD0E0D26FF0E19221A220DC0E9FF19C0BD
:1003F000F3FF1A500AEC22F00D6EF3CF19F0F4CF90
:100400001AF032D10F50D8B43ED00650040F0F6E00
:10041000000E07201B6E000E08201C6E0FC006F099
:100420001BC007F01CC008F0FC0E0F26FF0E1B229D
:100430001C220FC0E9FF1BC0F3FF1C5072EC21F01F
:100440000F6EF3CF1BF0F4CF1CF0E9CF1DF0040EBC
:10045000196E000E0D6E800E1A6E1650E56E240E8B
:10046000E56E040EE56E000EE56E1D50E56E1C5047
:10047000E56E1B50E56E0F50E56EEDEC0EF0080ECC
:10048000E1261668F1D016680C5023E00650040FE0
:100490000C6E000E07200F6E000E08201B6E0CC0A5
:1004A00006F00FC007F01BC008F0FC0E0C26FF0E74
:1004B0000F221B220CC0E9FF0FC0F3FF1B5072EC90
:1004C00021F00C6EF3CF0FF0F4CF1BF0E9CF1CF04E
:1004D0006AD00E5032E00650020F0E6E000E07205A
:1004E0001D6E000E08201E6E0EC006F01DC007F027
:1004F0001EC008F0FE0E0E26FF0E1D221E220EC08C
:10050000E9FF1DC0F3FF1E50C9EC22F00E6E0EC0B5
:100510000CF0E86A0EBEFF0E0F6E1B6E1C6E1150C3
:100520000A0A03E11050D8B43ED00C500E6E0EC033
:100530000CF00F6A1B6A1C6A36D00650020F0E6E52
:10054000000E07201D6E000E08201E6E0EC006F065
:100550001DC007F01EC008F0FE0E0E26FF0E1D2265
:100560001E220EC0E9FF1DC0F3FF1E50C9EC22F091
:100570000E6EF3CF1DF00EC00CF01DC00FF0E86A38
:100580001DBEFF0E1B6E1C6E11500A0A02E11050B8
:100590000AE00C500E6E0F501D6E0EC00CF01DC008
:1005A0000FF01B6A1C6A040E196E010E0D6E800E90
:1005B0001A6E1150D8B440D0105013E01150E56EAF
:1005C000040EE56E010EE56E1C50E56E1B50E56EE7
:1005D0000F50E56E0C50E56E0BEC12F0070EE126A5
:1005E00012D01150E56E040EE56E010EE56E1C5042
:1005F000E56E1B50E56E0F50E56E0C50E56E55EC48
:100600001AF0070EE12617502FE00DC0E9FF19C0C0
:10061000F3FF1A5040EC23F02D0A26E0FF0E0D26C2
:1006200019221A2218C0E5FF0DC0E9FF19C0F3FF17
:100630001A50BEEC23F018D00CC0E5FF0DC0E9FF46
:1006400019C0F3FF1A50BEEC23F00D50010F0C6ED1
:10065000000E19200E6E000E1A20E56A0CC0E9FF8C
:100660000EC0F3FFBEEC23F00DC00CF019C00EF06D
:100670001AC00FF013C010F0105010E00CC0E9FFCA
:100680000EC0F3FF0F5040EC23F0176E175006E03A
:100690000C2A02E30E4A0F2A1006EED710C013F000
:1006A00014501EE109C00CF00AC00EF010C00FF08B
:1006B0000F5010E01550E56E0250E56E0150E56EEA
:1006C0000050E56E1FEC17F0040EE1260C4A0E2ACE
:1006D0000F06EED70CC009F00EC00AF00FC013F0E1
:1006E00016C00CF00DC00DF019C00EF01AC00FF0BE
:1006F00009C010F00AC015F00DC0E9FF0EC0F3FFED
:100700000F5040EC23F0166E1650D8B43ED00CC0FB
:1007100016F0176A161E171E1650171005E00CC0AB
:1007200016F00C06165031E00DC0E9FF0EC0F3FFC5
:100730000F5040EC23F0116E125010E01150E56E96
:1007400086EC22F0166EE652165004E01150166E3A
:10075000169A02D011C016F016C011F01150E56EB5
:100760000250E56E0150E56E0050E56E1FEC17F08B
:10077000040EE1260D2A02E30E4A0F2A104A152A1A
:100780001350D8B4B9D71306B7D710C009F015C0A5
:100790000AF014502BE010C00CF015C00DF013C07F
:1007A0000EF00E501FE0200EE56E0250E56E015077
:1007B000E56E0050E56E1FEC17F0040EE1260C4AC2
:1007C0000D2A0E06EED70B50E56E0250E56E015075
:1007D000E56E0050E56E1FEC17F0040EE126094AA5
:1007E0000A2A04D00CC009F00DC00AF0032A02E363
:1007F000044A052A7FEF00F00AC0F3FF0950E4CF56
:100800001EF0E4CF1DF0E4CF1CF0E4CF1BF0E4CFEA
:100810001AF0E4CF19F0E4CF18F0E4CF17F0E4CFEA
:1008200016F0E4CF15F0E4CF14F0E4CF13F0E4CFEA
:1008300012F0E4CF11F0E4CF10F0E4CF0FF0E4CFEA
:100840000EF0E4CF0DF0E4CF0CF0E4CF0BF0E4CFEA
:100850000AF0E4CF09F0E4CF08F0E4CF07F0E4CFEA
:1008600006F0E4CF05F0E4CF04F0E4CF03F0E4CFEA
:1008700002F0E4CF01F0E4CF00F0E4CFD9FF1200A2
:1008800005C0E5FF06C0E5FF07C0E5FF08C0E5FFBE
:1008900009C0E5FF0AC0E5FF0BC0E5FF0CC0E5FF9E
:1008A0000DC0E5FF0EC0E5FF0FC0E5FF10C0E5FF7E
:1008B00011C0E5FF12C0E5FF13C0E5FF14C0E5FF5E
:1008C00015C0E5FF16C0E5FF17C0E5FF18C0E5FF3E
:1008D00019C0E5FF1AC0E5FF1BC0E5FF1CC0E5FF1E
:1008E0001DC0E5FF000E00B0050F066AF60F02E31B
:1008F000062AFCD70A0F056E042E03D0FB0F01E376
:10090000062A065000B0020F00B2050F076AF60F64
:1009100002E3072AFCD70A0F066E042E03D0FB0F52
:1009200001E3072A075000B0060F00B2020F00B41F
:10093000050F086AF60F02E3082AFCD70A0F076EB4
:10094000042E03D0FB0F01E3082A085000B2010F68
:1009500000B4020F00B6050F096AF60F02E3092A78
:10096000FCD70A0F086E042E03D0FB0F01E3092AFF
:10097000095000B0090F00B2080F00B4060F00B60E
:10098000020F00B8050F0A6AF60F02E30A2AFCD725
:100990000A0F096E042E03D0FB0F01E30A2A0A5046
:1009A00000B0030F00B2070F00B4050F00B6010F2F
:1009B00000B8020F00BA050F0B6AF60F02E30B2A0C
:1009C000FCD70A0F0A6E042E03D0FB0F01E30B2A9B
:1009D0000B5000B0050F00B4010F00B6030F00B8B4
:1009E000060F00BA020F00BC050F0C6AF60F02E3F7
:1009F0000C2AFCD70A0F0B6E042E03D0FB0F01E369
:100A00000C2A0C5000B0070F00B2050F00BA010FFE
:100A100000BC020F00BE050F0D6AF60F02E30D2A9F
:100A2000FCD70A0F0C6E042E03D0FB0F01E30D2A36
:100A30000D5000B0070F00B2050F00B4010F00B653
:100A4000020F00B8040F00BA080F00BC060F00BE6A
:100A5000020F01B0050F0E6AF60F02E30E2AFCD753
:100A60000A0F0D6E042E03D0FB0F01E30E2A0E5069
:100A700000B0040F00B2090F00B4090F00B6080F50
:100A800000B8060F00BA020F00BC050F00BE010F30
:100A900001B0020F01B2050F0F6AF60F02E30F2A31
:100AA000FCD70A0F0E6E042E03D0FB0F01E30F2AB2
:100AB0000F5000B0040F00B2080F00B4070F00B6CB
:100AC000050F00B8010F00BA030F00BC060F00BEEF
:100AD000030F01B0060F01B2020F01B4050F106A37
:100AE000F60F02E3102AFCD70A0F0F6E042E03D074
:100AF000FB0F01E3102A105000B0060F00B2020FE6
:100B000000B4050F00B6010F00B8030F00BA060FBE
:100B100000BC020F00BE050F01B2010F01B4020FAD
:100B200001B6050F116AF60F02E3112AFCD70A0F6E
:100B3000106E042E03D0FB0F01E3112A115000B0F8
:100B4000040F00B2090F00B4080F00B6070F00B879
:100B5000040F00BA080F00BC070F00BE040F01B05D
:100B6000090F01B2080F01B4060F01B6020F01B858
:100B7000050F126AF60F02E3122AFCD70A0F116E54
:100B8000042E03D0FB0F01E3122A125000B4010F10
:100B900000B6030F00B8070F00BA040F00BC090F1E
:100BA00000BE090F01B0080F01B2070F01B4050F15
:100BB00001B6010F01B8020F01BA050F136AF60F53
:100BC00002E3132AFCD70A0F126E042E03D0FB0F88
:100BD00001E3132A135000B0060F00B2020F00B455
:100BE000040F00B6080F00B8060F00BA030F00BCD0
:100BF000060F00BE030F01B0070F01B2050F01B4CD
:100C0000010F01B6030F01B8060F01BA020F01BCB4
:100C1000050F146AF60F02E3142AFCD70A0F136EAD
:100C2000042E03D0FB0F01E3142A145000B0090F67
:100C300000B2090F00B4080F00B6060F00B8030F8A
:100C400000BA070F00BC040F00BE090F01B0080F67
:100C500001B2070F01B4050F01BA010F01BC020F69
:100C600001BE050F156AF60F02E3152AFCD70A0F1D
:100C7000146E042E03D0FB0F01E3152A155000B0AB
:100C8000050F00B2010F00B4030F00B6070F00B844
:100C9000050F00BC010F00BE020F01B0050F01B22D
:100CA000010F01B4030F01B6070F01B8040F01BA19
:100CB000080F01BC060F01BE020F02B0050F166A35
:100CC000F60F02E3162AFCD70A0F156E042E03D086
:100CD000FB0F01E3162A165000B2010F00B4020FF9
:100CE00000B6040F00B8090F00BA090F00BC080FC6
:100CF00000BE060F01B0020F01B2050F01B8010FCF
:100D000001BA020F01BC050F01BE010F02B0020FB4
:100D100002B2050F176AF60F02E3172AFCD70A0F73
:100D2000166E042E03D0FB0F01E3172A175000BAEA
:100D3000010F00BC030F00BE070F01B0050F01B487
:100D4000010F01B6020F01B8040F01BA080F01BC70
:100D5000060F01BE030F02B0060F02B2020F02B46B
:100D6000050F186AF60F02E3182AFCD70A0F176E50
:100D7000042E03D0FB0F01E3182A185001B0010F15
:100D800001B2030F01B4060F01B6020F01B8040F40
:100D900001BA080F01BC070F01BE050F02B2010F17
:100DA00002B4020F02B6050F196AF60F02E3192A00
:100DB000FCD70A0F186E042E03D0FB0F01E3192A8B
:100DC000195001B6010F01B8020F01BA040F01BC9E
:100DD000090F01BE090F02B0090F02B2080F02B4D9
:100DE000060F02B6020F02B8050F1A6AF60F02E3E9
:100DF0001A2AFCD70A0F196E042E03D0FB0F01E349
:100E00001A2A1A5001BE010F02B0030F02B2070FD7
:100E100002B4050F02B6010F02B8020F02BA050FA5
:100E20001B6AF60F02E31B2AFCD70A0F1A6E042E68
:100E300003D0FB0F01E31B2A1B5002B4010F02B6C3
:100E4000030F02B8060F02BA020F02BC050F1C6A9C
:100E5000F60F02E31C2AFCD70A0F1B6E042E03D0E8
:100E6000FB0F01E31C2A1C5002BA010F02BC020F47
:100E700002BE050F1D6AF60F02E31D2AFCD70A0FFA
:100E80001C6E042E03D0FB0F01E31D2A300FEE6E03
:100E90001B50300FEE6E1A50300FEE6E1950300F9F
:100EA000EE6E1850300FEE6E1750300FEE6E16507B
:100EB000300FEE6E1550300FEE6E1450300FEE6E98
:100EC0001350300FEE6E1250300FEE6E1150300F87
:100ED000EE6E1050300FEE6E0F50300FEE6E0E5063
:100EE000300FEE6E0D50300FEE6E0C50300FEE6E78
:100EF0000B50300FEE6E0A50300FEE6E0950300F6F
:100F0000EE6E0850300FEE6E0750300FEE6E06504A
:100F1000300FEE6E0550300FEE6E170EE4CF1DF061
:100F2000E4CF1CF0E4CF1BF0E4CF1AF0E4CF19F0CB
:100F3000E4CF18F0E4CF17F0E4CF16F0E4CF15F0CB
:100F4000E4CF14F0E4CF13F0E4CF12F0E4CF11F0CB
:100F5000E4CF10F0E4CF0FF0E4CF0EF0E4CF0DF0CB
:100F6000E4CF0CF0E4CF0BF0E4CF0AF0E4CF09F0CB
:100F7000E4CF08F0E4CF07F0E4CF06F0E4CF05F0CB
:100F8000120000C0E5FF01C0E5FF02C0E5FF03C09D
:100F9000E5FF04C0E5FF05C0E5FF06C0E5FF07C0AB
:100FA000E5FF08C0E5FF09C0E5FF0AC0E5FF0BC08B
:100FB000E5FF0CC0E5FF006A016A026A040E025CEC
:100FC000D8B0D3EF09F001C003F0012A100E035C82
:100FD000D8B0E9D10F01142B100E145D01E3146B8E
:100FE0000F011439E8441F0B036E046A360E032602
:100FF0000F0E042203C0E9FF04C0EAFFEFCF03F0A5
:10100000070E1415046E010E056E000E066E0450D8
:1010100006E0E86CD89005360636010FFCE3076A57
:101020000350051607500616055005E1065003E16A
:10103000056A052A01D0056A0550D880E866D8906F
:10104000056A05360550D8B4B9D70F011451020D01
:10105000F450046EF3CF03F0E00E0324056E000E8F
:101060000420066E05C0E9FF06C0EAFFEECF05F0DA
:10107000EFCF06F00F0111A19DD0D30E0324076E10
:10108000040E0420086E07C0E9FF08C0EAFFEECF97
:1010900007F0EFCF08F00650800FF36E0850800F76
:1010A000F35C02E10750055C03E2056A066A60D062
:1010B000000E03260A0E042203C0E9FF04C0EAFF63
:1010C000EECF03F0EFCF04F00450800FF36E065024
:1010D000800FF35C02E10550035C04E205683F0EFB
:1010E000066E46D00750055C096E085006580A6E19
:1010F000E86A0ABEFF0E0B6EE56E0B50E56E0A50F5
:10110000E56E0950E56EE56AE56A400EE56E000E93
:10111000E56AFFEC0FF0096EF3CF0AF0F4CF0BF0A5
:10112000E9CF0CF0080EE1260750035C076E08506B
:101130000458086EE86A08BEFF0E036EE56E0350A1
:10114000E56E0850E56E0750E56E0C50E56E0B50ED
:10115000E56E0A50E56E0950E56E0AEC16F0036E76
:10116000F3CF04F0080EE1260350056E0450066E1E
:101170000F011051800FF36E0650800FF35C02E1F7
:1011800005500F5D03E3056A066A14D00F010F5185
:10119000FF08036E3F0E1055046E0650800FF36E6D
:1011A0000450800FF35C02E10350055C03E3056823
:1011B0003F0E066E0F011451020DF450046EF3CF72
:1011C00003F0B30E0326040E042203C0E9FF04C09B
:1011D000EAFFEECF03F0EFCF04F00350055C036E9F
:1011E00004500658046ED88004AED89004E3041E60
:1011F000036CD8B4042A022A0F011051800FF36E39
:101200000450800FF35C02E103500F5DD8B0D6D6D6
:101210000F011451020DF450086EF3CF07F0B30E16
:101220000726040E082207C0E9FF08C0EAFF05C030
:10123000EEFF06C0EFFF0F0111A55AD00F011451A8
:10124000020DF450086EF3CF07F0200E0724096E4C
:101250000A0E08200A6E09C0E9FF0AC0EAFFEECFB5
:101260000BF0EFCF0CF00B500C10D8B441D0930E14
:101270000726040E082207C0E9FF08C0EAFFEECFE8
:1012800007F0EFCF08F00750055C036E08500658D2
:10129000046E03101CE00450800F800F02E1010E69
:1012A000035C076A07360C50800F800F02E1010EC5
:1012B0000B5C0B6A0B3607500B1809E109C0E9FFFC
:1012C0000AC0EAFF03C0EEFF04C0EFFF77D60F01AC
:1012D0001451020DF450046EF3CF03F0200E0326D8
:1012E0000A0E042203C0E9FF04C0EAFFEE6AEF6AB7
:1012F0000F0111A343D000500EE100C003F0002AFB
:10130000046A150E03260F0E042203C0E9FF04C071
:10131000EAFF420EEF6E00C003F0002A046A150EC9
:1013200003260F0E0422640E0F011425076E03C05E
:10133000E9FF04C0EAFF07C0EFFF00C003F0002A86
:10134000046A150E03260F0E04220650076E03C012
:10135000E9FF04C0EAFF07C0EFFF00C003F0002A66
:10136000046A150E03260F0E04220550076E03C0F3
:10137000E9FF04C0EAFF07C0EFFF20D614CF03F057
:101380000650E56E0550E56EE56A0350E56E000E09
:10139000E56E310EE56E2E0EE56E6FEC1DF0070E5C
:1013A000E126DEEF07F002C001F000501DE00F0162
:1013B00011A31AD000C002F0002A036A150E0226FB
:1013C0000F0E032202C0E9FF03C0EAFF0A0EEF6E10
:1013D0000050E56E800EE56E0F0EE56E150EE56EA3
:1013E000A8EC17F0040EE1260150E4CF0CF0E4CF96
:1013F0000BF0E4CF0AF0E4CF09F0E4CF08F0E4CF3B
:1014000007F0E4CF06F0E4CF05F0E4CF04F0E4CF3A
:1014100003F0E4CF02F0E4CF01F0E4CF00F01200DB
:1014200000C0E5FF01C0E5FF02C0E5FF03C0E5FF26
:1014300004C0E5FF05C0E5FF06C0E5FF07C0E5FF06
:1014400008C0E5FF09C0E5FF0AC0E5FF0BC0E5FFE6
:101450000CC0E5FF0DC0E5FF0EC0E5FF000E00B0BB
:10146000010F00B2020F00B4040F00B6080F00B85D
:10147000060F00BA020F00BC040F00BE080F01B037
:10148000060F01B2020F01B4040F01B6080F01B834
:10149000060F01BA020F01BC040F01BE080F02B013
:1014A000060F02B2020F02B4040F02B6080F02B810
:1014B000060F02BA020F02BC040F02BE080F056A33
:1014C000F60F02E3052AFCD70A0F046E055000B898
:1014D000010F00BA030F00BC060F00BE020F01B0DF
:1014E000050F01B2010F01B4020F01B6040F01B8DC
:1014F000090F01BA090F01BC080F01BE060F02B0A7
:10150000030F02B2070F02B4040F02B6080F02B8AD
:10151000070F02BA050F066AF60F02E3062AFCD788
:101520000A0F056E065000BE010F01B0020F01B296
:10153000050F01BA010F01BC030F01BE070F02B076
:10154000050F02B4010F02B6020F02B8050F02BA6E
:10155000010F02BC030F02BE060F076AF60F02E37B
:10156000072AFCD70A0F066E075001B4010F01B617
:10157000020F01B8040F01BA080F01BC060F01BE2B
:10158000020F02B0050F02B2010F02B4020F02B641
:10159000040F02B8080F02BA070F02BC040F02BE04
:1015A000080F086AF60F02E3082AFCD70A0F076E35
:1015B000085001BC010F01BE030F02B0060F02B2BA
:1015C000030F02B4060F02B6020F02B8040F02BAEC
:1015D000090F02BC090F02BE080F096AF60F02E3E9
:1015E000092AFCD70A0F086E095002B2010F02B493
:1015F000020F02B6050F02BC010F02BE030F0A6AFA
:10160000F60F02E30A2AFCD70A0F096E0A5002B845
:10161000010F02BA020F02BC040F02BE080F0B6AD0
:10162000F60F02E30B2AFCD70A0F0A6E0B500E6A64
:101630000EE10A5010E1095012E1085014E1075080
:1016400016E1065018E105501AE104501CD00E2A8C
:10165000300FEE6E0A500E2A300FEE6E09500E2A31
:10166000300FEE6E08500E2A300FEE6E07500E2A25
:10167000300FEE6E06500E2A300FEE6E05500E2A19
:10168000300FEE6E04500E2A300FEE6E0E50E4CF87
:101690000EF0E4CF0DF0E4CF0CF0E4CF0BF0E4CF8C
:1016A0000AF0E4CF09F0E4CF08F0E4CF07F0E4CF8C
:1016B00006F0E4CF05F0E4CF04F0E4CF03F0E4CF8C
:1016C00002F0E4CF01F0E4CF00F01200800EE56EEE
:1016D0000A0EE56E000EE56EC0EC1BF0030EE1266F
:1016E000800EE56E040EE56ED30EE56EC0EC1BF0C9
:1016F000030EE126800EE56E0A0EE56E020EE56E23
:10170000C0EC1BF0030EE126800EE56E040EE56EC4
:10171000D50EE56EC0EC1BF0030EE126800EE56EE3
:101720000A0EE56E040EE56EC0EC1BF0030EE1261A
:10173000800EE56E040EE56ED70EE56EC0EC1BF074
:10174000030EE126800EE56E0A0EE56E060EE56ECE
:10175000C0EC1BF0030EE126800EE56E040EE56E74
:10176000D90EE56EC0EC1BF0030EE126800EE56E8F
:101770000A0EE56E080EE56EC0EC1BF0030EE126C6
:10178000800EE56E040EE56EDB0EE56EC0EC1BF020
:10179000030EE126800EE56E0A0EE56E0A0EE56E7A
:1017A000C0EC1BF0030EE126800EE56E040EE56E24
:1017B000DD0EE56EC0EC1BF0030EE126800EE56E3B
:1017C0000A0EE56E0C0EE56EC0EC1BF0030EE12672
:1017D000800EE56E040EE56EDF0EE56EC0EC1BF0CC
:1017E000030EE126800EE56E0A0EE56E0E0EE56E26
:1017F000C0EC1BF0030EE126800EE56E040EE56ED4
:10180000E10EE56EC0EC1BF0030EE126800EE56EE6
:101810000A0EE56E100EE56EC0EC1BF0030EE1261D
:10182000800EE56E040EE56EE30EE56EC0EC1BF077
:10183000030EE126800EE56E0A0EE56E120EE56ED1
:10184000C0EC1BF0030EE126800EE56E040EE56E83
:10185000E50EE56EC0EC1BF0030EE126800EE56E92
:101860000A0EE56E140EE56EC0EC1BF0030EE126C9
:10187000800EE56E040EE56EE70EE56EC0EC1BF023
:10188000030EE126800EE56E0A0EE56E160EE56E7D
:10189000C0EC1BF0030EE126800EE56E040EE56E33
:1018A000E90EE56EC0EC1BF0030EE126800EE56E3E
:1018B0000A0EE56E180EE56EC0EC1BF0030EE12675
:1018C000800EE56E040EE56EEB0EE56EC0EC1BF0CF
:1018D000030EE126800EE56E0A0EE56E1A0EE56E29
:1018E000C0EC1BF0030EE126800EE56E040EE56EE3
:1018F000ED0EE56EC0EC1BF0030EE126800EE56EEA
:101900000A0EE56E1C0EE56EC0EC1BF0030EE12620
:10191000800EE56E040EE56EEF0EE56EC0EC1BF07A
:10192000030EE126800EE56E0A0EE56E1E0EE56ED4
:10193000C0EC1BF0030EE126800EE56E040EE56E92
:10194000F10EE56EC0EC1BF0030EE126120000C0A4
:10195000E5FF01C0E5FF02C0E5FF03C0E5FF04C0ED
:10196000E5FF05C0E5FF06C0E5FF07C0E5FF08C0CD
:10197000E5FF09C0E5FFC2A203D00F01125104D157
:101980000F011351D8B4ADD00F011251020DF45014
:10199000016EF3CF00F0E00E0026000E012200C021
:1019A000E9FF01C0EAFFEECF02F0EFCF03F003340E
:1019B0000330056E0230046E0534053204320534FE
:1019C000053204320450025C046E05500358056E63
:1019D000C3CF06F0076A0650042607500522C4CF7D
:1019E00006F00650096E086A0850042609500522C0
:1019F00000C0E9FF01C0EAFF04C0EEFF05C0EFFF31
:101A00000F010E51010A01E06AD00F011251020DBF
:101A1000F450016EF3CF00F0E00E0024046E000ECF
:101A20000120056E04C0E9FF05C0EAFFEECF02F019
:101A3000EFCF03F0D30E0026040E012200C0E9FF11
:101A400001C0EAFFEECF04F0EFCF05F09C0E0426B4
:101A5000D8A005060350800FF36E0550800FF35C8D
:101A600002E10450025C0EE20250640F046E000EAC
:101A70000320056E00C0E9FF01C0EAFF04C0EEFFCD
:101A800005C0EFFF0F011251020DF450016EF3CFAC
:101A900000F0000E00260A0E012200C0E9FF01C07E
:101AA000EAFFEECF04F0EFCF05F0640E0426D8B0C5
:101AB000052A0550800FF36E0350800FF35C02E19E
:101AC0000250045C0CE29C0E0226D8A0030600C063
:101AD000E9FF01C0EAFF02C0EEFF03C0EFFF0F0104
:101AE000136B0F01122B100E125D01E3126B0F012D
:101AF0001239E8441F0B006E016A360E00260F0EE5
:101B0000012200C0E9FF01C0EAFFEFCF00F0070E9D
:101B10001215016E010E026E000E036E015006E0FA
:101B2000E86CD89002360336010FFCE3046A0050DB
:101B3000021604500316025005E1035003E1026A45
:101B4000022A01D0026A0250D880E866D890026A60
:101B50000236025017E0240E0F011225006E016AB2
:101B6000040E012200C0E9FF01C0EAFFEFCF00F040
:101B70000044E844FC0B016E0128C26EC282010ED3
:101B80000F01136F0F011251E4CF09F0E4CF08F0F9
:101B9000E4CF07F0E4CF06F0E4CF05F0E4CF04F0A3
:101BA000E4CF03F0E4CF02F0E4CF01F0E4CF00F0A3
:101BB000120000C0E5FF01C0E5FF02C0E5FF03C061
:101BC000E5FF04C0E5FF05C0E5FF06C0E5FF07C06F
:101BD000E5FFF2EC23F037EC20F0F3CF01F0F4CF87
:101BE00002F0E9CF03F0880F0401346F130E0120D7
:101BF000356F000E0220366F000E0320376F23EC86
:101C000018F09486820E006E0F0E016E0F0E036E9A
:101C1000380E0026035001220F0E036E800E005E68
:101C20000350015A820E026E0F0E036E0F0E056EE8
:101C3000380E0226055003220F0E056E800E025E3E
:101C40000550035A02C0E9FF03C0EAFFEFCF02F0DC
:101C5000028600C0E9FF01C0EAFF02C0EFFF0F0EDD
:101C6000E56E000EE56A15EC1BF0E652E652929620
:101C7000929492909292949294949298929A899635
:101C80008994899089928B928B948998899A93866A
:101C9000810E006E0F0E016E0F0E036E380E0026C1
:101CA000035001220F0E036E800E005E0350015A96
:101CB000810E026E0F0E036E0F0E056E380E022699
:101CC000055003220F0E056E800E025E0550035A6A
:101CD00002C0E9FF03C0EAFFEFCF02F0028600C0B6
:101CE000E9FF01C0EAFF02C0EFFF090EE56E010E39
:101CF000E56E15EC1BF0E652E652939C939E93948E
:101D000093900C0E0F01576FBD6EB96AB982BD9AE0
:101D1000BD98BE6A0F01579B57990F01586B37EC5E
:101D200020F0006EF3CF01F0F4CF02F0E9CF03F022
:101D300003CF04F004CF05F0E56AE56A0550E56ECF
:101D40000450E56EE56AE56A030EE56EE80EE56EA1
:101D5000FFEC0FF0046EF3CF05F0F4CF06F0E9CFFF
:101D600007F0080EE126E56AE56A030EE56EE80E67
:101D7000E56E0750E56E0650E56E0550E56E0450C1
:101D8000E56E0AEC16F0046EF3CF05F0F4CF06F022
:101D9000E9CF07F0080EE126045000240401816F0A
:101DA00005500120826F06500220836F07500320E8
:101DB000846FE4CF07F0E4CF06F0E4CF05F0E4CF82
:101DC00004F0E4CF03F0E4CF02F0E4CF01F0E4CF7D
:101DD00000F01200430025630000D9CFE5FFE1CFFA
:101DE000D9FF00C0E5FF01C0E5FF02C0E5FF03C069
:101DF000E5FF04C0E5FF05C0E5FF06C0E5FF07C03D
:101E0000E5FF08C0E5FF09C0E5FF0AC0E5FF0BC01C
:101E1000E5FF020EDBCF00F0030EDBCF01F0040E76
:101E2000DBCF02F0050EDBCF03F0060EDBCF04F0B4
:101E3000070EDBCF05F0080EDBCF06F0090EDBCF77
:101E400007F006C008F0060608500EE0065004240D
:101E5000086EE86A06BEE8680520096E08C0E9FF5A
:101E600009C0EAFFEF6AEDD700500F01276F01505C
:101E7000286F0250296F03502A6F27CF00F028CF18
:101E800001F029CF02F02ACF03F0066A086A096A36
:101E9000800E03140A6E065007E1085005E1095050
:101EA00003E10A50800A01E012D0039E00500F01A6
:101EB000276F0150286F0250296F03502A6F04C00A
:101EC000E9FF05C0EAFF2D0EEF6E044A052A0F0157
:101ED00029352A357E08006E2751016E2851026E81
:101EE0007F0E2915036E066A038E086A096A0A6A5C
:101EF0000B6A005019E0D88000AED8900EE308506D
:101F0000082609360A360B3603BE08800150012622
:101F1000023603360636002AECD7D8900632033252
:101F2000023201320006E5D7085009100A100B10E2
:101F300012E00550E56E0450E56E0B50E56E0A5058
:101F4000E56E0950E56E0850E56E0CEC20F0006E71
:101F5000060EE12608D004C0E9FF05C0EAFF300EF6
:101F6000EF6E010E006E00500426E86A00BEE868BD
:101F70000522075028E004C0E9FF05C0EAFF2E0E45
:101F8000EF6E002A044A052A07501808E56E05502E
:101F9000E56E0450E56E0650E56E0350E56E0250A6
:101FA000E56E0150E56E48EC1FF0016E070EE1266C
:101FB0000150002607500426E86A052204C0E9FF04
:101FC00005C0EAFFEF6A0050E4CF0BF0E4CF0AF05F
:101FD000E4CF09F0E4CF08F0E4CF07F0E4CF06F057
:101FE000E4CF05F0E4CF04F0E4CF03F0E4CF02F057
:101FF000E4CF01F0E4CF00F0E4CFD9FF1200D9CF55
:10200000E5FFE1CFD9FF00C0E5FF01C0E5FF02C059
:10201000E5FF03C0E5FF04C0E5FF05C0E5FF06C01E
:10202000E5FF07C0E5FF020EDBCF00F0030EDBCFBC
:1020300001F0040EDBCF02F0050EDBCF03F0060E3D
:10204000DBCF04F0070EDBCF05F0080EDBCF06F088
:10205000090EDBCF07F0005004018E6F01508F6F27
:102060000250906F0350916F04500401F36F0550BC
:10207000F46F0650F56F0750F66F04018E5104019E
:10208000F503F4CF01F0F3CF00F000500401F96F35
:102090000150FA6F04018E510401F303F4CF01F0F3
:1020A000F3CF00F000500401F76F0150F86F040106
:1020B00091510401F303F3CF00F00401FA5100261B
:1020C0000050FA6F040190510401F403F3CF00F0C3
:1020D0000401FA5100260050FA6F040190510401E6
:1020E000F303F4CF01F0F3CF00F00401F95100261F
:1020F000FA5101220050F96F0150FA6F04018F511B
:102100000401F403F4CF01F0F3CF00F00401F9511E
:102110000026FA5101220050F96F0150FA6F0401B4
:102120008F510401F503F3CF00F000500401FE6F5E
:1021300004018F510401F303F4CF01F0F3CF00F059
:1021400000500401FC6F0150FD6F04018E51040129
:10215000F603F3CF00F000500F01266F04018E51FB
:102160000401F403F4CF01F0F3CF00F000500F01AD
:10217000246F0150256F0401FB6B0F01236B0401D9
:10218000FB510401F725006E0401FC510401F82104
:10219000016E0401FD510401F921026E0401FE519A
:1021A0000401FA21036E0050F76F0150F86F0250DE
:1021B000F96F0350FA6F0F0123510401F725006EE8
:1021C0000F0124510401F821016E0F012551040172
:1021D000F921026E0F0126510401FA21036E03C09A
:1021E000E9FF02C0F4FF01C0F3FF0050E4CF07F0A5
:1021F000E4CF06F0E4CF05F0E4CF04F0E4CF03F041
:10220000E4CF02F0E4CF01F0E4CF00F0E4CFD9FF57
:10221000120000C0E5FF01C0E5FF0F010B51D8B46B
:10222000F5D09DA81DD09EA81BD00A0169510A01B6
:10223000661905E17FEC23F00A01666BE7D0390EE1
:102240000A016925006E016A040E012200C0E9FF3F
:1022500001C0EAFFEFCF62FA692B62CAADFFD6D0A8
:102260009EAAD4D0ABA205D00A0167817FEC23F0EF
:10227000CDD0ABA405D00A0167837FEC23F0C6D094
:10228000ABA03ED0AECF62FA800E0F010C110A0156
:10229000621904E10A016789AB96B8D00A0162515C
:1022A00004E062510F010C1927E10A016799AB960E
:1022B0000A01625103E00A01679702D00A016787A9
:1022C00062CA6BFA64CA6CFA0A0164050A016D6F8E
:1022D000600E0A016C25006E016A000E012200C02A
:1022E000E9FF01C0EAFF62CAEFFF6C2B6C51800A64
:1022F00002E10A016C6B8AD00A016799AB8686D02D
:10230000AECF62FA0A0167A919D0800E0F010C1135
:102310000A01621911E18B909D9AAB980A016651EE
:1023200004E1AD6A7FEC23F007D039C4ADFF010EA4
:102330000A01696F9D886AD0AB8668D00A01625134
:102340000A016B270A016C510A016D191BE10A0190
:102350006B510CE16CCA64FA0A0167B712D08B901A
:102360009D9AAB98AD6A7FEC23F00BD00A0167858C
:1023700067B707D08B909D9AAB98010EAD6E7FEC3E
:1023800023F044D00A016C510A01651908E10A01E1
:1023900065510A01641903E07FEC23F037D064CA69
:1023A00000F0016A004A012AE56A800EE56E0150DC
:1023B000E56E0050E56E14EC19F0006E040EE12697
:1023C00000500A01636F0A016C190CE11F0E0A012B
:1023D00062150A016D6F6D2B6D2B0A0164510A01A4
:1023E0006D276D9F6CCA00F00A016C2B016A600EAC
:1023F0000026000E012200C0E9FF01C0EAFF62CA08
:10240000EFFF6C51800A02E10A016C6BE4CF01F02E
:10241000E4CF00F01200D9CFE5FFE1CFD9FF00C033
:10242000E5FF01C0E5FF02C0E5FF03C0E5FF04C012
:10243000E5FF05C0E5FF06C0E5FF07C0E5FF08C0F2
:10244000E5FF09C0E5FF0AC0E5FF0BC0E5FF0CC0D2
:10245000E5FF0DC0E5FF0EC0E5FF0FC0E5FF020E72
:10246000DBCF00F0030EDBCF01F0040EDBCF02F078
:10247000050EDBCF03F0060EDBCF04F0070EDBCF3B
:1024800005F0080EDBCF06F0200E076E086A06C0C6
:1024900009F00A6A0B6A0C6AE56AE56AE56A09509E
:1024A000E56E0350E56E0250E56E0150E56E00509A
:1024B000E56E5DEC14F00D6E080EE126300E0D2673
:1024C0003A0E0D5C05E30D500E6E270E0E240D6EB8
:1024D000FF0E07260822400E07240E6E0A0E082063
:1024E0000F6E0EC0E9FF0FC0EAFF0DC0EFFF0C50EA
:1024F000E56E0B50E56E0A50E56E0950E56E03502F
:10250000E56E0250E56E0150E56E0050E56E0AEC96
:1025100016F0006EF3CF01F0F4CF02F0E9CF03F034
:10252000080EE1260050011002100310D8A4AFD706
:1025300007C000F008C001F004C002F005C003F0BD
:1025400000C004F001C005F0004A012A400E042634
:102550000A0E052204C0E9FF05C0EAFFEFCF04F030
:1025600002C0E9FF03C0EAFF04C0EFFF024A032AEA
:10257000000E015C02E1200E005CE2E302C0E9FF14
:1025800003C0EAFF000EEF6AE4CF0FF0E4CF0EF0D5
:10259000E4CF0DF0E4CF0CF0E4CF0BF0E4CF0AF081
:1025A000E4CF09F0E4CF08F0E4CF07F0E4CF06F081
:1025B000E4CF05F0E4CF04F0E4CF03F0E4CF02F081
:1025C000E4CF01F0E4CF00F0E4CFD9FF120000C067
:1025D000E5FF01C0E5FF02C0E5FF03C0E5FF04C061
:1025E000E5FF05C0E5FF06C0E5FF07C0E5FF7DECA0
:1025F00015F0A7EC0CF0006E0F01051901E172D087
:1026000000C005FF0050020A01E06CD037EC20F05A
:10261000006EF3CF01F0F4CF02F0E9CF03F0040134
:102620008151005E8251015A8351025A8451035AEA
:10263000039E3F0E035C08E1FF0E025C05E1FF0E06
:10264000015C02E1FF0E005CD8B04CD037EC20F00A
:10265000006EF3CF01F0F4CF02F0E9CF03F003CF27
:1026600004F004CF05F0E56AE56A0550E56E045014
:10267000E56EE56AE56A030EE56EE80EE56EFFECD1
:102680000FF0046EF3CF05F0F4CF06F0E9CF07F0BA
:10269000080EE126E56AE56A030EE56EE80EE56ED2
:1026A0000750E56E0650E56E0550E56E0450E56E88
:1026B0000AEC16F0046EF3CF05F0F4CF06F0E9CF84
:1026C00007F0080EE126045000240401816F055034
:1026D0000120826F06500220836F07500320846F11
:1026E000B1EC21F037EC20F0006EF3CF01F0F4CF25
:1026F00002F0E9CF03F004013451005E3551015A74
:102700003651025A3751035A039E3F0E035C08E1CB
:10271000FF0E025C05E1FF0E015C02E1FF0E005CB2
:1027200016E237EC20F0F3CF01F0F4CF02F0E9CF5E
:1027300003F0880F0401346F130E0120356F000E73
:102740000220366F000E0320376FC1EC07F0E4CF94
:1027500007F0E4CF06F0E4CF05F0E4CF04F0E4CFD7
:1027600003F0E4CF02F0E4CF01F0E4CF00F0120078
:1027700000C0E5FF01C0E5FF02C0E5FF03C0E5FFC3
:1027800004C0E5FF06C0E5FF61EC20F0006E640ABE
:1027900009E161EC20F00F01006F61EC20F00F0106
:1027A000016F7ED00050650A0EE161EC20F0016AF5
:1027B000026E61EC20F0046A01240F01036F0450E3
:1027C0000220046F6DD00050140A29E161EC20F062
:1027D000016A026E61EC20F0046A012604500222B4
:1027E0000150020BE840010BE838E844F46EBD509C
:1027F000DF0BF410BD6E0150010B010BE838F46ED5
:10280000BD50EF0BF410BD6ED8900230046E013055
:10281000036ED890043203320350BE6E41D0005094
:10282000150A2BE161EC20F0036A046E61EC20F0E4
:10283000066A0324016E06500420026E0150020B4A
:10284000E840010BE838E844F46E0F015751DF0B04
:10285000F410576F0150010B010BE838F46E57511B
:10286000EF0BF410576FD89002320132D890023239
:10287000013201500F01586F13D000500A0A10E1C5
:1028800061EC20F0006E005002E08A8C01D08A9C3E
:1028900061EC20F0006E005002E08A8E01D08A9E2A
:1028A000E4CF06F0E4CF04F0E4CF03F0E4CF02F08D
:1028B000E4CF01F0E4CF00F01200D9CFE5FFE1CF83
:1028C000D9FF00C0E5FF01C0E5FF02C0E5FF03C07E
:1028D000E5FF04C0E5FF05C0E5FF06C0E5FF07C052
:1028E000E5FF08C0E5FF09C0E5FF0AC0E5FF020EED
:1028F000DBCF00F0030EDBCF01F0040EDBCF02F0E4
:10290000050EDBCF03F0060EDBCF04F0070EDBCFA6
:1029100005F0080EDBCF06F0090EDBCF07F0086AE2
:10292000096A0750800BE8440A6E0A501BE1045004
:1029300004260536063607360750035C08E10650C4
:10294000025C05E10550015C02E10450005C06E216
:10295000D890073206320532043204D0092A09C061
:1029600008F0DFD70750035C08E10650025C05E180
:102970000550015C02E10450005C08E30450005E75
:102980000550015A0650025A0750035AD890073290
:1029900006320532043208C009F008060950E2E1A7
:1029A00003C0E9FF02C0F4FF01C0F3FF0050E4CF11
:1029B0000AF0E4CF09F0E4CF08F0E4CF07F0E4CF69
:1029C00006F0E4CF05F0E4CF04F0E4CF03F0E4CF69
:1029D00002F0E4CF01F0E4CF00F0E4CFD9FF120021
:1029E00000C0E5FF01C0E5FF03C0E5FF04C0E5FF4F
:1029F00005C0E5FF06C0E5FF07C0E5FF08C0E5FF2D
:102A000009C0E5FF0AC0E5FF0BC0E5FF34CF00F0C9
:102A100035CF01F00F01343F01D0352B0050E56E6A
:102A200071EC23F0E652076E046A056A066A34CF39
:102A300000F035CF01F00F01343F01D0352B0050AD
:102A4000E56E71EC23F0E6520B6A0A6E086A0850D4
:102A5000041205120A5006120B50071234CF00F070
:102A600035CF01F00F01343F01D0352B0050E56E1A
:102A700071EC23F0E652036E006A03C001F0E86ACD
:102A800003BEFF0E086E096E0050041201500512BD
:102A9000085006120950071234CF00F035CF01F06C
:102AA0000F01343F01D0352B0050E56E71EC23F05F
:102AB000E652016A0412015005120612071207C0FD
:102AC000E9FF06C0F4FF05C0F3FF0450E4CF0BF0AC
:102AD000E4CF0AF0E4CF09F0E4CF08F0E4CF07F048
:102AE000E4CF06F0E4CF05F0E4CF04F0E4CF03F048
:102AF000E4CF01F0E4CF00F0120000C0E5FF01C018
:102B0000E5FF02C0E5FF03C0E5FF04C0E5FF0A01E1
:102B100065510A01641901E15FD065CA00F0002A1D
:102B2000009E600E0024016E026A000E022201C0A7
:102B3000E9FF02C0EAFFEFCF6FFA1F0E0A016F171D
:102B400065CA6EFA6F510A016E276E2B6E2B6E9F4F
:102B500061EC20F0016E015003E1016A012A01D00D
:102B6000016A61EC20F00A016F6F800E6F15026E32
:102B70001F0E6F15036E03C004F003C06FFA0450FC
:102B800003E164CA65FA3BD001501BE0025022E029
:102B900061EC20F0006E0A016F070050420A1AE053
:102BA00000504E0A03E1EDEC1CF014D00050460A30
:102BB00003E1B3EC23F00ED00050490A0BE1FF0013
:102BC00009D065CA70FA025003E07AEC1FF002D017
:102BD000B8EC13F06ECA65FA0F0108510F0109191C
:102BE00006E00A01665103E196EC16F008D08BB0BE
:102BF00006D00A01665103E1ACB27FEC23F0E4CFCA
:102C000004F0E4CF03F0E4CF02F0E4CF01F0E4CF2E
:102C100000F01200D9CFE5FFE1CFD9FF00C0E5FFFA
:102C200001C0E5FF02C0E5FF03C0E5FF04C0E5FF0A
:102C300005C0E5FF06C0E5FF07C0E5FF08C0E5FFEA
:102C400009C0E5FF0AC0E5FF0BC0E5FF0CC0E5FFCA
:102C50000DC0E5FF020EDBCF00F0030EDBCF01F06D
:102C6000040EDBCF02F0050EDBCF03F0060EDBCF48
:102C700004F0070EDBCF05F0080EDBCF06F0090EDF
:102C8000DBCF07F0086A096A0A6A0B6A200E0C6E2D
:102C90000350800BE8440D6E0050002601360236CA
:102CA00003360850082609360A360B360D50D8A4CC
:102CB000088007500B5C08E106500A5C05E10550EE
:102CC000095C02E10450085C09E30450085E055009
:102CD000095A06500A5A07500B5A00800C2ED8D7B2
:102CE00003C0E9FF02C0F4FF01C0F3FF0050E4CFCE
:102CF0000DF0E4CF0CF0E4CF0BF0E4CF0AF0E4CF1A
:102D000009F0E4CF08F0E4CF07F0E4CF06F0E4CF19
:102D100005F0E4CF04F0E4CF03F0E4CF02F0E4CF19
:102D200001F0E4CF00F0E4CFD9FF120000C0E5FFCE
:102D300001C0E5FF02C0E5FF03C0E5FFACA276D00D
:102D400092EC21F0006E005005E10F01096B0F01BC
:102D5000086B6CD009CF01F00050012692EC21F0F5
:102D6000026E00060250230A1FE1010E005CD8A08B
:102D70005BD092EC21F0026E690A03E1DCEC1FF0FB
:102D800053D00250720A03E17FEC23F04DD0025081
:102D9000730A01E049D08B80AB869D8A9D98AE5026
:102DA000AE50AB98AB8840D00250430A05E00250C9
:102DB000420A01E039D001D0008E00C068FA00500C
:102DC0000401396F010E0A01696F0F0109510118E1
:102DD00014E092EC21F0026E0A016827390E0A0114
:102DE0006925006E036A040E032200C0E9FF03C0D8
:102DF000EAFF02C0EFFF692BE8D7390E0A01692507
:102E0000006E026A040E02220A01681D036E032A84
:102E100000C0E9FF02C0EAFF03C0EFFF0A01692B0F
:102E200069CA66FA0A01606B01C009FFE4CF03F0CA
:102E3000E4CF02F0E4CF01F0E4CF00F01200D9CFEC
:102E4000E5FFE1CFD9FF00C0E5FF01C0E5FF02C00B
:102E5000E5FF03C0E5FF04C0E5FF05C0E5FF06C0D0
:102E6000E5FF07C0E5FF020EDBCF00F0030EDBCF6E
:102E700001F0040EDBCF02F0050EDBCF03F002C041
:102E800006F00650046E800A33E100C0E9FF01C07D
:102E9000F3FF02500AEC22F0056EF3CF06F0F4CFF8
:102EA00007F003C0E5FF05C0E9FF06C0F3FF0750C8
:102EB000BEEC23F000C0E9FF01C0F3FF02500AECB2
:102EC00022F0056EF3CF06F0F4CF07F0052A02E3F7
:102ED000064A072A05C0E5FF06C0F4FF07C0F6FF53
:102EE00000C0E9FF01C0F3FF025062EC23F01DD0E7
:102EF00004AA1BD0047A045004E10350F7EC23F039
:102F000014D00450010A04E1035002EC00F00DD08B
:102F100004500F0A04E10350ABEC1FF006D004503C
:102F20000E0A03E1035007EC24F0E4CF07F0E4CFEE
:102F300006F0E4CF05F0E4CF04F0E4CF03F0E4CFF3
:102F400002F0E4CF01F0E4CF00F0E4CFD9FF1200AB
:102F5000D9CFE5FFE1CFD9FF00C0E5FF01C0E5FF14
:102F600002C0E5FF03C0E5FF04C0E5FF05C0E5FFC3
:102F700006C0E5FF07C0E5FF020EDBCF00F0030E41
:102F8000DBCF01F0040EDBCF02F0050EDBCF03F048
:102F900009CF0AFF0F0108510F010A5F0A0703C09A
:102FA00004F0056A030E0426D8B0052A0ACF06F0FD
:102FB000076A0750800FF36E0550800FF35C02E143
:102FC0000450065C02E2E8682BD0020E035C02E2C9
:102FD000E86A26D003060350E56E2BEC1EF0E6529D
:102FE000046A0350045C14E204500024056EE86A8D
:102FF0000120066EE86A022005C0E9FF06C0F3FF63
:1030000040EC23F0042AE56E2BEC1EF0E652E9D7E3
:1030100009CF0AFF0F0108510F010A5F0A07E86A8A
:10302000E4CF07F0E4CF06F0E4CF05F0E4CF04F0FE
:10303000E4CF03F0E4CF02F0E4CF01F0E4CF00F0FE
:10304000E4CFD9FF120000C0E5FF01C0E5FF02C0D8
:10305000E5FF03C0E5FF04C0E5FF006A360E00246B
:10306000016E026A0F0E022201C0E9FF02C0EAFFF0
:10307000EF6A002A020E005CF1E3006A016A026A4C
:10308000E00E0124036E000E0220046E03C0E9FF6F
:1030900004C0EAFFEE6AEF6A930E0124036E040E89
:1030A0000220046E03C0E9FF04C0EAFFEE6AEF6A83
:1030B000B30E0124036E040E0220046E03C0E9FF68
:1030C00004C0EAFFEE6AEF6AD30E0124036E040E19
:1030D0000220046E03C0E9FF04C0EAFFEE6AEF6A53
:1030E000000E0124036E0A0E0220046E03C0E9FFE5
:1030F00004C0EAFFEE687F0EEF6E020E0126D8B024
:10310000022A002A100E005CD8A0BAD7AF0EC06EFB
:10311000C16A010EC26EC282E4CF04F0E4CF03F0B4
:10312000E4CF02F0E4CF01F0E4CF00F0120043203E
:10313000412025642025640A0000D9CFE5FFE1CFB6
:10314000D9FF00C0E5FF01C0E5FF02C0E5FF03C0F5
:10315000E5FF04C0E5FF05C0E5FF020EDBCF00F090
:10316000030EDBCF01F0040EDBCF02F00050020DA6
:10317000F450036EF3CF00F0930E0024046E040E9F
:103180000320056E04C0E9FF05C0EAFF01C0EEFFA1
:1031900002C0EFFFB30E0024046E040E0320056E80
:1031A00004C0E9FF05C0EAFFEECF04F0EFCF05F061
:1031B0000150045C016E02500558026E200E00267C
:1031C0000A0E032200C0E9FF03C0EAFF01C0EEFFC0
:1031D00002C0EFFFD88002AED89004E3021E016C5B
:1031E000D8B4022A0250800F800F02E1030E015C66
:1031F00002E2016A026A0150021007E100C0E9FF21
:1032000003C0EAFF000EEE6AEF6AE4CF05F0E4CFF8
:1032100004F0E4CF03F0E4CF02F0E4CF01F0E4CF18
:1032200000F0E4CFD9FF1200D9CFE5FFE1CFD9FFFD
:1032300000C0E5FF01C0E5FF02C0E5FF03C0E5FFF8
:1032400004C0E5FF05C0E5FF06C0E5FF020EDBCFC9
:1032500000F0030EDBCF01F0040EDBCF02F0050E11
:10326000DBCF03F0D88001AED890046A0436045056
:1032700007E0011C066E001C056E054A062A04D0F4
:1032800000C005F001C006F0D88003AED89007E377
:10329000031C016E021C006E004A012A04D002C009
:1032A00000F003C001F00150E56E0050E56E0650DD
:1032B000E56E0550E56EB8EC1AF0006EF3CF01F044
:1032C000040EE12604500AE0011C036E001C026E8D
:1032D000024A032A03C0F3FF025003D001C0F3FFE8
:1032E0000050E4CF06F0E4CF05F0E4CF04F0E4CFE3
:1032F00003F0E4CF02F0E4CF01F0E4CF00F0E4CF3C
:10330000D9FF1200D9CFE5FFE1CFD9FF00C0E5FF1B
:1033100001C0E5FF02C0E5FF03C0E5FF04C0E5FF13
:1033200005C0E5FF020EDBCF00F0030EDBCF01F09E
:10333000040EDBCF02F0050EDBCF03F034CF04F038
:1033400035CF05F00F01343F01D0352B0350E56E2A
:103350000450E56EB2EC20F0E652E65234CF04F0B1
:1033600035CF05F00F01343F01D0352B0250056EEB
:10337000E56E0450E56EB2EC20F0E652E65234CF32
:1033800004F035CF05F00F01343F01D0352B01504B
:10339000056EE56E0450E56EB2EC20F0E652E652A2
:1033A00034CF04F035CF05F00F01343F01D0352B79
:1033B0000050E56E0450E56EB2EC20F0E652E652A5
:1033C000E4CF05F0E4CF04F0E4CF03F0E4CF02F063
:1033D000E4CF01F0E4CF00F0E4CFD9FF1200D9CF61
:1033E000E5FFE1CFD9FF00C0E5FF01C0E5FF02C066
:1033F000E5FF03C0E5FF04C0E5FF05C0E5FF06C02B
:10340000E5FF020EDBCF00F0030EDBCF01F0040E70
:10341000DBCF02F004017F5119E1F0EC14F0036EF0
:10342000F3CF04F0F4CF05F0E9CF06F003C0E5FFD9
:1034300004C0F4FF05C0F6FF06C0F7FF00C0E9FFB7
:1034400001C0F3FF025051EC23F01ED004017F5164
:10345000010A1AE100C0E9FF01C0F3FF025072EC5B
:1034600021F0006EF3CF01F0F4CF02F0E9CF03F0CA
:103470000350E56E0250E56E0150E56E0050E56EBA
:1034800082EC19F0040EE126E4CF06F0E4CF05F05B
:10349000E4CF04F0E4CF03F0E4CF02F0E4CF01F096
:1034A000E4CF00F0E4CFD9FF1200D9CFE5FFE1CFA0
:1034B000D9FF00C0E5FF01C0E5FF02C0E5FF03C082
:1034C000E5FF04C0E5FF05C0E5FF06C0E5FF020E0D
:1034D000DBCF00F0030EDBCF01F0040EDBCF02F0F8
:1034E000050EDBCF03F0060EDBCF04F0070EDBCFBB
:1034F00005F0080EDBCF06F0D88003AED89015E3B8
:1035000006500A0A12E104C0E9FF05C0EAFF2D0EC9
:10351000EF6E044A052A031E021E011E006C05E11F
:10352000012A03E1022AD8B4032A0650E56E0550A9
:10353000E56E0450E56E0350E56E0250E56E0150F5
:10354000E56E0050E56E0BEC12F0070EE126E4CFBD
:1035500006F0E4CF05F0E4CF04F0E4CF03F0E4CFCD
:1035600002F0E4CF01F0E4CF00F0E4CFD9FF120085
:10357000D9CFE5FFE1CFD9FF00C0E5FF01C0E5FFEE
:1035800002C0E5FF03C0E5FF04C0E5FF05C0E5FF9D
:1035900006C0E5FF020EDBCF00F0030EDBCF01F02B
:1035A000040EDBCF02F0050EDBCF03F0046A056AE0
:1035B0000350800BE844066E065011E102500226CB
:1035C00003360350015C02E10250005C04E2D89033
:1035D0000332023204D0052A05C004F0E9D70350B3
:1035E000015C02E10250005C04E30250005E035003
:1035F000015AD8900332023204C005F00406055087
:10360000EEE101C0F3FF0050E4CF06F0E4CF05F097
:10361000E4CF04F0E4CF03F0E4CF02F0E4CF01F014
:10362000E4CF00F0E4CFD9FF1200D9CFE5FFE1CF1E
:10363000D9FF00C0E5FF01C0E5FF02C0E5FF03C000
:10364000E5FF04C0E5FF05C0E5FF06C0E5FF020E8B
:10365000DBCF00F0030EDBCF01F00038E8441F0B96
:10366000026E036A360E02260F0E032202C0E9FF25
:1036700003C0EAFFEFCF04F0070E0014056E010E41
:10368000066E055005E0E86CD8900636010FFDE3A4
:103690000650041202C0E9FF03C0EAFF04C0EFFFB6
:1036A000026A240E0026040E022200C0E9FF02C0B6
:1036B000EAFF01C0EFFFE4CF06F0E4CF05F0E4CF6E
:1036C00004F0E4CF03F0E4CF02F0E4CF01F0E4CF64
:1036D00000F0E4CFD9FF120000C0E5FF01C0E5FF14
:1036E00002C0E5FF03C0E5FF65CA00F0016A70CAC9
:1036F00002F0036A0250005E0350015AE56A800E30
:10370000E56E0150E56E0050E56E14EC19F0006EA8
:10371000040EE126000670CA01F0430EABEC1FF068
:10372000200EABEC1FF00050800F7F0F20E3600EE7
:103730000124026E036A000E032202C0E9FF03C0E7
:10374000EAFFEFCF02F0E56A0250E56E000EE56E8B
:10375000470EE56E160EE56E6FEC1DF0050EE126C8
:10376000012A0150800A01E1016A0006DCD7E4CF9A
:1037700003F0E4CF02F0E4CF01F0E4CF00F0120058
:10378000D9CFE5FFE1CFD9FF00C0E5FF01C0E5FFDC
:1037900002C0E5FF03C0E5FF04C0E5FF020EDBCF7A
:1037A00000F0030EDBCF01F0040EDBCF02F00401CA
:1037B0007F5111E114EC1FF0036EF3CF04F003C04E
:1037C000E5FF04C0F4FF00C0E9FF01C0F3FF0250B1
:1037D0009BEC23F016D004017F51010A12E100C0D6
:1037E000E9FF01C0F3FF0250C9EC22F0006EF3CFF5
:1037F00001F00150E56E0050E56EEEEC1DF0E65272
:10380000E652E4CF04F0E4CF03F0E4CF02F0E4CFDB
:1038100001F0E4CF00F0E4CFD9FF1200D60EF66E2F
:10382000470EF76E000EF86E0900F550056E0900A0
:10383000F550066E04E1056702D05BEF1CF009004D
:10384000F550006E0900F550016E0900F550026E4A
:1038500009000900F550E96E0900F550EA6E09000B
:1038600009000900F550036E0900F550046E0900C7
:103870000900F6CF07F0F7CF08F0F8CF09F000C045
:10388000F6FF01C0F7FF02C0F8FF035002E1045049
:1038900007E00900F550EE6E0306F8E20406F9D7DA
:1038A00007C0F6FF08C0F7FF09C0F8FF050601E2F0
:1038B00006061AEF1CF01200D9CFE5FFE1CFD9FFC1
:1038C00000C0E5FF01C0E5FF02C0E5FF03C0E5FF62
:1038D00004C0E5FF05C0E5FF020EDBCF00F000509D
:1038E000010A24E1016A026A036AD30E0224046E0B
:1038F000040E0320056E04C0E9FF05C0EAFFEE6870
:103900007F0EEF6E000E0224046E0A0E0320056E79
:1039100004C0E9FF05C0EAFFEE6AEF6A020E022664
:10392000D8B0032A012A100E015CDFE300C00EFFAD
:10393000E4CF05F0E4CF04F0E4CF03F0E4CF02F0ED
:10394000E4CF01F0E4CF00F0E4CFD9FF1200D9CFEB
:10395000E5FFE1CFD9FF00C0E5FF01C0E5FF020EA2
:10396000DBCF00F0030EDBCF01F003C0E5FFF2CFA9
:1039700003F0F29E00A002D0898601D0899600A2B1
:1039800002D0898401D0899400A402D0898001D01A
:10399000899000A602D0898201D0899201A002D02C
:1039A0008B8201D08B9201A202D08B8401D08B94A8
:1039B00001A402D0898801D0899801A602D0898A01
:1039C00001D0899A03BEF28EE4CF03F0E4CF01F078
:1039D000E4CF00F0E4CFD9FF120000C0E5FF01C042
:1039E000E5FF02C0E5FF61EC20F0006E61EC20F025
:1039F000016E0050026ED00E0224006E0A0E005CB2
:103A000005E30050026EF90E0224006E0150026EB2
:103A1000D00E0224016E0A0E015C05E30150026E15
:103A2000F90E0224016E080E005C12E2100E015C19
:103A3000D8B00ED00038F00B0124006EA2EC1EF0BE
:103A4000016E015005E10050E56E3FEC22F0E652B8
:103A5000E4CF02F0E4CF01F0E4CF00F01200D9CFC0
:103A6000E5FFE1CFD9FF00C0E5FF01C0E5FF02C0DF
:103A7000E5FF03C0E5FF04C0E5FF020EDBCF00F069
:103A80000038E8441F0B016E026A360E01260F0E45
:103A9000022201C0E9FF02C0EAFFEFCF03F0070EE8
:103AA0000016010E046E005005E0E86CD890043654
:103AB000010FFDE3041C031601C0E9FF02C0EAFF89
:103AC00003C0EFFFE4CF04F0E4CF03F0E4CF02F053
:103AD000E4CF01F0E4CF00F0E4CFD9FF1200D9CF5A
:103AE000E5FFE1CFD9FF00C0E5FF01C0E5FF02C05F
:103AF000E5FF020ED924006E000EDA20016E800E62
:103B0000026E030E0026000E012202220250E56E14
:103B10000150E56E0050E56E040EDBCFE5FF030EAD
:103B2000DBCFE5FF020EDBCFE5FF0F012D51E56E88
:103B30002C51E56E2B51E56E0EEC00F0006EF3CFCC
:103B400001F0090EE12601C0F3FF0050E4CF02F0BE
:103B5000E4CF01F0E4CF00F0E4CFD9FF1200D9CFD9
:103B6000E5FFE1CFD9FF00C0E5FF01C0E5FF02C0DE
:103B7000E5FF03C0E5FF020EDBCF00F0030EDBCF55
:103B800001F0040EDBCF02F004017F510DE19DEC4A
:103B900022F0036E03C0E5FF00C0E9FF01C0F3FFA0
:103BA0000250BEEC23F00FD004017F51010A0BE15B
:103BB00000C0E9FF01C0F3FF025040EC23F0E56EC6
:103BC00027EC21F0E652E4CF03F0E4CF02F0E4CF9B
:103BD00001F0E4CF00F0E4CFD9FF1200D9CFE5FF28
:103BE000E1CFD9FF00C0E5FF01C0E5FF02C0E5FF5E
:103BF00003C0E5FF020EDBCF00F0030EDBCF01F0C8
:103C000034CF02F035CF03F00F01343F01D0352B14
:103C10000150E56E0250E56EB2EC20F0E652E6523D
:103C200034CF02F035CF03F00F01343F01D0352BF4
:103C30000050E56E0250E56EB2EC20F0E652E6521E
:103C4000E4CF03F0E4CF02F0E4CF01F0E4CF00F0E2
:103C5000E4CFD9FF1200D9CFE5FFE1CFD9FF00C0F3
:103C6000E5FF01C0E5FF02C0E5FF03C0E5FF04C0BA
:103C7000E5FF020EDBCF00F008CF01F0026A014A37
:103C8000022A09CF03F0046A0150031803E102502D
:103C9000041801E001D00ED0000E0F010825016EBE
:103CA000026A070E022201C0E9FF02C0EAFF00C05B
:103CB000EFFF082BE4CF04F0E4CF03F0E4CF02F0F1
:103CC000E4CF01F0E4CF00F0E4CFD9FF1200D9CF68
:103CD000E5FFE1CFD9FF00C0E5FF01C0E5FF02C06D
:103CE000E5FF03C0E5FF020EDBCF00F0016A70CAFA
:103CF00002F0036A0250002603500122E56A800E9A
:103D0000E56E0150E56E0050E56E14EC19F0006EA2
:103D1000F3CF01F0040EE126600E0026000E012212
:103D200000C0E9FF01C0EAFFEFCF00F00050E4CF90
:103D300003F0E4CF02F0E4CF01F0E4CF00F0E4CFF1
:103D4000D9FF120000C0E5FF01C0E5FF02C0E5FF9A
:103D5000010E006E61EC20F0016E01C002F0015016
:103D600023E00050E56E71EC23F0016EE652015045
:103D700010E10A0E005C0BE20A0E006EE56E71ECBB
:103D800023F0016EE652015004E1E8680ED0E868C5
:103D90000CD00150021802E0E86807D0002A1B0E80
:103DA000005CD8E3E86801D0E86AE4CF02F0E4CF31
:103DB00001F0E4CF00F01200F3CFE5FFF4CFE5FF10
:103DC000E9CFE5FFEACFE5FFFACFE5FFFBCFE5FF5F
:103DD0000F0106510401876F0F0107510401886F1D
:103DE000D650856FD750866FF2A411D00F01063FD1
:103DF00001D0072BF2940F0106510401876F0F01C8
:103E000007510401886FD650856FD750866FE4CF75
:103E1000FBFFE4CFFAFFE4CFEAFFE4CFE9FFE4CF12
:103E2000F4FFE4CFF3FF110000C0E5FF01C0E5FFA0
:103E300002C0E5FF03C0E5FF34CF00F035CF01F04D
:103E40000F01343F01D0352B0050E56E71EC23F0AB
:103E5000E652036E026A34CF00F035CF01F00F0155
:103E6000343F01D0352B0050E56E71EC23F0E65263
:103E7000016A02120150031203C0F3FF0250E4CFA3
:103E800003F0E4CF02F0E4CF01F0E4CF00F0120041
:103E9000D9CFE5FFE1CFD9FF00C0E5FF01C0E5FFC5
:103EA00002C0E5FF03C0E5FF04C0E5FF020EDBCF63
:103EB00000F0030EDBCF01F0040EDBCF02F0050EA5
:103EC000DBCF03F0060EDBCFE9FF070EDBCFEAFF07
:103ED000080EDBCF04F040EC04F0E4CF04F0E4CFB4
:103EE00003F0E4CF02F0E4CF01F0E4CF00F0E4CF40
:103EF000D9FF120000C0E5FF01C0E5FF61EC20F032
:103F0000450A24E1000EE56E1D0EE56ED40EE56E49
:103F10006FEC1DF0030EE12601EC24F0006E00C0F2
:103F200001F0000601500FE061EC20F0E56AE56E5B
:103F3000000EE56E1D0EE56ED60EE56E6FEC1DF003
:103F4000050EE126ECD70A0EABEC1FF0E4CF01F032
:103F5000E4CF00F0120000C0E5FF01C0E5FF02C0A1
:103F6000E5FF006E5C0E0F010D25016E026A040E66
:103F7000022201C0E9FF02C0EAFF00C0EFFF220EEB
:103F80000D5D01E20D2B00500A0A0FE10F010D51EA
:103F9000E56E800EE56E040EE56E5C0EE56EA8EC37
:103FA00017F0040EE1260F010D6BE4CF02F0E4CF11
:103FB00001F0E4CF00F012000F01086B0F01096B54
:103FC0000F010A698B809490B06A3F0EAF6EB8867D
:103FD000AC8AAC84AC8CAC90AB8CAB8E0A01676BBA
:103FE0000A01616B0A01646B0A01656B0A01666B69
:103FF000000EE56A71EC23F00F010C6FE6529F98FA
:104000009F9A010E0F010B6F0F012B6B2C6B2F0E64
:104010002D6F7FEC23F01200D9CFE5FFE1CFD9FF60
:1040200000C0E5FF01C0E5FF02C0E5FF03C0E5FFFA
:10403000020EDBCF00F0030EDBCF01F0040EDBCF6E
:1040400002F0050EDBCF03F0060EDBCFE9FF070E13
:10405000DBCFEAFF10EC0AF0E4CF03F0E4CF02F08C
:10406000E4CF01F0E4CF00F0E4CFD9FF12000F015C
:10407000065104018C6F0F01075104018D6FD6505A
:104080008A6FD7508B6F8C510F01061905E104011F
:104090008D510F0107190CE00F01065104018C6FBF
:1040A0000F01075104018D6FD6508A6FD7508B6F67
:1040B0008DC4E9FF8CC4F4FF8BC4F3FF04018A5163
:1040C000120000C0E5FF01C0E5FF0A0165510A01C9
:1040D0006E1905E00A0165510A01641902E1E86AF6
:1040E00015D065CA00F00A01652B016A600E002632
:1040F000000E012200C0E9FF01C0EAFFEFCF00F08F
:104100006551800A02E10A01656B0050E4CF01F0BD
:10411000E4CF00F0120000C0E5FFFBEC23F0040147
:10412000896B806B8983006A89B3002A0050010B78
:10413000E844F46E8051FD0BF410806FD58ED59C51
:10414000D59AD588D596D594D582D580F28AF18432
:10415000D08EF28EF28CBA80FF0EBB68BA84E4CFA8
:1041600000F01200D9CFE5FFE1CFD9FF00C0E5FF95
:10417000020EDBCF00F0030EDBCFA8FF00C0A9FFCB
:10418000A69EA69CA684F29EF29C550EA76EAA0E31
:10419000A76EA682A6A202D00000FCD7E86AA6B647
:1041A000E82AA694F28EF28CE4CF00F0E4CFD9FF97
:1041B0001200D9CFE5FFE1CFD9FF00C0E5FF01C074
:1041C000E5FF020EDBCF00F00050020DF450016E4F
:1041D000F3CF00F0200E00260A0E012200C0E9FFF6
:1041E00001C0EAFFEECF00F0EFCF01F001C0F3FF16
:1041F0000050E4CF01F0E4CF00F0E4CFD9FF12008B
:10420000D9CFE5FFE1CFD9FF00C0E5FF01C0E5FF51
:10421000020EDBCF00F00050020DF450016EF3CF20
:1042200000F0E00E0026000E012200C0E9FF01C0F0
:10423000EAFFEECF00F0EFCF01F001C0F3FF005036
:10424000E4CF01F0E4CF00F0E4CFD9FF1200D9CFE2
:10425000E5FFE1CFD9FF00C0E5FF01C0E5FF02C0E7
:10426000E5FF020EDBCF00F034CF01F035CF02F0D6
:104270000F01343F01D0352B0050E56E0150E56E43
:10428000B2EC20F0E652E652E4CF02F0E4CF01F0C7
:10429000E4CF00F0E4CFD9FF1200D8CFE5FFE0CFA4
:1042A000E5FFE56EF3CFE5FFF4CFE5FFE9CFE5FFEE
:1042B000EACFE5FFFACFE5FFFBCFE5FF09EC11F010
:1042C000E4CFFBFFE4CFFAFFE4CFEAFFE4CFE9FF5E
:1042D000E4CFF4FFE4CFF3FFE450E4CFE0FFE4CF1A
:1042E000D8FF1000E8AE0AD0F3CFEAFFEE50EECFD1
:1042F000F3FFEECFF4FFEECFE9FF1200E8BC14EFBE
:1043000024F0E9CFF6FFF3CFF7FFF86E0900F55080
:104310000900F5CFF3FF0900F5CFF4FF0900F5CF51
:10432000E9FF120000C0E5FF01C0E5FF0F010851E1
:104330000F01091902E1E86A0FD0000E0F010925EB
:10434000006E016A070E012200C0E9FF01C0EAFF0A
:10435000EFCF00F0092B0050E4CF01F0E4CF00F0E4
:1043600012000F0102510EE10F010151E56E0F0124
:104370000051E56EA7EC1CF0E652E652010E0F016B
:10438000026F0CD00F010051E56E0F010151E56E77
:10439000A7EC1CF0E652E6520F01026B1200F2CFBE
:1043A000EAFFF29EA69EA69CA684E9CFA9FFF3CFC2
:1043B000AAFFE4CFA8FFD3EC23F0F4CFA8FFD3ECFF
:1043C00023F0F6CFA8FFD3EC23F0F7CFA8FFD3EC70
:1043D00023F0A694EABEF28E1200F2CFF6FFF29E10
:1043E000A69EA69CE9CFA9FFF3CFAAFFA680A8505E
:1043F000A94AAA2AA680A8CFF3FFA94AAA2AA6807A
:10440000A8CFF4FFA94AAA2AA680A8CFEAFFF6BE41
:10441000F28E1200E8AE08D0F3CFEAFFEE50EECFF6
:10442000F3FFEECFF4FF1200E8BC16EF24F0E9CF63
:10443000F6FFF3CFF7FFF86E0900F5500900F5CF4E
:10444000F3FF0900F5CFF4FF1200F2CFEAFFF29E6E
:10445000A69EA69CA684E9CFA9FFF3CFAAFFE4CF2E
:10446000A8FFD3EC23F0F4CFA8FFD3EC23F0F6CFD2
:10447000A8FFD3EC23F0A694EABEF28E1200D9CFA7
:10448000E5FFE1CFD9FF00C0E5FF020EDBCF00F072
:1044900000C00CFF0050E56E000EE56AB2EC20F0A3
:1044A000E652E652E4CF00F0E4CFD9FF1200F2CF9B
:1044B000F6FFF29EA69EA69CE9CFA9FFF3CFAAFF26
:1044C000A680A850A94AAA2AA680A8CFF3FFA94A85
:1044D000AA2AA680A8CFF4FFF6BEF28E120000C072
:1044E000E5FF01C0E5FF600E0A016525006E016A67
:1044F000000E012200C0E9FF01C0EAFFEFCF00F08B
:104500000050E4CF01F0E4CF00F01200D9CFE5FF76
:10451000E1CFD9FF00C0E5FF020EDBCF00F0610E56
:10452000005C05E37B0E005C02E2010E01D0E86A4C
:10453000E4CF00F0E4CFD9FF120000C0E5FF01C0D6
:10454000E5FF34CF00F035CF01F00F01343F01D04B
:10455000352B0050E56E71EC23F0E652E4CF01F00C
:10456000E4CF00F01200D9CFE5FFE1CFD9FF00C0C2
:10457000E5FF020EDBCF00F000C00BFF005004E1AE
:104580007FEC23F09D9A9D98E4CF00F0E4CFD9FF13
:104590001200E8AE06D0F3CFEAFFEE50EECFF3FF05
:1045A0001200E8BC12EF24F0E9CFF6FFF3CFF7FFDB
:1045B000F86E0900F5500900F5CFF3FF1200F2CFB5
:1045C000EAFFF29EA69EA69CA684E9CFA9FFF3CFA0
:1045D000AAFFE4CFA8FFD3EC23F0F4CFA8FFD3ECDD
:1045E00023F0A694EABEF28E120018EEFFF028EE39
:1045F000FFF0F86AA68EA69CE9680E0EEA6E0068C7
:10460000000EED6A0050FDE10EEC1CF006EC00F02F
:10461000FFD7F2CFF6FFF29EA69EA69CE9CFA9FF98
:10462000F3CFAAFFA680A850A94AAA2AA680A8CF9D
:10463000F3FFF6BEF28E1200000000C83200000048
:104640000000FF0000000000000200000042000027
:10465000000000000000000000000000F2CFEAFFB0
:10466000F29EA69EA69CA684E9CFA9FFF3CFAAFF3F
:10467000E4CFA8FFD3EC23F0A694EABEF28E12009A
:10468000E8AE04D0F3CFEAFFEE501200E8BC10EF22
:1046900024F0E9CFF6FFF3CFF7FFF86E0900F550ED
:1046A0001200E8AE0BD0F3CFEAFFE4CFEEFFF4CF79
:1046B000EEFFF6CFEEFFF7CFEEFF1200E8BC0EEFF5
:1046C00024F01200E8AE09D0F3CFEAFFE4CFEEFF0A
:1046D000F4CFEEFFF6CFEEFF1200E8BC18EF24F0A7
:1046E0001200D9CFE5FFE1CFD9FF020EDBCFA9FF42
:1046F000A69CA69EA680A850E4CFD9FF1200ACA22B
:10470000FED78B80AE500000AE50AB98AB88AB8626
:104710009D8A9D98120025642000F2CFF6FFF29E3C
:10472000A69EA69CE9CFA9FFF3CFAAFFA680A8501A
:10473000F6BEF28E1200E8AE07D0F3CFEAFFE4CF68
:10474000EEFFF4CFEEFF1200E8BC0CEF24F01200F5
:10475000700ED36E9B8CFF0E926893689468966877
:10476000626AF19E120000C0E5FFA2EC1EF0006E2E
:10477000005001E1FF00E4CF00F01200E8AE05D0E8
:10478000F3CFEAFFE4CFEEFF1200E8BC0AEF24F01B
:104790001200D9CFE5FFE1CFD9FF020EDBCF11FF29
:1047A000E4CFD9FF1200550EA76EAA0EA76EA682FF
:1047B000A6B2FED7A94AAA2A010E04017F6F1C0ED9
:1047C0000F01346F356B120004017F6B1C0E0F015B
:1047D000346F356B1200010038460000000F0000F6
:1047E000230000008BEC20F0DCEC1FF01200ACA2E8
:1047F000FED7AD6E1200A8EC23F012000A0165513D
:1048000012000A016F5112000F010B511200E8CF84
:104810007FFF12002EEF23F0DFEF22F0CFEF21F029
:104820008DEF23F009EF23F0EDEF21F057EF22F0A9
:0448300025EF22F05E
:00000001FF
