:020000040000FA
:10000000BBEF18F0C96E120008EF15F040EC15F0C8
:1000100013EC13F0FDD7120031EF17F0D9CFE5FF45
:10002000E1CFD9FF00C0E5FF01C0E5FF02C0E5FF59
:1000300003C0E5FF04C0E5FF05C0E5FF06C0E5FF1E
:1000400007C0E5FF08C0E5FF09C0E5FF0AC0E5FFFE
:100050000BC0E5FF0CC0E5FF0DC0E5FF0EC0E5FFDE
:100060000FC0E5FF10C0E5FF11C0E5FF12C0E5FFBE
:1000700013C0E5FF14C0E5FF15C0E5FF16C0E5FF9E
:1000800017C0E5FF18C0E5FF19C0E5FF1AC0E5FF7E
:100090001BC0E5FF1CC0E5FF1DC0E5FF1EC0E5FF5E
:1000A000020EDBCF00F0030EDBCF01F0040EDBCF3E
:1000B00002F0050EDBCF03F0060EDBCF04F0070ED7
:1000C000DBCF05F0080EDBCF06F0090EDBCF07F023
:1000D0000A0EDBCF08F0096A0A6A02C00DF00D5063
:1000E000800A0DE102500401366F0150356F005057
:1000F000346F040E016E340E006E800E026E03C06B
:10010000E9FF04C0F3FF0550F4EC18F00B6E0B5040
:10011000D8B4FCEF03F00B50250A02E0E3EF03F044
:100120000C6A0D6A0E6A0F6A106A0A0E116E126A64
:10013000136A146A200E156E1668176A2B0E186E55
:10014000032A02E3044A052A03C0E9FF04C0F3FFBF
:100150000550F4EC18F0196E250A13E11950E56EFC
:100160000250E56E0150E56E0050E56EC6EC0EF0F3
:10017000040EE126094A0A2A032A02E3044A052A50
:10018000BED71950300A06E1300E156E032A02E37D
:10019000044A052A03C0E9FF04C0F3FF0550F4EC4C
:1001A00018F02D0A06E1010E146E032A02E3044A38
:1001B000052A03C0E9FF04C0F3FF0550F4EC18F072
:1001C000200A08E1010E176E200E186E032A02E3C2
:1001D000044A052A03C0E9FF04C0F3FF0550F4EC0C
:1001E00018F02B0A06E1010E176E032A02E3044AF7
:1001F000052A03C0E9FF04C0F3FF0550F4EC18F032
:10020000196E800F4F0F2DE31950800F460F29E212
:1002100003C019F004C01AF005C01BF019C0E9FFB3
:100220001AC0F3FF1B50F4EC18F01C6E800F500F37
:1002300012E31C50800F460F0EE213500A0DF3CF4D
:100240001DF01D501C26D00E1C24136E192A02E32B
:100250001A4A1B2AE3D719C003F01AC004F01BC0C6
:1002600005F003C0E9FF04C0F3FF0550F4EC18F0FB
:100270002E0A2EE1032A02E3044A052A166A03C065
:1002800019F004C01AF005C01BF019C0E9FF1AC02C
:10029000F3FF1B50F4EC18F01C6E800F500F12E3AC
:1002A0001C50800F460F0EE216500A0DF3CF1DF0C2
:1002B0001D501C26D00E1C24166E192A02E31A4A61
:1002C0001B2AE3D719C003F01AC004F01BC005F0C5
:1002D00003C0E9FF04C0F3FF0550F4EC18F0196EF9
:1002E0006C0A07E1010E0C6E032A02E3044A052A98
:1002F00009D01950680A06E1010E0E6E032A02E3C6
:10030000044A052A03C0E9FF04C0F3FF0550F4ECDA
:1003100018F0750A06E1010E106E032A02E3044A82
:10032000052A03C0E9FF04C0F3FF0550F4EC18F000
:10033000196E730A05E1010E0D6E200E156E3FD089
:100340001950780A03E1100E116E39D01950580A6D
:1003500005E1100E116E010E126E31D01950630AB4
:1003600002E1116A2CD019506F0A03E1080E116ED8
:1003700026D01950660A03E1010E0F6E20D01950E5
:10038000640A1DE01950690A1AE0105005E0FF0EDA
:1003900003260422052213D01950E56E0250E56EA3
:1003A0000150E56E0050E56EC6EC0EF0040EE1263D
:1003B000094A0A2A032A02E3044A052AA0D60D5054
:1003C00021E00650030F0D6E000E0720196E000E7F
:1003D00008201A6E0DC006F019C007F01AC008F008
:1003E000FD0E0D26FF0E19221A220DC0E9FF19C0BD
:1003F000F3FF1A50D0EC17F00D6EF3CF19F0F4CFD5
:100400001AF032D10F50D8B43ED00650040F0F6E00
:10041000000E07201B6E000E08201C6E0FC006F099
:100420001BC007F01CC008F0FC0E0F26FF0E1B229D
:100430001C220FC0E9FF1BC0F3FF1C5056EC17F045
:100440000F6EF3CF1BF0F4CF1CF0E9CF1DF0040EBC
:10045000196E000E0D6E800E1A6E1650E56E240E8B
:10046000E56E040EE56E000EE56E1D50E56E1C5047
:10047000E56E1B50E56E0F50E56E17EC09F0080EA7
:10048000E1261668F1D016680C5023E00650040FE0
:100490000C6E000E07200F6E000E08201B6E0CC0A5
:1004A00006F00FC007F01BC008F0FC0E0C26FF0E74
:1004B0000F221B220CC0E9FF0FC0F3FF1B5056ECAC
:1004C00017F00C6EF3CF0FF0F4CF1BF0E9CF1CF058
:1004D0006AD00E5032E00650020F0E6E000E07205A
:1004E0001D6E000E08201E6E0EC006F01DC007F027
:1004F0001EC008F0FE0E0E26FF0E1D221E220EC08C
:10050000E9FF1DC0F3FF1E508FEC18F00E6E0EC0F9
:100510000CF0E86A0EBEFF0E0F6E1B6E1C6E1150C3
:100520000A0A03E11050D8B43ED00C500E6E0EC033
:100530000CF00F6A1B6A1C6A36D00650020F0E6E52
:10054000000E07201D6E000E08201E6E0EC006F065
:100550001DC007F01EC008F0FE0E0E26FF0E1D2265
:100560001E220EC0E9FF1DC0F3FF1E508FEC18F0D5
:100570000E6EF3CF1DF00EC00CF01DC00FF0E86A38
:100580001DBEFF0E1B6E1C6E11500A0A02E11050B8
:100590000AE00C500E6E0F501D6E0EC00CF01DC008
:1005A0000FF01B6A1C6A040E196E010E0D6E800E90
:1005B0001A6E1150D8B440D0105013E01150E56EAF
:1005C000040EE56E010EE56E1C50E56E1B50E56EE7
:1005D0000F50E56E0C50E56E2BEC0BF0070EE1268C
:1005E00012D01150E56E040EE56E010EE56E1C5042
:1005F000E56E1B50E56E0F50E56E0C50E56E0BEC92
:1006000011F0070EE12617502FE00DC0E9FF19C0C9
:10061000F3FF1A50F4EC18F02D0A26E0FF0E0D2619
:1006200019221A2218C0E5FF0DC0E9FF19C0F3FF17
:100630001A5072EC19F018D00CC0E5FF0DC0E9FF9C
:1006400019C0F3FF1A5072EC19F00D50010F0C6E27
:10065000000E19200E6E000E1A20E56A0CC0E9FF8C
:100660000EC0F3FF72EC19F00DC00CF019C00EF0C3
:100670001AC00FF013C010F0105010E00CC0E9FFCA
:100680000EC0F3FF0F50F4EC18F0176E175006E091
:100690000C2A02E30E4A0F2A1006EED710C013F000
:1006A00014501EE109C00CF00AC00EF010C00FF08B
:1006B0000F5010E01550E56E0250E56E0150E56EEA
:1006C0000050E56EC6EC0EF0040EE1260C4A0E2A30
:1006D0000F06EED70CC009F00EC00AF00FC013F0E1
:1006E00016C00CF00DC00DF019C00EF01AC00FF0BE
:1006F00009C010F00AC015F00DC0E9FF0EC0F3FFED
:100700000F50F4EC18F0166E1650D8B43ED00CC052
:1007100016F0176A161E171E1650171005E00CC0AB
:1007200016F00C06165031E00DC0E9FF0EC0F3FFC5
:100730000F50F4EC18F0116E125010E01150E56EED
:100740004CEC18F0166EE652165004E01150166E7E
:10075000169A02D011C016F016C011F01150E56EB5
:100760000250E56E0150E56E0050E56EC6EC0EF0ED
:10077000040EE1260D2A02E30E4A0F2A104A152A1A
:100780001350D8B4B9D71306B7D710C009F015C0A5
:100790000AF014502BE010C00CF015C00DF013C07F
:1007A0000EF00E501FE0200EE56E0250E56E015077
:1007B000E56E0050E56EC6EC0EF0040EE1260C4A24
:1007C0000D2A0E06EED70B50E56E0250E56E015075
:1007D000E56E0050E56EC6EC0EF0040EE126094A07
:1007E0000A2A04D00CC009F00DC00AF0032A02E363
:1007F000044A052A7FEF00F00AC0F3FF0950E4CF56
:100800001EF0E4CF1DF0E4CF1CF0E4CF1BF0E4CFEA
:100810001AF0E4CF19F0E4CF18F0E4CF17F0E4CFEA
:1008200016F0E4CF15F0E4CF14F0E4CF13F0E4CFEA
:1008300012F0E4CF11F0E4CF10F0E4CF0FF0E4CFEA
:100840000EF0E4CF0DF0E4CF0CF0E4CF0BF0E4CFEA
:100850000AF0E4CF09F0E4CF08F0E4CF07F0E4CFEA
:1008600006F0E4CF05F0E4CF04F0E4CF03F0E4CFEA
:1008700002F0E4CF01F0E4CF00F0E4CFD9FF1200A2
:1008800005C0E5FF06C0E5FF07C0E5FF08C0E5FFBE
:1008900009C0E5FF0AC0E5FF0BC0E5FF0CC0E5FF9E
:1008A0000DC0E5FF0EC0E5FF0FC0E5FF10C0E5FF7E
:1008B00011C0E5FF12C0E5FF13C0E5FF14C0E5FF5E
:1008C00015C0E5FF16C0E5FF17C0E5FF18C0E5FF3E
:1008D00019C0E5FF1AC0E5FF1BC0E5FF1CC0E5FF1E
:1008E0001DC0E5FF000E00B0050F066AF60F02E31B
:1008F000062AFCD70A0F056E042E03D0FB0F01E376
:10090000062A065000B0020F00B2050F076AF60F64
:1009100002E3072AFCD70A0F066E042E03D0FB0F52
:1009200001E3072A075000B0060F00B2020F00B41F
:10093000050F086AF60F02E3082AFCD70A0F076EB4
:10094000042E03D0FB0F01E3082A085000B2010F68
:1009500000B4020F00B6050F096AF60F02E3092A78
:10096000FCD70A0F086E042E03D0FB0F01E3092AFF
:10097000095000B0090F00B2080F00B4060F00B60E
:10098000020F00B8050F0A6AF60F02E30A2AFCD725
:100990000A0F096E042E03D0FB0F01E30A2A0A5046
:1009A00000B0030F00B2070F00B4050F00B6010F2F
:1009B00000B8020F00BA050F0B6AF60F02E30B2A0C
:1009C000FCD70A0F0A6E042E03D0FB0F01E30B2A9B
:1009D0000B5000B0050F00B4010F00B6030F00B8B4
:1009E000060F00BA020F00BC050F0C6AF60F02E3F7
:1009F0000C2AFCD70A0F0B6E042E03D0FB0F01E369
:100A00000C2A0C5000B0070F00B2050F00BA010FFE
:100A100000BC020F00BE050F0D6AF60F02E30D2A9F
:100A2000FCD70A0F0C6E042E03D0FB0F01E30D2A36
:100A30000D5000B0070F00B2050F00B4010F00B653
:100A4000020F00B8040F00BA080F00BC060F00BE6A
:100A5000020F01B0050F0E6AF60F02E30E2AFCD753
:100A60000A0F0D6E042E03D0FB0F01E30E2A0E5069
:100A700000B0040F00B2090F00B4090F00B6080F50
:100A800000B8060F00BA020F00BC050F00BE010F30
:100A900001B0020F01B2050F0F6AF60F02E30F2A31
:100AA000FCD70A0F0E6E042E03D0FB0F01E30F2AB2
:100AB0000F5000B0040F00B2080F00B4070F00B6CB
:100AC000050F00B8010F00BA030F00BC060F00BEEF
:100AD000030F01B0060F01B2020F01B4050F106A37
:100AE000F60F02E3102AFCD70A0F0F6E042E03D074
:100AF000FB0F01E3102A105000B0060F00B2020FE6
:100B000000B4050F00B6010F00B8030F00BA060FBE
:100B100000BC020F00BE050F01B2010F01B4020FAD
:100B200001B6050F116AF60F02E3112AFCD70A0F6E
:100B3000106E042E03D0FB0F01E3112A115000B0F8
:100B4000040F00B2090F00B4080F00B6070F00B879
:100B5000040F00BA080F00BC070F00BE040F01B05D
:100B6000090F01B2080F01B4060F01B6020F01B858
:100B7000050F126AF60F02E3122AFCD70A0F116E54
:100B8000042E03D0FB0F01E3122A125000B4010F10
:100B900000B6030F00B8070F00BA040F00BC090F1E
:100BA00000BE090F01B0080F01B2070F01B4050F15
:100BB00001B6010F01B8020F01BA050F136AF60F53
:100BC00002E3132AFCD70A0F126E042E03D0FB0F88
:100BD00001E3132A135000B0060F00B2020F00B455
:100BE000040F00B6080F00B8060F00BA030F00BCD0
:100BF000060F00BE030F01B0070F01B2050F01B4CD
:100C0000010F01B6030F01B8060F01BA020F01BCB4
:100C1000050F146AF60F02E3142AFCD70A0F136EAD
:100C2000042E03D0FB0F01E3142A145000B0090F67
:100C300000B2090F00B4080F00B6060F00B8030F8A
:100C400000BA070F00BC040F00BE090F01B0080F67
:100C500001B2070F01B4050F01BA010F01BC020F69
:100C600001BE050F156AF60F02E3152AFCD70A0F1D
:100C7000146E042E03D0FB0F01E3152A155000B0AB
:100C8000050F00B2010F00B4030F00B6070F00B844
:100C9000050F00BC010F00BE020F01B0050F01B22D
:100CA000010F01B4030F01B6070F01B8040F01BA19
:100CB000080F01BC060F01BE020F02B0050F166A35
:100CC000F60F02E3162AFCD70A0F156E042E03D086
:100CD000FB0F01E3162A165000B2010F00B4020FF9
:100CE00000B6040F00B8090F00BA090F00BC080FC6
:100CF00000BE060F01B0020F01B2050F01B8010FCF
:100D000001BA020F01BC050F01BE010F02B0020FB4
:100D100002B2050F176AF60F02E3172AFCD70A0F73
:100D2000166E042E03D0FB0F01E3172A175000BAEA
:100D3000010F00BC030F00BE070F01B0050F01B487
:100D4000010F01B6020F01B8040F01BA080F01BC70
:100D5000060F01BE030F02B0060F02B2020F02B46B
:100D6000050F186AF60F02E3182AFCD70A0F176E50
:100D7000042E03D0FB0F01E3182A185001B0010F15
:100D800001B2030F01B4060F01B6020F01B8040F40
:100D900001BA080F01BC070F01BE050F02B2010F17
:100DA00002B4020F02B6050F196AF60F02E3192A00
:100DB000FCD70A0F186E042E03D0FB0F01E3192A8B
:100DC000195001B6010F01B8020F01BA040F01BC9E
:100DD000090F01BE090F02B0090F02B2080F02B4D9
:100DE000060F02B6020F02B8050F1A6AF60F02E3E9
:100DF0001A2AFCD70A0F196E042E03D0FB0F01E349
:100E00001A2A1A5001BE010F02B0030F02B2070FD7
:100E100002B4050F02B6010F02B8020F02BA050FA5
:100E20001B6AF60F02E31B2AFCD70A0F1A6E042E68
:100E300003D0FB0F01E31B2A1B5002B4010F02B6C3
:100E4000030F02B8060F02BA020F02BC050F1C6A9C
:100E5000F60F02E31C2AFCD70A0F1B6E042E03D0E8
:100E6000FB0F01E31C2A1C5002BA010F02BC020F47
:100E700002BE050F1D6AF60F02E31D2AFCD70A0FFA
:100E80001C6E042E03D0FB0F01E31D2A300FEE6E03
:100E90001B50300FEE6E1A50300FEE6E1950300F9F
:100EA000EE6E1850300FEE6E1750300FEE6E16507B
:100EB000300FEE6E1550300FEE6E1450300FEE6E98
:100EC0001350300FEE6E1250300FEE6E1150300F87
:100ED000EE6E1050300FEE6E0F50300FEE6E0E5063
:100EE000300FEE6E0D50300FEE6E0C50300FEE6E78
:100EF0000B50300FEE6E0A50300FEE6E0950300F6F
:100F0000EE6E0850300FEE6E0750300FEE6E06504A
:100F1000300FEE6E0550300FEE6E170EE4CF1DF061
:100F2000E4CF1CF0E4CF1BF0E4CF1AF0E4CF19F0CB
:100F3000E4CF18F0E4CF17F0E4CF16F0E4CF15F0CB
:100F4000E4CF14F0E4CF13F0E4CF12F0E4CF11F0CB
:100F5000E4CF10F0E4CF0FF0E4CF0EF0E4CF0DF0CB
:100F6000E4CF0CF0E4CF0BF0E4CF0AF0E4CF09F0CB
:100F7000E4CF08F0E4CF07F0E4CF06F0E4CF05F0CB
:100F8000120000C0E5FF01C0E5FF02C0E5FF03C09D
:100F9000E5FF04C0E5FF05C0E5FF06C0E5FF07C0AB
:100FA000E5FF08C0E5FF09C0E5FF0AC0E5FF0BC08B
:100FB000E5FF0CC0E5FF0DC0E5FF0EC0E5FF000E2C
:100FC00000B0010F00B2020F00B4040F00B6080F0A
:100FD00000B8060F00BA020F00BC040F00BE080FD5
:100FE00001B0060F01B2020F01B4040F01B6080FE1
:100FF00001B8060F01BA020F01BC040F01BE080FB1
:1010000002B0060F02B2020F02B4040F02B6080FBC
:1010100002B8060F02BA020F02BC040F02BE080F8C
:10102000056AF60F02E3052AFCD70A0F046E055085
:1010300000B8010F00BA030F00BC060F00BE020F7C
:1010400001B0050F01B2010F01B4020F01B6040F88
:1010500001B8090F01BA090F01BC080F01BE060F44
:1010600002B0030F02B2070F02B4040F02B6080F5A
:1010700002B8070F02BA050F066AF60F02E3062A46
:10108000FCD70A0F056E065000BE010F01B0020F1B
:1010900001B2050F01BA010F01BC030F01BE070F1A
:1010A00002B0050F02B4010F02B6020F02B8050F1D
:1010B00002BA010F02BC030F02BE060F076AF60F49
:1010C00002E3072AFCD70A0F066E075001B4010F8E
:1010D00001B6020F01B8040F01BA080F01BC060FD8
:1010E00001BE020F02B0050F02B2010F02B4020FDF
:1010F00002B6040F02B8080F02BA070F02BC040FB1
:1011000002BE080F086AF60F02E3082AFCD70A0F8E
:10111000076E085001BC010F01BE030F02B0060F9D
:1011200002B2030F02B4060F02B6020F02B8040F98
:1011300002BA090F02BC090F02BE080F096AF60FB6
:1011400002E3092AFCD70A0F086E095002B2010F08
:1011500002B4020F02B6050F02BC010F02BE030F5C
:101160000A6AF60F02E30A2AFCD70A0F096E0A5030
:1011700002B8010F02BA020F02BC040F02BE080F30
:101180000B6AF60F02E30B2AFCD70A0F0A6E0B500C
:101190000E6A0EE10A5010E1095012E1085014E104
:1011A000075016E1065018E105501AE104501CD012
:1011B0000E2A300FEE6E0A500E2A300FEE6E0950D6
:1011C0000E2A300FEE6E08500E2A300FEE6E0750CA
:1011D0000E2A300FEE6E06500E2A300FEE6E0550BE
:1011E0000E2A300FEE6E04500E2A300FEE6E0E50A7
:1011F000E4CF0EF0E4CF0DF0E4CF0CF0E4CF0BF031
:10120000E4CF0AF0E4CF09F0E4CF08F0E4CF07F030
:10121000E4CF06F0E4CF05F0E4CF04F0E4CF03F030
:10122000E4CF02F0E4CF01F0E4CF00F01200D9CF18
:10123000E5FFE1CFD9FF00C0E5FF01C0E5FF02C037
:10124000E5FF03C0E5FF04C0E5FF05C0E5FF06C0FC
:10125000E5FF07C0E5FF08C0E5FF09C0E5FF0AC0DC
:10126000E5FF0BC0E5FF020EDBCF00F0030EDBCF86
:1012700001F0040EDBCF02F0050EDBCF03F0060E0B
:10128000DBCF04F0070EDBCF05F0080EDBCF06F056
:10129000090EDBCF07F006C008F0060608500EE086
:1012A00006500424086EE86A06BEE8680520096E48
:1012B00008C0E9FF09C0EAFFEF6AEDD7005004015A
:1012C0008E6F01508F6F0250906F0350916F8EC4DC
:1012D00000F08FC401F090C402F091C403F0066ADC
:1012E000086A096A800E03140A6E065007E1085066
:1012F00005E1095003E10A50800A01E012D0039E83
:10130000005004018E6F01508F6F0250906F035098
:10131000916F04C0E9FF05C0EAFF2D0EEF6E044A8D
:10132000052A0401903591357E08006E8E51016EBC
:101330008F51026E7F0E9015036E066A038E086A47
:10134000096A0A6A0B6A005019E0D88000AED8908A
:101350000EE30850082609360A360B3603BE08800D
:1013600001500126023603360636002AECD7D89003
:1013700006320332023201320006E5D70850091066
:101380000A100B1012E00550E56E0450E56E0B508C
:10139000E56E0A50E56E0950E56E0850E56E3EECCC
:1013A00016F0006E060EE12608D004C0E9FF05C065
:1013B000EAFF300EEF6E010E006E00500426E86A60
:1013C00000BEE8680522075028E004C0E9FF05C018
:1013D000EAFF2E0EEF6E002A044A052A075018086D
:1013E000E56E0550E56E0450E56E0650E56E03505F
:1013F000E56E0250E56E0150E56EABEC15F0016E46
:10140000070EE1260150002607500426E86A05224F
:1014100004C0E9FF05C0EAFFEF6A0050E4CF0BF01B
:10142000E4CF0AF0E4CF09F0E4CF08F0E4CF07F00E
:10143000E4CF06F0E4CF05F0E4CF04F0E4CF03F00E
:10144000E4CF02F0E4CF01F0E4CF00F0E4CFD9FF25
:10145000120000C0E5FF01C0E5FF04012A51D8B425
:10146000F5D09DA81DD09EA81BD00F012E510F01B5
:101470002B1905E133EC19F00F012B6BE7D0000EAF
:101480000F012E25006E016A0F0E012200C0E9FF38
:1014900001C0EAFFEFCF27FF2E2B27CFADFFD6D01D
:1014A0009EAAD4D0ABA205D00F012C8133EC19F049
:1014B000CDD0ABA405D00F012C8333EC19F0C6D0EE
:1014C000ABA03ED0AECF27FF800E04012B110F0141
:1014D000271904E10F012C89AB96B8D00F012751D1
:1014E00004E0275104012B1927E10F012C99AB9639
:1014F0000F01275103E00F012C9702D00F012C8719
:1015000027CF30FF29CF31FF0F0129050F01326F9F
:10151000600E0F013125006E016A000E012200C02D
:10152000E9FF01C0EAFF27CFEFFF312B3151800ADD
:1015300002E10F01316B8AD00F012C99AB8686D066
:10154000AECF27FF0F012CA919D0800E04012B115B
:101550000F01271911E18B909D9AAB980F012B5128
:1015600004E1AD6A33EC19F007D000CFADFF010EF6
:101570000F012E6F9D886AD0AB8668D00F0127516E
:101580000F0130270F0131510F0132191BE10F01FB
:1015900030510CE131CF29FF0F012CB712D08B90C5
:1015A0009D9AAB98AD6A33EC19F00BD00F012C85E6
:1015B0002CB707D08B909D9AAB98010EAD6E33EC93
:1015C00019F044D00F0131510F012A1908E10F0120
:1015D0002A510F01291903E033EC19F037D029CF34
:1015E00000F0016A004A012AE56A800EE56E0150AA
:1015F000E56E0050E56ECAEC0FF0006E040EE126B9
:1016000000500F01286F0F0131190CE11F0E0F015F
:1016100027150F01326F322B322B0F0129510F0189
:101620003227329F31CF00F00F01312B016A600E5B
:101630000026000E012200C0E9FF01C0EAFF27CF0B
:10164000EFFF3151800A02E10F01316BE4CF01F06D
:10165000E4CF00F01200D9CFE5FFE1CFD9FF00C001
:10166000E5FF01C0E5FF02C0E5FF03C0E5FF04C0E0
:10167000E5FF05C0E5FF06C0E5FF07C0E5FF08C0C0
:10168000E5FF09C0E5FF0AC0E5FF0BC0E5FF0CC0A0
:10169000E5FF0DC0E5FF0EC0E5FF0FC0E5FF020E40
:1016A000DBCF00F0030EDBCF01F0040EDBCF02F046
:1016B000050EDBCF03F0060EDBCF04F0070EDBCF09
:1016C00005F0080EDBCF06F0200E076E086A06C094
:1016D00009F00A6A0B6A0C6AE56AE56AE56A09506C
:1016E000E56E0350E56E0250E56E0150E56E005068
:1016F000E56E07EC0CF00D6E080EE126300E0D269F
:101700003A0E0D5C05E30D500E6E270E0E240D6E85
:10171000FF0E07260822E00E07240E6E000E08209A
:101720000F6E0EC0E9FF0FC0EAFF0DC0EFFF0C50B7
:10173000E56E0B50E56E0A50E56E0950E56E0350FC
:10174000E56E0250E56E0150E56E0050E56E27EC47
:101750000DF0006EF3CF01F0F4CF02F0E9CF03F00B
:10176000080EE1260050011002100310D8A4AFD7D4
:1017700007C000F008C001F004C002F005C003F08B
:1017800000C004F001C005F0004A012AE00E042662
:10179000000E052204C0E9FF05C0EAFFEFCF04F008
:1017A00002C0E9FF03C0EAFF04C0EFFF024A032AB8
:1017B000000E015C02E1200E005CE2E302C0E9FFE2
:1017C00003C0EAFF000EEF6AE4CF0FF0E4CF0EF0A3
:1017D000E4CF0DF0E4CF0CF0E4CF0BF0E4CF0AF04F
:1017E000E4CF09F0E4CF08F0E4CF07F0E4CF06F04F
:1017F000E4CF05F0E4CF04F0E4CF03F0E4CF02F04F
:10180000E4CF01F0E4CF00F0E4CFD9FF1200D9CF4C
:10181000E5FFE1CFD9FF00C0E5FF01C0E5FF02C051
:10182000E5FF03C0E5FF04C0E5FF05C0E5FF06C016
:10183000E5FF07C0E5FF08C0E5FF09C0E5FF0AC0F6
:10184000E5FF020EDBCF00F0030EDBCF01F0040E4C
:10185000DBCF02F0050EDBCF03F0060EDBCF04F08A
:10186000070EDBCF05F0080EDBCF06F0090EDBCF4D
:1018700007F0086A096A0750800BE8440A6E0A50AC
:101880001BE1045004260536063607360750035C74
:1018900008E10650025C05E10550015C02E10450DC
:1018A000005C06E2D890073206320532043204D0DA
:1018B000092A09C008F0DFD70750035C08E1065089
:1018C000025C05E10550015C02E10450005C08E3A4
:1018D0000450005E0550015A0650025A0750035A40
:1018E000D890073206320532043208C009F00806E3
:1018F0000950E2E103C0E9FF02C0F4FF01C0F3FFB9
:101900000050E4CF0AF0E4CF09F0E4CF08F0E4CFD0
:1019100007F0E4CF06F0E4CF05F0E4CF04F0E4CF25
:1019200003F0E4CF02F0E4CF01F0E4CF00F0E4CF25
:10193000D9FF120000C0E5FF01C0E5FF03C0E5FFCD
:1019400004C0E5FF05C0E5FF06C0E5FF07C0E5FFF1
:1019500008C0E5FF09C0E5FF0AC0E5FF0BC0E5FFD1
:1019600023CF00F024CF01F00F01233F01D0242B1F
:101970000050E56E25EC19F0E652076E046A056A20
:10198000066A23CF00F024CF01F00F01233F01D0DE
:10199000242B0050E56E25EC19F0E6520B6A0A6E16
:1019A000086A0850041205120A5006120B5007125A
:1019B00023CF00F024CF01F00F01233F01D0242BCF
:1019C0000050E56E25EC19F0E652036E006A03C084
:1019D00001F0E86A03BEFF0E086E096E00500412A3
:1019E00001500512085006120950071223CF00F0CB
:1019F00024CF01F00F01233F01D0242B0050E56ECE
:101A000025EC19F0E652016A041201500512061283
:101A1000071207C0E9FF06C0F4FF05C0F3FF04503A
:101A2000E4CF0BF0E4CF0AF0E4CF09F0E4CF08F004
:101A3000E4CF07F0E4CF06F0E4CF05F0E4CF04F004
:101A4000E4CF03F0E4CF01F0E4CF00F01200D9CFEF
:101A5000E5FFE1CFD9FF00C0E5FF01C0E5FF02C00F
:101A6000E5FF03C0E5FF04C0E5FF05C0E5FF06C0D4
:101A7000E5FF07C0E5FF08C0E5FF09C0E5FF0AC0B4
:101A8000E5FF0BC0E5FF0CC0E5FF0DC0E5FF020E52
:101A9000DBCF00F0030EDBCF01F0040EDBCF02F052
:101AA000050EDBCF03F0060EDBCF04F0070EDBCF15
:101AB00005F0080EDBCF06F0090EDBCF07F0086A51
:101AC000096A0A6A0B6A200E0C6E0350800BE84408
:101AD0000D6E0050002601360236033608500826E7
:101AE00009360A360B360D50D8A4088007500B5C17
:101AF00008E106500A5C05E10550095C02E104506A
:101B0000085C09E30450085E0550095A06500A5A59
:101B100007500B5A00800C2ED8D703C0E9FF02C033
:101B2000F4FF01C0F3FF0050E4CF0DF0E4CF0CF060
:101B3000E4CF0BF0E4CF0AF0E4CF09F0E4CF08F0F3
:101B4000E4CF07F0E4CF06F0E4CF05F0E4CF04F0F3
:101B5000E4CF03F0E4CF02F0E4CF01F0E4CF00F0F3
:101B6000E4CFD9FF120000C0E5FF01C0E5FF02C0CD
:101B7000E5FF03C0E5FF04C0E5FF0F012A510F0197
:101B8000291901E15CD02ACF00F0002A009E600EE6
:101B90000024016E026A000E022201C0E9FF02C0A9
:101BA000EAFFEFCF34FF1F0E0F0134172ACF33FFA8
:101BB00034510F013327332B332B339F93EC16F023
:101BC000016E015003E1016A012A01D0016A93EC20
:101BD00016F00F01346F800E3415026E1F0E34158F
:101BE000036E03C004F003C034FF045003E129CFA7
:101BF0002AFF38D001501BE002501FE093EC16F092
:101C0000006E0F0134070050420A17E000504E0AE0
:101C100003E159EC13F011D00050460A03E167ECE0
:101C200019F00BD00050490A08E1FF0006D02ACF76
:101C300035FF0250D8B4CBEC11F033CF2AFF0401AA
:101C400027510401281906E00F012B5103E13DEC57
:101C50000EF008D08BB006D00F012B5103E1ACB2CF
:101C600033EC19F0E4CF04F0E4CF03F0E4CF02F05A
:101C7000E4CF01F0E4CF00F0120000C0E5FF01C0A6
:101C8000E5FF02C0E5FF03C0E5FFACA276D076EC2D
:101C900017F0006E005005E10401286B0401276B6A
:101CA0006CD028C401F00050012676EC17F0026ECB
:101CB00000060250230A1FE1010E005CD8A05BD091
:101CC00076EC17F0026E690A03E10EEC16F053D0C1
:101CD0000250720A03E133EC19F04DD00250730A3E
:101CE00001E049D08B80AB869D8A9D98AE50AE5066
:101CF000AB98AB8840D00250430A05E00250420A3C
:101D000001E039D001D0008E00C02DFF00500F013E
:101D1000006F010E0F012E6F04012851011814E00D
:101D200076EC17F0026E0F012D27000E0F012E2505
:101D3000006E036A0F0E032200C0E9FF03C0EAFF32
:101D400002C0EFFF2E2BE8D7000E0F012E25006EEC
:101D5000026A0F0E02220F012D1D036E032A00C01E
:101D6000E9FF02C0EAFF03C0EFFF0F012E2B2ECFC9
:101D70002BFF0F01256B01C028F4E4CF03F0E4CF63
:101D800002F0E4CF01F0E4CF00F01200D9CFE5FF7C
:101D9000E1CFD9FF00C0E5FF01C0E5FF02C0E5FFCC
:101DA00003C0E5FF04C0E5FF05C0E5FF06C0E5FF91
:101DB00007C0E5FF020EDBCF00F0030EDBCF01F022
:101DC000040EDBCF02F0050EDBCF03F002C006F0FD
:101DD0000650046E800A33E100C0E9FF01C0F3FF42
:101DE0000250D0EC17F0056EF3CF06F0F4CF07F0F9
:101DF00003C0E5FF05C0E9FF06C0F3FF075072EC22
:101E000019F000C0E9FF01C0F3FF0250D0EC17F059
:101E1000056EF3CF06F0F4CF07F0052A02E3064A79
:101E2000072A05C0E5FF06C0F4FF07C0F6FF00C0A3
:101E3000E9FF01C0F3FF025016EC19F01DD004AA0F
:101E40001BD0047A045004E10350A6EC19F014D01E
:101E50000450010A04E1035002EC00F00DD00450DC
:101E60000F0A04E10350DDEC15F006D004500E0A11
:101E700003E10350B6EC19F0E4CF07F0E4CF06F02D
:101E8000E4CF05F0E4CF04F0E4CF03F0E4CF02F0B8
:101E9000E4CF01F0E4CF00F0E4CFD9FF1200D9CFB6
:101EA000E5FFE1CFD9FF00C0E5FF01C0E5FF02C0BB
:101EB000E5FF03C0E5FF04C0E5FF05C0E5FF06C080
:101EC000E5FF07C0E5FF020EDBCF00F0030EDBCF1E
:101ED00001F0040EDBCF02F0050EDBCF03F028C4C7
:101EE00029F4040127510401295F290703C004F0E4
:101EF000056A030E0426D8B0052A29C406F0076A2D
:101F00000750800FF36E0550800FF35C02E1045020
:101F1000065C02E2E8682BD0020E035C02E2E86A8B
:101F200026D003060350E56E57EC14F0E652046A1F
:101F30000350045C14E204500024056EE86A01209A
:101F4000066EE86A022005C0E9FF06C0F3FFF4EC64
:101F500018F0042AE56E57EC14F0E652E9D728C4CD
:101F600029F4040127510401295F2907E86AE4CF15
:101F700007F0E4CF06F0E4CF05F0E4CF04F0E4CFBF
:101F800003F0E4CF02F0E4CF01F0E4CF00F0E4CFBF
:101F9000D9FF1200D9CFE5FFE1CFD9FF00C0E5FF9F
:101FA00001C0E5FF02C0E5FF03C0E5FF04C0E5FF97
:101FB00005C0E5FF06C0E5FF020EDBCF00F0030E13
:101FC000DBCF01F0040EDBCF02F0050EDBCF03F018
:101FD000D88001AED890046A0436045007E0011C92
:101FE000066E001C056E054A062A04D000C005F0E6
:101FF00001C006F0D88003AED89007E3031C016E41
:10200000021C006E004A012A04D002C000F003C086
:1020100001F00150E56E0050E56E0650E56E05508A
:10202000E56E6EEC11F0006EF3CF01F0040EE126C8
:1020300004500AE0011C036E001C026E024A032ACF
:1020400003C0F3FF025003D001C0F3FF0050E4CF00
:1020500006F0E4CF05F0E4CF04F0E4CF03F0E4CFE2
:1020600002F0E4CF01F0E4CF00F0E4CFD9FF12009A
:10207000D9CFE5FFE1CFD9FF00C0E5FF01C0E5FF03
:1020800002C0E5FF03C0E5FF04C0E5FF05C0E5FFB2
:10209000020EDBCF00F0030EDBCF01F0040EDBCF2E
:1020A00002F0050EDBCF03F023CF04F024CF05F0C0
:1020B0000F01233F01D0242B0350E56E0450E56E41
:1020C000E4EC16F0E652E65223CF04F024CF05F0FC
:1020D0000F01233F01D0242B0250056EE56E045002
:1020E000E56EE4EC16F0E652E65223CF04F024CF7E
:1020F00005F00F01233F01D0242B0150056EE56E42
:102100000450E56EE4EC16F0E652E65223CF04F0FC
:1021100024CF05F00F01233F01D0242B0050E56EA2
:102120000450E56EE4EC16F0E652E652E4CF05F01A
:10213000E4CF04F0E4CF03F0E4CF02F0E4CF01F009
:10214000E4CF00F0E4CFD9FF1200D9CFE5FFE1CF13
:10215000D9FF00C0E5FF01C0E5FF02C0E5FF03C0F5
:10216000E5FF04C0E5FF05C0E5FF06C0E5FF020E80
:10217000DBCF00F0030EDBCF01F0040EDBCF02F06B
:102180000401375119E19AEC0CF0036EF3CF04F01F
:10219000F4CF05F0E9CF06F003C0E5FF04C0F4FF7B
:1021A00005C0F6FF06C0F7FF00C0E9FF01C0F3FF5E
:1021B000025005EC19F01ED004013751010A1AE152
:1021C00000C0E9FF01C0F3FF025056EC17F0006EAB
:1021D000F3CF01F0F4CF02F0E9CF03F00350E56E46
:1021E0000250E56E0150E56E0050E56E38EC10F0DF
:1021F000040EE126E4CF06F0E4CF05F0E4CF04F0CE
:10220000E4CF03F0E4CF02F0E4CF01F0E4CF00F03C
:10221000E4CFD9FF1200D9CFE5FFE1CFD9FF00C04D
:10222000E5FF01C0E5FF02C0E5FF03C0E5FF04C014
:10223000E5FF05C0E5FF06C0E5FF020EDBCF00F0BD
:10224000030EDBCF01F0040EDBCF02F0050EDBCF77
:1022500003F0060EDBCF04F0070EDBCF05F0080E0F
:10226000DBCF06F0D88003AED89015E306500A0AFB
:1022700012E104C0E9FF05C0EAFF2D0EEF6E044A2B
:10228000052A031E021E011E006C05E1012A03E15E
:10229000022AD8B4032A0650E56E0550E56E0450B4
:1022A000E56E0350E56E0250E56E0150E56E00509C
:1022B000E56E2BEC0BF0070EE126E4CF06F0E4CF41
:1022C00005F0E4CF04F0E4CF03F0E4CF02F0E4CF74
:1022D00001F0E4CF00F0E4CFD9FF1200D9CFE5FF41
:1022E000E1CFD9FF00C0E5FF01C0E5FF02C0E5FF77
:1022F00003C0E5FF04C0E5FF05C0E5FF06C0E5FF3C
:10230000020EDBCF00F0030EDBCF01F0040EDBCFBB
:1023100002F0050EDBCF03F0046A056A0350800B60
:10232000E844066E065011E10250022603360350BF
:10233000015C02E10250005C04E2D89003320232F8
:1023400004D0052A05C004F0E9D70350015C02E17E
:102350000250005C04E30250005E0350015AD89022
:102360000332023204C005F004060550EEE101C05C
:10237000F3FF0050E4CF06F0E4CF05F0E4CF04F023
:10238000E4CF03F0E4CF02F0E4CF01F0E4CF00F0BB
:10239000E4CFD9FF120093EC16F0010A01E052D00D
:1023A00093EC16F00401246F800F7F0F02E3898005
:1023B00001D0899004012451800F7E0F02E38982AD
:1023C00001D0899204012451800F7D0F02E389849A
:1023D00001D0899404012451800F7C0F02E3898885
:1023E00001D0899804012451800F7B0F02E38B8672
:1023F00001D08B9604012451800F7A0F02E38B8465
:1024000001D08B9404012451800F790F02E38B8853
:1024100001D08B9804012451800F780F02E38B8A3E
:1024200001D08B9A04012451800F770F02E38A8434
:1024300001D08A9404012451800F760F02E38A862A
:1024400001D08A96120000C0E5FF01C0E5FF02C07E
:10245000E5FF03C0E5FF2ACF00F0016A35CF02F0A7
:10246000036A0250005E0350015AE56A800EE56E71
:102470000150E56E0050E56ECAEC0FF0006E040EE0
:10248000E126000635CF01F0430EDDEC15F0200EFD
:10249000DDEC15F00050800F7F0F20E3600E01246B
:1024A000026E036A000E032202C0E9FF03C0EAFFC6
:1024B000EFCF02F0E56A0250E56E000EE56E320ED7
:1024C000E56E7E0EE56E9BEC13F0050EE126012A0B
:1024D0000150800A01E1016A0006DCD7E4CF03F075
:1024E000E4CF02F0E4CF01F0E4CF00F01200D9CF46
:1024F000E5FFE1CFD9FF00C0E5FF01C0E5FF02C065
:10250000E5FF03C0E5FF04C0E5FF020EDBCF00F0EE
:10251000030EDBCF01F0040EDBCF02F004013751D4
:1025200011E177EC15F0036EF3CF04F003C0E5FF83
:1025300004C0F4FF00C0E9FF01C0F3FF02504FECFC
:1025400019F016D004013751010A12E100C0E9FF69
:1025500001C0F3FF02508FEC18F0006EF3CF01F0D2
:102560000150E56E0050E56E1AEC14F0E652E652AA
:10257000E4CF04F0E4CF03F0E4CF02F0E4CF01F0C5
:10258000E4CF00F0E4CFD9FF12002A0EF66E330E2E
:10259000F76E000EF86E0900F550056E0900F55053
:1025A000066E04E1056702D012EF13F00900F55042
:1025B000006E0900F550016E0900F550026E090029
:1025C0000900F550E96E0900F550EA6E09000900AE
:1025D0000900F550036E0900F550046E090009006A
:1025E000F6CF07F0F7CF08F0F8CF09F000C0F6FFFC
:1025F00001C0F7FF02C0F8FF035002E1045007E0FA
:102600000900F550EE6E0306F8E20406F9D707C09C
:10261000F6FF08C0F7FF09C0F8FF050601E206064D
:10262000D1EF12F0120000C0E5FF01C0E5FF02C0CB
:10263000E5FF03C0E5FFB3EC0DF069EC16F0006EAA
:10264000F3CF01F0F4CF02F0E9CF03F004018151A0
:10265000005E8251015A8351025A8451035A039EEB
:102660003F0E035C08E1FF0E025C05E1FF0E015C1A
:1026700002E1FF0E005C14E269EC16F0F3CF01F00A
:10268000F4CF02F0E9CF03F0880F0401816F130E3D
:102690000120826F000E0220836F000E0320846FE2
:1026A000E4CF03F0E4CF02F0E4CF01F0E4CF00F098
:1026B000120000C0E5FF01C0E5FF02C0E5FF93EC9A
:1026C00016F0006E93EC16F0016E0050026ED00E04
:1026D0000224006E0A0E005C05E30050026EF90E43
:1026E0000224006E0150026ED00E0224016E0A0E0A
:1026F000015C05E30150026EF90E0224016E080E22
:10270000005C12E2100E015CD8B00ED00038F00B65
:102710000124006ECEEC14F0016E015005E1005072
:10272000E56E05EC18F0E652E4CF02F0E4CF01F0DC
:10273000E4CF00F01200D9CFE5FFE1CFD9FF00C010
:10274000E5FF01C0E5FF02C0E5FF020ED924006EDF
:10275000000EDA20016E800E026E030E0026000EBF
:10276000012202220250E56E0150E56E0050E56E36
:10277000040EDBCFE5FF030EDBCFE5FF020EDBCF60
:10278000E5FF04013051E56E2F51E56E2E51E56EE7
:102790000EEC00F0006EF3CF01F0090EE12601C04F
:1027A000F3FF0050E4CF02F0E4CF01F0E4CF00F0FB
:1027B000E4CFD9FF1200D9CFE5FFE1CFD9FF00C0A8
:1027C000E5FF01C0E5FF02C0E5FF03C0E5FF020E23
:1027D000DBCF00F0030EDBCF01F0040EDBCF02F005
:1027E000040137510DE163EC18F0036E03C0E5FFFF
:1027F00000C0E9FF01C0F3FF025072EC19F00FD0E6
:1028000004013751010A0BE100C0E9FF01C0F3FFE9
:102810000250F4EC18F0E56E0BEC17F0E652E4CF42
:1028200003F0E4CF02F0E4CF01F0E4CF00F0E4CF16
:10283000D9FF1200D9CFE5FFE1CFD9FF00C0E5FFF6
:1028400001C0E5FF02C0E5FF03C0E5FF020EDBCFDC
:1028500000F0030EDBCF01F023CF02F024CF03F012
:102860000F01233F01D0242B0150E56E0250E56E8D
:10287000E4EC16F0E652E65223CF02F024CF03F048
:102880000F01233F01D0242B0050E56E0250E56E6E
:10289000E4EC16F0E652E652E4CF03F0E4CF02F0A7
:1028A000E4CF01F0E4CF00F0E4CFD9FF1200D9CF9C
:1028B000E5FFE1CFD9FF00C0E5FF01C0E5FF02C0A1
:1028C000E5FF03C0E5FF04C0E5FF020EDBCF00F02B
:1028D00027C401F0026A014A022A28C403F0046AEC
:1028E0000150031803E10250041801E001D00ED09A
:1028F000000E04012725016E026A070E022201C0A4
:10290000E9FF02C0EAFF00C0EFFF272BE4CF04F08D
:10291000E4CF03F0E4CF02F0E4CF01F0E4CF00F025
:10292000E4CFD9FF1200D9CFE5FFE1CFD9FF00C036
:10293000E5FF01C0E5FF02C0E5FF03C0E5FF020EB1
:10294000DBCF00F0016A35CF02F0036A02500026A7
:1029500003500122E56A800EE56E0150E56E0050DD
:10296000E56ECAEC0FF0006EF3CF01F0040EE12625
:10297000600E0026000E012200C0E9FF01C0EAFF40
:10298000EFCF00F00050E4CF03F0E4CF02F0E4CF4B
:1029900001F0E4CF00F0E4CFD9FF120000C0E5FF62
:1029A00001C0E5FF02C0E5FF010E006E93EC16F0DA
:1029B000016E01C002F0015023E00050E56E25ECED
:1029C00019F0016EE652015010E10A0E005C0BE2B4
:1029D0000A0E006EE56E25EC19F0016EE65201500C
:1029E00004E1E8680ED0E8680CD00150021802E05B
:1029F000E86807D0002A1B0E005CD8E3E86801D025
:102A0000E86AE4CF02F0E4CF01F0E4CF00F0120076
:102A1000F3CFE5FFF4CFE5FFE9CFE5FFEACFE5FF30
:102A2000FACFE5FFFBCFE5FF040125510401876FD5
:102A3000040126510401886FD650856FD750866FE8
:102A4000F2A411D00401253F01D0262BF2940401F9
:102A500025510401876F040126510401886FD65067
:102A6000856FD750866FE4CFFBFFE4CFFAFFE4CF4A
:102A7000EAFFE4CFE9FFE4CFF4FFE4CFF3FF110076
:102A800001C0E5FF02C0E5FF03C0E5FFA1EC19F0BE
:102A9000929089909292899292948994929889982E
:102AA00094968B9694948B9494988B98949A8B9AF2
:102AB00093948A9493968A9669EC16F0F3CF01F07A
:102AC000F4CF02F0E9CF03F0880F0401816F130EF9
:102AD0000120826F000E0220836F000E0320846F9E
:102AE000E4CF03F0E4CF02F0E4CF01F0120000C025
:102AF000E5FF01C0E5FF02C0E5FF03C0E5FF23CF0E
:102B000000F024CF01F00F01233F01D0242B00500F
:102B1000E56E25EC19F0E652036E026A23CF00F051
:102B200024CF01F00F01233F01D0242B0050E56E8C
:102B300025EC19F0E652016A02120150031203C09B
:102B4000F3FF0250E4CF03F0E4CF02F0E4CF01F052
:102B5000E4CF00F01200D9CFE5FFE1CFD9FF00C0EC
:102B6000E5FF01C0E5FF02C0E5FF03C0E5FF04C0CB
:102B7000E5FF020EDBCF00F0030EDBCF01F0040E09
:102B8000DBCF02F0050EDBCF03F0060EDBCFE9FF53
:102B9000070EDBCFEAFF080EDBCF04F040EC04F0B9
:102BA000E4CF04F0E4CF03F0E4CF02F0E4CF01F08F
:102BB000E4CF00F0E4CFD9FF120000C0E5FF01C070
:102BC000E5FF02C0E5FF006E390E04012C25016E01
:102BD000026A040E022201C0E9FF02C0EAFF00C03F
:102BE000EFFF220E2C5D01E22C2B00500A0A0FE1B0
:102BF00004012C51E56E800EE56E040EE56E390E73
:102C0000E56E4FEC0FF0040EE12604012C6BE4CFCF
:102C100002F0E4CF01F0E4CF00F012000401276BD2
:102C20000401286B040129698B809490B06A3F0EDF
:102C3000AF6EB886AC8AAC84AC8CAC90AB8CAB8EEF
:102C40000F012C6B0F01266B0F01296B0F012A6BF3
:102C50000F012B6B000EE56A25EC19F004012B6FB8
:102C6000E6529F989F9A010E04012A6F04012E6B71
:102C70002F6B2F0E306F33EC19F01200D9CFE5FF18
:102C8000E1CFD9FF00C0E5FF01C0E5FF02C0E5FFCD
:102C900003C0E5FF020EDBCF00F0030EDBCF01F037
:102CA000040EDBCF02F0050EDBCF03F0060EDBCF08
:102CB000E9FF070EDBCFEAFFC1EC07F0E4CF03F03A
:102CC000E4CF02F0E4CF01F0E4CF00F0E4CFD9FF8D
:102CD00012000401255104018C6F040126510401E6
:102CE0008D6FD6508A6FD7508B6F8C510401251988
:102CF00005E104018D51040126190CE00401255160
:102D000004018C6F0401265104018D6FD6508A6F27
:102D1000D7508B6F8DC4E9FF8CC4F4FF8BC4F3FFD5
:102D200004018A51120000C0E5FF01C0E5FF0F0158
:102D30002A510F01331905E00F012A510F012919FA
:102D400002E1E86A15D02ACF00F00F012A2B016AB0
:102D5000600E0026000E012200C0E9FF01C0EAFF5C
:102D6000EFCF00F02A51800A02E10F012A6B0050D8
:102D7000E4CF01F0E4CF00F0120000C0E5FFAAECC0
:102D800019F00401896B806B8983006A89B3002A7A
:102D90000050010BE844F46E8051FD0BF410806F7D
:102DA000D58ED59CD59AD588D596D594D582D58003
:102DB000F28AF184D08EF28EF28CBA80FF0EBB685C
:102DC000BA84E4CF00F01200D9CFE5FFE1CFD9FFFC
:102DD00000C0E5FF020EDBCF00F0030EDBCFA8FF43
:102DE00000C0A9FFA69EA69CA684F29EF29C550E4A
:102DF000A76EAA0EA76EA682A6A202D00000FCD7DC
:102E0000E86AA6B6E82AA694F28EF28CE4CF00F027
:102E1000E4CFD9FF1200D9CFE5FFE1CFD9FF00C041
:102E2000E5FF01C0E5FF02C0E5FF020EDBCF00F0C9
:102E300023CF01F024CF02F00F01233F01D0242B38
:102E40000050E56E0150E56EE4EC16F0E652E652F5
:102E5000E4CF02F0E4CF01F0E4CF00F0E4CFD9FFFB
:102E60001200D8CFE5FFE0CFE5FFE56EF3CFE5FF39
:102E7000F4CFE5FFE9CFE5FFEACFE5FFFACFE5FFC5
:102E8000FBCFE5FF29EC0AF0E4CFFBFFE4CFFAFF2C
:102E9000E4CFEAFFE4CFE9FFE4CFF4FFE4CFF3FFB0
:102EA000E450E4CFE0FFE4CFD8FF1000E8AE0AD052
:102EB000F3CFEAFFEE50EECFF3FFEECFF4FFEECF0D
:102EC000E9FF1200E8BCC3EF19F0E9CFF6FFF3CF3A
:102ED000F7FFF86E0900F5500900F5CFF3FF090080
:102EE000F5CFF4FF0900F5CFE9FF120000C0E5FFC0
:102EF00001C0E5FF040127510401281902E1E86A35
:102F00000FD0000E04012825006E016A070E012271
:102F100000C0E9FF01C0EAFFEFCF00F0282B00500E
:102F2000E4CF01F0E4CF00F01200F2CFEAFFF29E0E
:102F3000A69EA69CA684E9CFA9FFF3CFAAFFE4CF63
:102F4000A8FF7DEC19F0F4CFA8FF7DEC19F0F6CFC7
:102F5000A8FF7DEC19F0F7CFA8FF7DEC19F0A6943F
:102F6000EABEF28E1200F2CFF6FFF29EA69EA69C5B
:102F7000E9CFA9FFF3CFAAFFA680A850A94AAA2AA1
:102F8000A680A8CFF3FFA94AAA2AA680A8CFF4FF5B
:102F9000A94AAA2AA680A8CFEAFFF6BEF28E12009E
:102FA000E8AE08D0F3CFEAFFEE50EECFF3FFEECF5E
:102FB000F4FF1200E8BCC5EF19F0E9CFF6FFF3CF3C
:102FC000F7FFF86E0900F5500900F5CFF3FF09008F
:102FD000F5CFF4FF1200F2CFEAFFF29EA69EA69C68
:102FE000A684E9CFA9FFF3CFAAFFE4CFA8FF7DEC29
:102FF00019F0F4CFA8FF7DEC19F0F6CFA8FF7DEC17
:1030000019F0A694EABEF28E1200D9CFE5FFE1CF07
:10301000D9FF00C0E5FF020EDBCF00F000C02BF4AB
:103020000050E56E000EE56AE4EC16F0E652E6525A
:10303000E4CF00F0E4CFD9FF1200F2CFF6FFF29E0A
:10304000A69EA69CE9CFA9FFF3CFAAFFA680A85011
:10305000A94AAA2AA680A8CFF3FFA94AAA2AA6802D
:10306000A8CFF4FFF6BEF28E120000C0E5FF01C04B
:10307000E5FF600E0F012A25006E016A000E012295
:1030800000C0E9FF01C0EAFFEFCF00F00050E4CF3D
:1030900001F0E4CF00F01200D9CFE5FFE1CFD9FF76
:1030A00000C0E5FF020EDBCF00F0610E005C05E31F
:1030B0007B0E005C02E2010E01D0E86AE4CF00F072
:1030C000E4CFD9FF120000C0E5FF01C0E5FF23CF28
:1030D00000F024CF01F00F01233F01D0242B00503A
:1030E000E56E25EC19F0E652E4CF01F0E4CF00F0F4
:1030F0001200D9CFE5FFE1CFD9FF00C0E5FF020EF6
:10310000DBCF00F000C02AF4005004E133EC19F0EA
:103110009D9A9D98E4CF00F0E4CFD9FF1200E8AE6D
:1031200006D0F3CFEAFFEE50EECFF3FF1200E8BC7B
:10313000C1EF19F0E9CFF6FFF3CFF7FFF86E090002
:10314000F5500900F5CFF3FF1200F2CFEAFFF29E2F
:10315000A69EA69CA684E9CFA9FFF3CFAAFFE4CF41
:10316000A8FF7DEC19F0F4CFA8FF7DEC19F0A69430
:10317000EABEF28E120018EEFFF028EEFFF0F86AB9
:10318000A68EA69CE9680E0EEA6E0068000EED6A37
:103190000050FDE1C5EC12F006EC00F0FFD7F2CFD5
:1031A000F6FFF29EA69EA69CE9CFA9FFF3CFAAFF49
:1031B000A680A850A94AAA2AA680A8CFF3FFF6BEE7
:1031C000F28E1200F2CFEAFFF29EA69EA69CA68483
:1031D000E9CFA9FFF3CFAAFFE4CFA8FF7DEC19F058
:1031E000A694EABEF28E1200E8AE04D0F3CFEAFF56
:1031F000EE501200E8BCBFEF19F0E9CFF6FFF3CFB5
:10320000F7FFF86E0900F5501200E8AE0BD0F3CFCF
:10321000EAFFE4CFEEFFF4CFEEFFF6CFEEFFF7CFFD
:10322000EEFF1200E8BCBDEF19F01200E8AE09D0C5
:10323000F3CFEAFFE4CFEEFFF4CFEEFFF6CFEEFFE1
:103240001200E8BCC7EF19F01200D9CFE5FFE1CFBB
:10325000D9FF020EDBCFA9FFA69CA69EA680A85090
:10326000E4CFD9FF1200ACA2FED78B80AE50000095
:10327000AE50AB98AB88AB869D8A9D9812002564B2
:103280002000F2CFF6FFF29EA69EA69CE9CFA9FFF2
:10329000F3CFAAFFA680A850F6BEF28E1200E8AEC9
:1032A00007D0F3CFEAFFE4CFEEFFF4CFEEFF12003A
:1032B000E8BCBBEF19F01200700ED36E9B8CFF0EB2
:1032C0009268936894689668626AF19E120000C0E2
:1032D000E5FFCEEC14F0006E005001E1FF00E4CFFA
:1032E00000F01200E8AE05D0F3CFEAFFE4CFEEFF26
:1032F0001200E8BCB9EF19F01200550EA76EAA0E25
:10330000A76EA682A6B2FED7A94AAA2A010E040178
:10331000376F1C0E0F01236F246B12000401376BF3
:103320001C0E0F01236F246B1200010038330000C4
:10333000240400000A0000000000000000FF00005C
:103340000000BDEC16F00EEC16F01200ACA2FED799
:10335000AD6E12005CEC19F012000F012A51120040
:103360000F013451120004012A511200E8CF7FFFEF
:103370001200E2EF18F0A5EF18F095EF17F041EF0B
:1033800019F0CFEF18F0B3EF17F01DEF18F0EBEFD7
:0233900017F034
:00000001FF
